:020000040800F2
:10000000E8490020B5020008914400085D3A000864
:100010008D440008790E0008B54C0008000000006F
:10002000000000000000000000000000A9490008D6
:100030006113000800000000A5490008AD49000850
:10004000CF020008CF020008CF020008CF0200084C
:10005000CF020008CF020008CF020008CF0200083C
:10006000CF020008CF020008CF020008CF0200082C
:10007000CF020008CF020008CF020008CF0200081C
:10008000CF020008CF020008CF020008CF0200080C
:10009000CF020008CF020008CF020008CF020008FC
:1000A000CF020008CF020008CF020008CF020008EC
:1000B0006D4A0008CF020008CF020008CF020008F6
:1000C000CF020008CF020008CF020008CF020008CC
:1000D000CF020008CF020008CF020008CF020008BC
:1000E000CF020008CF020008CF020008CF020008AC
:1000F000854A0008CF020008CF020008CF0200089E
:10010000CF020008CF020008794A0008CF02000899
:10011000CF020008CF020008CF020008CF0200087B
:10012000250F0008CF020008CF020008CF02000808
:10013000CF020008CF020008CF020008CF0200085B
:10014000CF020008CF020008CF020008CF0200084B
:10015000CF020008CF020008CF020008CF0200083B
:10016000CF020008CF020008CF020008CF0200082B
:10017000CF020008CF020008CF02000800000000F4
:10018000CF020008CF02000800F002F800F083F868
:1001900014A696E8000CB244B344DA4501D100F04D
:1001A0007AF8BAE80F000FA696E83000A5EB040530
:1001B00004EB0607AAEB0704A7F101074FEA1515A0
:1001C0004FEA3414A4F10104AC4201D300F063F807
:1001D00013F0010F18BFFB1A43F0010300F001F800
:1001E000DBE718473C7D00005C7D00000A4410F806
:1001F000013B13F0030408BF10F8014B1D1108BFA9
:1002000010F8015B641E05D010F8016B641E01F844
:10021000016BF9D1002D15D010F8014B03F00C0340
:100220000C2BA1EB04040ABF10F8013BA4EB8314D0
:10023000A4EB032405F1010314F8016B5B1E01F824
:10024000016BF9D5914238BF10F8013BD1D370470B
:10025000704700000023002400250026103A28BF24
:1002600078C1FBD8520728BF30C148BF0B60704728
:10027000662907F0B181002070471FB507F069F9C2
:1002800000F040FC04000020002106F0BFFEE0600A
:100290001FBD10B510BD00F035FD1146FFF7EDFF95
:1002A00005F038FC00F053FD03B4FFF7F2FF03BC88
:1002B00000F094FD0948804709480047FEE7FEE743
:1002C000FEE7FEE7FEE7FEE7FEE7FEE7FEE7FEE706
:1002D00004480549054A064B70470000594A000882
:1002E00089010008E8430020E8490020E845002093
:1002F000E845002053EA020C00F069802DE9F04B3C
:100300004FF00006002B1FBFB3FA83F503FA05F484
:1003100024FA05F65E4012BF1643B2FA82F502FADD
:1003200005F4C5F120051EBF22FA05FC44EA0C04C1
:10033000203556EA044C4FEA144418BF641C4FF0B1
:1003400000084FF00009904271EB030C39D30029EB
:1003500019BFB1FA81F701FA07F6B0FA80F700FA8F
:1003600007F6C7F120071EBF20FA07FC46EA0C0675
:100370002037B6FBF4FCA7EB0507103F07F01F0B77
:10038000CBF120062CFA06F60CFA0BFB44BFB34661
:100390000026202FA4BF5E464FF0000B5BEA060C40
:1003A00008BF4FF0010B19EB0B0948EB0608ABFB3C
:1003B000027C06FB02CC0BFB03CCC01B71EB0C01D7
:1003C000C1E70B46024641464846BDE8F08B13B5EF
:1003D000084318BF4FF0FF300146AFF30080BDE87F
:1003E0001C4070470FB41CB5074B06AA7B446946F6
:1003F0000090059800F06DFB0020694600F07CFB42
:100400001CBC5DF814FB00000907000070B5044631
:1004100085690068C10601D5302600E02026C007A6
:1004200007D070BDD4E9012130469047206A401CB6
:1004300020626D1EF6D570BD70B5044685690078E2
:10044000C00707D170BDD4E9012120209047206A60
:10045000401C20626D1EF6D570BD2DE9F0474FF0AF
:10046000000A89460446C0F820A02046E168884773
:10047000002876D0252806D0D4E901219047206AAB
:10048000401C2062F1E7E168204600258847C4F857
:100490001CA006460027C4F818A02A2E09D0304612
:1004A00006F0ADFD38B304EB8708303EC8F818609D
:1004B00019E059F8041B204604EB87029161E168BA
:1004C0008847012F064618D1E069002820DA25F078
:1004D00020051DE0D8F8180000EB800006EB400076
:1004E0003038C8F818002046E1688847064606F00C
:1004F00086FD0028EED1012F0AD02E2E08D12046ED
:10050000E16888477F1C0646022F45F02005C4DBC2
:10051000A069002803DA404245F00105A061E80720
:1005200001D025F01005B6B1A6F14100192802D876
:10053000203645F400654A463146204625604D4642
:10054000FFF796FE58B1012806D0ED1D25F00700F3
:1005500000F1080989E704E005F1040985E7304660
:100560008AE7206ABDE8F087032A40F2308010F065
:10057000030C00F0158011F8013BBCF1020F62443E
:1005800098BF11F801CB00F8013B38BF11F8013BCF
:10059000A2F1040298BF00F801CB38BF00F8013B7C
:1005A00011F0030300F02580083AC0F0088051F8EC
:1005B000043B083A51F804CBA0E80810F5E7121DF7
:1005C0005CBF51F8043B40F8043BAFF30080D20716
:1005D00024BF11F8013B11F801CB48BF11F8012BE2
:1005E00024BF00F8013B00F801CB48BF00F8012B05
:1005F000704710B5203AC0F00B80B1E81850A0E861
:100600001850B1E81850A0E81850203ABFF4F5AFE0
:100610005FEA027C24BFB1E81850A0E8185044BF3C
:1006200018C918C0BDE810405FEA827C24BF51F8A9
:10063000043B40F8043B08BF7047D20728BF31F89D
:10064000023B48BF11F8012B28BF20F8023B48BFEE
:1006500000F8012B70474FF0000200B51346944696
:100660009646203922BFA0E80C50A0E80C50B1F10A
:100670002001BFF4F7AF090728BFA0E80C5048BF1E
:100680000CC05DF804EB890028BF40F8042B08BFBC
:10069000704748BF20F8022B11F0804F18BF00F8B8
:1006A000012B70477047704770472DE9FF4F0C468C
:1006B0001E464FF0FF378BB0D2E90001DDF86080B5
:1006C0000A908A46C1F30A5505B93D4600210846FD
:1006D0004FF00000BAF1000F00F4400005DA00EB23
:1006E00080004FF4400101EA50004FEA9059B9F1FF
:1006F000010F00DDB9460A9850EA4A000ED044F6D0
:100700001050A5F2FF3545432F14B8F1000F1ED04D
:100710007542291E1EDDC9F100021CE0B8F1010F6F
:100720004FF0000001D0302103E0F24305E02154F6
:10073000401CB042FBDB30460022002121540B99C3
:10074000C1F80880C1E900200FB0BDE8F08FBD1BE3
:100750006D1CDEE74A4600DA694206A800F05CFA42
:1007600006AB93E8070003AB83E8070050460A99FD
:1007700006F017F88DE80700A0F500501F3800902C
:100780000398002D0ADD42F21F014A460844002367
:1007900003A90390684606F081FA09E0A0F500502D
:1007A0004A461F38002303A90390684606F08BFAD7
:1007B0008DE807000004000C03D04FF0FF30410823
:1007C00000E01046B8F1000F03D000220092154659
:1007D0001EE0751E05D400F099F9303262556D1E89
:1007E000F9D5B3460122084302D000227F1C04E061
:1007F0002078302801D100227F1E002A099784D05A
:100800001DE0112D07DA00F081F9303262556D1CC0
:1008100050EA0102F5D1084302D00098C8B10EE0B9
:100820000021681E05E0235C625C63542254401E74
:10083000491C8142F7DBAB46A81B401E09900020F3
:1008400004F80B000B98099AC0F80880C0E9002B47
:100850007AE711264FF0000857E72DE9F04F884658
:100860000446D21D22F0070191B0D1E90001CDE983
:100870000A0106F05FFB02460B98C00F01D02D2045
:1008800007E02068810701D52B2002E0202101EA42
:10089000C000032A099001D0072A05DB0346414620
:1008A000204600F079F90BE12078800601D5E06957
:1008B00000E00620B8F1650F814606D0B8F1660F5A
:1008C00018D0B8F1670F70D131E00020B9F1110FE5
:1008D000009001DB112301E009F101030AAA01A93B
:1008E0000CA8FFF7E2FEDDE90C70002609F1010516
:1008F000834647E001204B4600904FF000470AAA8C
:1009000001A90CA8FFF7D1FEDDE90DB00C995D46F9
:10091000002610B909F101000D18B9EB050003D448
:10092000C0F1FF3609F10105A5EB09002BE0B9F193
:10093000010F01DA4FF001090020B9F1110F009009
:10094000484601DD112300E003460AAA01A90CA8CC
:10095000FFF7ABFEDDE90C704D460026834620789C
:1009600000070AD4AB4500DA5D4601A8012D04DD7D
:10097000411911F8011C302907D04F4502DA17F14F
:10098000040F04DA012082460FE06D1EEEE7002F0F
:1009900002DCED1B3E4403E0781CA84200DD7D1C18
:1009A000B81B00F1010A4FF000472078000703D47C
:1009B000AA4501DB4FF0FF3A0021B7F1004F0DF1DE
:1009C00043088DF8431024D002202B23002F01DA96
:1009D0007F422D230A21021EA0F1010000DC5FB13D
:1009E00097FBF1FC97FBF1F201FB1C7C17460CF125
:1009F000300C08F801CDEEE7A8F101000370218862
:100A0000090501D5452100E06521A0F1010800F8A4
:100A1000011C09980FA9A1EB0807FF1D00B10120D7
:100A2000411901EBEA70A1693844081A401EA0611F
:100A30002078C00602D42046FFF7E8FC099828B1C8
:100A4000D4E901219047206A401C20622078C0062A
:100A500022D52046FFF7DAFC1EE0002E04DBB3456A
:100A600002DD01A8805D00E03020D4E9012190473B
:100A7000206A401C2062761CAAF101005FEA000A8D
:100A80000AD100F03FF8C0680168405CD4E9012158
:100A90009047206A401C2062281EA5F10105DCDC7D
:100AA00007E0D4E9012118F8010B9047206A401CA7
:100AB0002062381EA7F10107F3DC2046FFF7BCFCDB
:100AC000032011B041E6000001694A1C0261087868
:100AD000704700B58FB0CDE901310021059105497E
:100AE0007944CDE9031011466846FFF7B6FC0FB014
:100AF00000BD0000E5FFFFFF0A6802F8010B0A6075
:100B00007047000000487047D025002030B5B0F194
:100B10000A0271F100034FEA900E4EEA817EB0EBBB
:100B20000E0061EB91014FEA101E4EEA017E10EBC0
:100B30000E0041EB11114FEA102E4EEA016E10EB40
:100B40000E0041EB11214FEA104E4EEA014E10EB20
:100B50000E0041EB1141401841F100014FEAD00075
:100B600040EA41704FEAD1014FEA810444EA9074AF
:100B700010EB800544EB01046D1944EB0404521B97
:100B8000A3414FF0000348BF0A3200D530BD401CDE
:100B900041F1000130BD00002DE9F0411F4604463F
:100BA00003260168072A01F4006004DB08B116A5DA
:100BB00005E016A503E008B115A500E015A521F094
:100BC00010002060A069C01EA0610FB1401EA0618E
:100BD0002046FFF71BFC4FB1D4E90121384690476E
:100BE000206A401C2062C01C206206E0206AFAE7EE
:100BF000D4E9012115F8010B9047761EF8D2204662
:100C0000FFF71AFCBDE8F0814E414E006E616E00A8
:100C1000494E4600696E66002DE9F047814616464A
:100C20008AB0354878440DC88DE80D0032487844C4
:100C3000801C03AC0DC884E80D0041F69B300844CD
:100C4000372190FBF1F290FBF1F5A5F1800501FB56
:100C500012041B3C02D56442012000E00020DFF8B2
:100C600098A080460027FA44AAF1BE0A0EE0E007E9
:100C70000AD03246684607EB470101230AEB81019F
:100C800006F021F88DE8070064107F1C002CEED1DF
:100C9000194F7F44AE3F19E0E80715D007EB041069
:100CA0000DF1180A90E80E008AE80E00C068F042C4
:100CB00001D1981908903246012306A903A806F02D
:100CC00002F803AB83E807006D10641C002DE3D12C
:100CD0004FF0010332466946B8F1000F03A802D075
:100CE00005F0DCFF01E005F0EEFFC9E90001C9F8FD
:100CF00008200AB0BDE8F087306A0000004870475D
:100D0000B02500207546FFF7F9FFAE46050069469D
:100D1000534620F00700854618B020B5FFF7D8FAF3
:100D2000BDE820404FF000064FF000074FF00008EC
:100D30004FF0000BAC46ACE8C009ACE8C009ACE829
:100D4000C009ACE8C00921F007018D46704710B515
:100D50000446AFF300802046BDE81040FFF7A4BA78
:100D600030B44FF0013C50F8042B51F8043BCCFA5E
:100D700052F4D51A20D1FCB950F8042B51F8043B99
:100D8000CCFA52F4D51A17D1B4B950F8042B51F853
:100D9000043BCCFA52F4D51A0ED16CB950F8042B9E
:100DA00051F8043BCCFA52F4D51A05D1002CDAD014
:100DB00030BC4FF00000704729BAB1FA81F111F050
:100DC0001801D1F120008440F2D1CA40CB4012F08A
:100DD000FF0213F0FF0330BCD01A704701491820FE
:100DE000ABBEFEE726000200704700000146806BA4
:100DF000036C026C13F0500F08D0D20648BF00F00D
:100E0000E7BB806BC26C0846104700BF42F400711C
:100E1000016401688A6812F0405F01D000F0C6BB2F
:100E2000027E002AFAD1CA6A12F4700F02D08A68D0
:100E30005205F3D44A6822F020024A60016C21F482
:100E400080710164016CC90448BF00F0AFBB016C44
:100E500041F00101016400F0A9BB0000806B40215A
:100E60000164416C41F00401416400F0B1BB000039
:100E7000806B00F0ABBB0000FEE700000146407C49
:100E800000224A747047000010B504460160828059
:100E900083711420A0744FF47A70A08201F09EF93F
:100EA000A0600020208210BDB0B5044601F096F984
:100EB0000546A068A17C281A884232D32068A18800
:100EC000A56001F07FF9227C032A2AD8A179DFE806
:100ED00002F00317071300BF884222D101201FE050
:100EE000884213D1E068A18A281A884238BFB0BD71
:100EF00040F203202082B0BD884209D102200FE0D9
:100F000088420CD102202074E560B0BD032007E0C8
:100F1000E068A18A281A88423CBF01206074002042
:100F20002074B0BD43F2B030C2F2000000F02ABD20
:100F300051B32DE9F04385B080466F4691460E4689
:100F40004A0038464146FFF70FFBBDF80200BDF8E6
:100F50000010814286BFADF802100021012147EA4E
:100F600041010880BDF80400BDF8021081420FD98C
:100F7000BDF80020ADF80410824286BFADF8022013
:100F80000021012105E000BF9FEDB90A704700BFB5
:100F9000022127F81100BDF80600BDF804208242A6
:100FA00010D9BDF80210ADF8062081420CD9BDF869
:100FB0000020ADF80410824286BFADF80220002167
:100FC000012102E0032100E0022127F81100BDF811
:100FD0000800BDF80620824216D9BDF80410ADF80D
:100FE0000820814212D9BDF80220ADF806108242D5
:100FF0000ED9BDF80010ADF80420814286BFADF8CF
:1010000002100021012104E0042102E0032100E09C
:10101000022127F81100BDF80A00BDF8082082421D
:101020001CD9BDF80610ADF80A20814218D9BDF8C8
:101030000420ADF80810824214D9BDF80210ADF8B2
:101040000620814210D9BDF80020ADF8041082427C
:1010500086BFADF802200021012106E0052104E051
:10106000042102E0032100E0022127F81100BDF86D
:101070000C00BDF80A20824222D9BDF80810ADF854
:101080000C2081421ED9BDF80620ADF80A1082421C
:101090001AD9BDF80410ADF80820814216D9BDF860
:1010A0000220ADF80610824212D9BDF80010ADF84A
:1010B0000420814286BFADF802100021012108E022
:1010C000062106E0052104E0042102E0032100E0FE
:1010D000022127F81100BDF80E00BDF80C20824255
:1010E00028D9BDF80A10ADF80E20814224D9BDF8E8
:1010F0000820ADF80C10824220D9BDF80610ADF8DA
:101100000A2081421CD9BDF80420ADF808108242A3
:1011100018D9BDF80210ADF80620814214D9BDF8E7
:101120000020ADF80410824286BFADF802200021F5
:1011300001210AE0072108E0062106E0052104E07C
:10114000042102E0032100E0022127F81100BDF88C
:101150001000BDF80E2082422ED9BDF80C10ADF85B
:10116000102081422AD9BDF80A20ADF80E10824223
:1011700026D9BDF80810ADF80C20814222D9BDF85F
:101180000620ADF80A1082421ED9BDF80410ADF851
:10119000082081421AD9BDF80220ADF8061082421B
:1011A00016D9BDF80010ADF80420814286BFADF815
:1011B0000210002101210CE008210AE0072108E0CB
:1011C000062106E0052104E0042102E0032100E0FD
:1011D000022127F81100BDF81200BDF8101081425D
:1011E00026D9BDF80E10814224D9BDF80C108142D9
:1011F00022D9BDF80A10814220D9BDF808208242C8
:101200001ED9BDF80610ADF80A2081421AD9BDF8E2
:101210000420ADF80810824216D9BDF802108142B0
:1012200014D9BDF800200021824298BF01210EE0B0
:1012300009210CE008210AE0072108E0062106E068
:10124000052104E0042102E0032100E0022127F847
:101250001100BDF80800BDF80A10042E08444FEA3A
:10126000500006F0030C05D200270022002130E0D8
:101270000000000026F00306A8F108050027002260
:10128000002100BF35F8083F04371C1A48BF6442EC
:101290004C4598BF19446B8898BF01321C1A48BF4F
:1012A00064424C4598BF1944AB8898BF01321C1A60
:1012B00048BF64424C4598BF1944EB8898BF01323F
:1012C0001C1A48BF64424C459CBF19440132BE42BF
:1012D000D8D1BCF1000F20D038F817301E1A48BF03
:1012E00076424E459CBF19440132BCF1010F14D027
:1012F00008EB47077B881E1A48BF76424E459CBFC5
:1013000019440132BCF1020F07D0BB881F1A48BF35
:101310007F424F459CBF1944013292B200EE101A31
:1013200001EE102AB8EE400AB8EE411A80EE010A2A
:1013300001EE100AB8EE411A002A08BFB0EE410AC9
:101340009FED051A9FED052A20EE010A20EE020A04
:1013500005B0BDE8F08300BF33335340000080394F
:101360007047000072B600BFFEE70000F0B581B024
:1013700043F2CC57044643F60C46C2F20007002065
:10138000C4F20206F86100F029FF3168C9031BD4DA
:101390003068C0071CBF01203060306810F0F20FC9
:1013A00030D03068C00631D43068800637D4306819
:1013B00040063DD43068000643D43068800749D4E5
:1013C000012001B0F0BD00BFC4B10546601C10D1C2
:1013D0003068C003DCD53068C00344BF30685FEAC2
:1013E000C030D5D53068C003F2D4D1E73068C0032F
:1013F000CED500F0F3FE401BA042F7D9032001B088
:10140000F0BD00BF002001B0F0BD00BFF86940F0A2
:101410001000F8611020306030688006C7D5F86988
:1014200040F00800F8612020306030684006C1D5E7
:10143000F86940F00400F861402030603068000630
:10144000BBD5F86940F00200F86180203060306858
:101450008007B5D5F86940F02000F86102203060BF
:10146000012001B0F0BD000070B581B000220092F3
:1014700090F83C20012A03D1022001B070BD00BFCA
:10148000D1F800E00122BEF10A0F1FFA8EFC80F8AD
:101490003C2009D34FEA4C02036812FA8EF2A2F103
:1014A0001E0403F10C0204E003680EEB4E0403F18A
:1014B000100207251668A54026EA050515608D6807
:1014C000166805FA04F4344314604968062907D8FD
:1014D00001EB81014A1F194651F8345F0FE000BF4C
:1014E0000C2901EB810105D8A1F12302194651F81D
:1014F000305F04E0A1F14102194651F82C5F1F242E
:10150000944025EA04040C600CFA02F20C6842F2E2
:10151000043CC4F2010C2243ACF54174A3420A60BE
:101520003ED1BEF1120F07D1DCF8001041F480016A
:10153000CCF8001034E000BF2EF0010110292FD1AB
:10154000DCF80010BEF1100F41F40001CCF80010DF
:1015500026D140F22401C2F2000109684DF68362EF
:10156000C4F21B32A1FB0212910C01EB8101490074
:1015700000910099A1B1009901390091009979B1C8
:10158000009901390091009951B1009901390091F8
:10159000009929B100990139009100990029EAD1F7
:1015A000002180F83C10002001B070BD006842F2BC
:1015B0000001C4F20101884218BF704742F2106076
:1015C000C2F2000001210170704700007047000066
:1015D00070470000002804BF0120704710B5016C5F
:1015E00000293DD0016CC90645D4016C41F20212BC
:1015F0009143023142F204320164C4F201021168E3
:1016000021F440311160136890E812102343D0F8A0
:1016100010E013604A68012422F480724A604A682C
:10162000C0F6007442EA0E224A604A6822F0407214
:101630004A604A6842EA0C024A608A6822F4006200
:101640008A60C2688B681A438A60826A8B68A24289
:1016500023F070638B608B6810D123F0405216E04A
:10166000044600F065F820460021616484F83C10CF
:10167000016CC906B9D5012153E000BF1A438A6045
:101680008A6822F040528A60C26A8B681A438A6074
:101690008A6822F002028A608A68037E90F82040FD
:1016A00042EA43028A604A6884B142F400624A60B6
:1016B0004A684EF2000322F460424A60426ACFF662
:1016C000FF734C6803EB4232224301E022F40062D4
:1016D0004A60CA6A40F2000C22F47002CA62C3690E
:1016E0004269CFF6F07CCC6A0CEB03532343CB6208
:1016F0008B6823F400738B6090F830308C6844EA78
:1017000043238B608B6823F480638B608B6843EA90
:1017100082228A6000214164026C012363F301028A
:101720000264002280F83C20BDE810400846704763
:1017300070B586B0044642F200002168C4F2010090
:10174000002681420596CDE903660296019601D0F6
:1017500006B070BD43F630010096C4F202014A693A
:1017600000F5604042F480724A614A6902F4807276
:101770000092009A00960A6842F001020A60096825
:1017800001F00101009100990321CDE9011101A9A6
:10179000039600F047FC43F2B03546F21040C2F227
:1017A0000005C4F202004FF48061C5E9000605F1AE
:1017B00010004FF400624FF400534EC04FF400305D
:1017C000C5E908062846C5E9026600F0BDF900280B
:1017D00018BFFFF7C7FDA563AC6306B070BD00007E
:1017E000B0B582B00023019390F83C30012B03D1B7
:1017F000022002B0B0BD00BF8E460123016880F810
:101800003C308B689446DB0729D18B684DF68364A6
:1018100043F001038B6040F22403C2F200031B6813
:10182000C4F21B34A3FB0434A30C03EB4303019366
:10183000019BA3B1019B013B0193019B7BB1019BE8
:10184000013B0193019B53B1019B013B0193019B20
:101850002BB1019B013B0193019B002BEAD18B68CB
:10186000DB0503D58B6823F480738B608C68036C75
:10187000E4070BD143F01001016400F144010020A2
:1018800001220B681A430A6002B0B0BD40F2017435
:10189000A34303F5807303644B685B0504D5036CB5
:1018A000012464F30D330364046C0023E4044FF05B
:1018B000000444BF446C24F00604446480F83C30C7
:1018C000836B40F6ED5440F67162C0F60004C0F63A
:1018D0000002C3E90F4240F65D62C0F60002DA641E
:1018E0006FF022020A604A6842F2043442F08062D9
:1018F0004A608A68054642F480728A604C31184614
:1019000072466346C4F2010400F0D0F922682968E7
:10191000D20605D0A4F54172914225D002B0B0BDE7
:1019200042F20002C4F20102914215D042F20022BA
:10193000C4F2010291420CD042F20012C4F2010240
:101940009142EBD12268D20606D0A4F58272914270
:10195000E4D12268D206E1D451F8082F12F0405F9A
:10196000DCD14FF080428CE74FF60451CFF6FF7187
:10197000615811F0405FD1D1A4F53F714FF0804222
:101980007FE70000F0B581B00021009140F2240112
:10199000C2F200010B68D0E9166148F2B51537684C
:1019A0000822C1F64E358A403A42A3FB05350CD0D9
:1019B00003681C68640708D51C6824F004041C60D4
:1019C000B260426D42F00102426501228A403A4211
:1019D00008D003685B691B0604D5B260426D42F013
:1019E0000202426504228A403A4208D003681B681A
:1019F0009B0704D5B260426D42F00402426510229A
:101A00008A403A4219D001680B681B0715D5B260AD
:101A10000B680A685B0309D4D20509D40A6822F06E
:101A200008020A60016C29B907E000BF110341D424
:101A3000016C11B1044688472046C26D202101FA8D
:101A400002F33B4243D001680F68FF063FD5B36005
:101A500090F835700B68052F1CD123F016030B602E
:101A60004B6923F080034B61036C0BB9836C1BB192
:101A70000B6823F008030B603F219140B160012106
:101A800080F83510016D0022002980F8342054D1EF
:101A900058E000BF0A685B0310D4D20512D40A686C
:101AA00022F010020A60012180F83510002180F830
:101AB000341007E0816C0029BCD1BEE7110301D4CA
:101AC000416C00E0C16B11B1044688472046416D6E
:101AD000C1B3416DC9072ED0052180F835100168CA
:101AE000AA0A0B6823F001030B60009B01339342A9
:101AF00000931AD80B68DB0717D0009B0133934281
:101B0000009312D80B68DB070FD0009B0133934280
:101B100000930AD80B68DB0707D0009B0133934280
:101B2000009302D80B68DB07DFD1012180F8351064
:101B3000002180F83410C16C21B101B0BDE8F04043
:101B4000084700BF01B0F0BD2DE9F041044600F0A8
:101B500045FBECB10546022084F8350000202168E1
:101B600084F83400086820F00100086021680868E3
:101B7000C00711D000F032FB401B0528F6D9032521
:101B800020230320636584F83550BDE8F08100BF51
:101B90000120BDE8F08100BF086848F23F02CFF2A3
:101BA0001002D4E9013500EA020C04F10C0898E8AF
:101BB000C10143EA0C032B431843D4E9072E3043F9
:101BC00038431043626A40EA0E00042A40EA0803E0
:101BD0001CD1206BD4E90A2E40EA0E00184308609D
:101BE0004869BEF1000F20F0030040EA020040F017
:101BF000040C11D0B8F5005F36D0B8F1000F45D114
:101C0000022A46D0012A3BD032B942E00B60486933
:101C100020F0070040EA020C01F0F8004AF6AB227F
:101C20001038CAF6AA22A0FB02231A0947F6A063BD
:101C3000C1F814C0C0F600039A5C40F2FF335F287D
:101C40004FF03F0021EA030100FA02F088BF04319F
:101C5000C4E916128860002301250020636584F81A
:101C60003550BDE8F08100BF032AD5D801254023B7
:101C70000120DFE802F0030E030500BF82E700BF8A
:101C8000AEF1C070B0FA80F0400904E0032A04D33A
:101C9000C2D1CEF300600028BED001254023012030
:101CA000636584F83550BDE8F081000090F834C0D9
:101CB000BCF1010F04BF0220704770B54FF0010C5A
:101CC00080F834C0D0F858E090F835C0BCF1010F6E
:101CD00038D14FF0020C80F835C04FF0000CC0F83E
:101CE00054C0D0F800C08468056CC06DDCF800609A
:101CF000402C26F48026CCF80060CCF804300B464B
:101D000004BF13460A463F2101FA00F0CCF8083020
:101D1000CCF80C20CEF80800DCF8000040F01600EB
:101D2000CCF800002DB1DCF8000040F00800CCF841
:101D30000000DCF8000040F00100CCF800000020BA
:101D400070BD00BF002180F83410022070BD00007B
:101D5000B0B5044600F042FA054640F20000C2F277
:101D600000000078611C18BF044400BF00F036FA80
:101D7000401BA042FAD3B0BD2DE9F04381B043F23D
:101D8000CC58C2F2000898F81820012A04D1022089
:101D900001B0BDE8F08300BF0546012088F81800B7
:101DA0004CF250308946FFF7E1FA28B1002188F85B
:101DB000181001B0BDE8F0834FF0FF30C9F8000003
:101DC000286843F610470128C4F202071CD128698D
:101DD0003968000221F440713960396880B241F0FD
:101DE000040139603968084340F4803038604CF2AF
:101DF0005030FFF7BBFA396821F00401396057F819
:101E0000101C89053BD452E0D5E90260304486427B
:101E100030D2F000841C00BF28694FF44072C1B278
:101E2000032939684FEA002021F44071396039688C
:101E300038BF82B241EA02003860386820F078008A
:101E40003860386820433860386840F48030386043
:101E50004CF25030FFF78AFA3968002821F07A01F5
:101E6000396047D1D5E9020101360844864204F1C0
:101E70000804D1D3002057F8101C890517D557F84E
:101E8000101C21F4007147F8101C57F8101C41F485
:101E9000006147F8101C57F8101C21F4006147F846
:101EA000101C57F8101C41F4007147F8101C57F82B
:101EB000101C49057FF57AAF57F8101C21F480619A
:101EC00047F8101C57F8101C41F4805147F8101CBB
:101ED00057F8101C21F4805147F8101C57F8101CBB
:101EE00041F4806147F8101C002188F8181001B0F7
:101EF000BDE8F083C9F8006057F8101C8905BED40E
:101F0000D5E7000043F61041C4F20201086840F032
:101F1000004200200A6070472DE9F04143F2CC54A2
:101F2000C2F20004277E012F04BF0220BDE8F08129
:101F30000546012020764CF2503098460F46164652
:101F4000FFF714FA20B100212176BDE8F08100BF2F
:101F50002A46022D43F61045C4F202051ED0012A7E
:101F6000314638460CD03ABB2A6822F440722A60C7
:101F70002A682A602A6842F001022A6001702CE077
:101F80002A6822F440722A602A6842F480722A6029
:101F90002A6842F001022A6001801EE0286820F4CD
:101FA00040702860286840F400702860286840F07D
:101FB000010028603E6010E02A6822F440722A6026
:101FC0002A6842F440722A602A6842F001022A60BC
:101FD0000160BFF36F8FC0F804804CF25030FFF700
:101FE000C5F9296821F00101296000212176BDE8A9
:101FF000F081000043F60440C4F20200C168B1F170
:10200000FF3FC4BF0020704740F22311C4F2675164
:10201000016048F6AB11CCF6EF510160C068C00F0B
:10202000704700002DE9F04F83B000F1200200F16D
:102030003E4741F60045009207F1FF77C4F20205E2
:1020400008224FEAB726A84208BF072200254FF012
:1020500000084FF00009072E38BF4FEAB72201925F
:102060000AE000BF09F1010908F10208B9F1100FF7
:1020700005F1040500F0A2800F68012202FA09FEB2
:1020800017EA0E0AEED0D1F804C003220CF00307C1
:102090007E1E02FA08F4012E6FEA040B12D884683F
:1020A000CE6804EA0B0406FA08F6344384604468F8
:1020B00024EA0E06CCF3001404FA09F42643466021
:1020C00004E000BF032F01D103271EE0C6688C681F
:1020D00006EA0B0604FA08F42643022FC66014D160
:1020E0006FF00302009E02EA590756F807C005F098
:1020F0001C040F220B69A2402CEA0202A3401A43DF
:10210000F251D1F804C00CF00307026807FA08F393
:1021100002EA0B021A431CF4403F0260A2D00022E4
:1021200043F644030292C4F202031A6843F60044E1
:1021300042F480421A601A68C4F2010402F4804238
:102140000292029A29F003024FF6084C2244CFF67D
:10215000FF7C52F80C3005F00C070F26BE40B3434D
:10216000019E06FA07F73B4342F80C30A2684B6821
:1021700042EA0A0743F60C4CDE0258BF22EA0A077D
:10218000A760C4F2010CDCF800209E0242EA0A07B4
:1021900058BF22EA0A07CCF8007062689E0342EA40
:1021A0000A0758BF22EA0A0767602268DB0342EA8F
:1021B0000A0758BF22EA0A07276053E703B0BDE8C1
:1021C000F08F00000069084018BF01207047000030
:1021D000002A08BF090481617047000043F2EC50F7
:1021E000C2F2000000687047002804BF0120704759
:1021F000F0B581B0044690F83D0028B9002084F87D
:102200003C00204600F050F9242084F83D0020686E
:10221000016821F001010160016841F400410160A1
:10222000016821F40041016000F0E2FA636848F2BD
:10223000A16CC0F2010C40F60011C0F23D016345F3
:102240003CBF48F28041C0F21E01884202D2012008
:1022500001B0F0BD4DF68361C4F21B31A0FB011249
:102260002168970CD1F804E04FF496762EF03F05E4
:1022700045EA92454D60774348F638160D6AC0F23C
:102280004106A7FB067625F03F07634538BF960C4D
:10229000721C3A430A62CA6948F2A0664CF6FF779C
:1022A000C0F20106B34222EA07020BD801385B00F4
:1022B000B0FBF3F001306FF31F30042898BF042007
:1022C0001BE000BFA768013857B119277B43B0FB5B
:1022D000F3F001306FF31F3070B100F5804007E07C
:1022E00003EB4303B0FBF3F001306FF31F3018B181
:1022F00000F5004001E000BF01201043C8610868FC
:10230000D4E9072320F0C000104318430860886810
:1023100048F2FF3204F10C0790438CCF184310436E
:10232000A6698860C86820F0FF0038433043C86061
:10233000086840F00100086000202021206484F833
:102340003D10206384F83E0001B0F0BD2DE9F0435C
:1023500083B0994616460F460446FFF73FFF94F8B0
:102360003D10202924D10546206800BF81698907D6
:102370001AD5FFF733FF411B20681A29F6D381696C
:102380008907F3D500202021206384F83D1084F8CC
:102390003E00216C41F02001216484F83C000220C1
:1023A00003B0BDE8F08300BF94F83C10012903D1CD
:1023B000022003B0BDE8F083012284F83C200368CA
:1023C000DDE90B180A9ADB0703D1036843F0010328
:1023D0000360036823F400630360212084F83D0058
:1023E000402084F83E000020206462626185608D98
:1023F000394620850020CFF6FF70E0622046324645
:102400004B46CDE9008501F02BFB18B1012003B04C
:10241000BDE8F083208D98B9204641462A4601F058
:1024200083FB88B3206C0428F0D12068016841F454
:1024300000710160012003B0BDE8F0830004EBD01F
:10244000204641462A4601F01FFD0028EAD1616A74
:102450002268084610F8013B1361238D6062581E04
:102460002085678D013F678557697F07E6D507049B
:10247000E4D048781061881C6062981E2085618DC8
:1024800001396185DAE700BF2068016841F4007115
:102490000160202084F83D00002084F83E0084F88C
:1024A0003C0003B0BDE8F083B0B586B045F2004112
:1024B0000068C4F20001002488420594CDE9034479
:1024C0000294019402D006B0B0BD00BF43F63005BF
:1024D0000094C4F20205286840F0020028602868D1
:1024E00000F0020000900098C02001901220CDE979
:1024F0000204032004900420059001F5D83001A9BE
:10250000FFF790FD0094286940F4001028612869C5
:1025100000F400100090009806B0B0BD40F200003A
:1025200043F2EC51C2F20000C2F2000100780A68E6
:10253000104408607047000080B543F60040C4F2C4
:102540000200016841F400710160016841F480619A
:102550000160016841F480710160032000F086F899
:102560000F2000F005F800F027F8002080BD0000E3
:1025700070B540F20006C2F2000640F22401327843
:10258000C2F200014FF47A730968B3FBF2F2044619
:10259000B1FBF2F1084600F05FFB0F2C4FF0010594
:1025A00008D838B94FF0FF3021460022002500F04E
:1025B00031F87460284670BD82B0002043F64001B7
:1025C0000190C4F202014A6842F480424A604A68BB
:1025D00002F480420192019A0090086840F0805015
:1025E0000860086800F080500090009802B07047C2
:1025F000002848BF704700F01F01012202FA01F1D4
:102600001C2202EAD0004EF20012CEF200028150EB
:102610007047000010B54EF60C5CCEF2000CDCF8F2
:102620000030C3F3022E8EF00704042C28BF0424CC
:10263000BEF103034FF0FF3E0EFA04F438BF00234F
:10264000A14399400EFA03F39A43114300F00F029D
:1026500000F160430901043A03F564436244002831
:1026600048BF02F10C03197010BD00004EF60C516A
:10267000CEF200010A684FF6FF031A4060F30A2207
:1026800042F0806040F0FD7008607047002804BF91
:10269000012070472DE9F04143F60808C4F2020812
:1026A0000446D8F8F8030D4600F00700884207D228
:1026B00088F8F853D8F8F80300F00700A84277D15B
:1026C0002068810717D5410705D5D8F8001041F4D7
:1026D000E051C8F80010010705D5D8F8001041F402
:1026E0006041C8F80010D8F80010A26821F0F0018D
:1026F0001143C8F80010C00740D1D8F8F80300F023
:102700000700A84207D988F8F853D8F8F80300F072
:102710000700A8424CD12068410707D5D8F800101F
:10272000E26821F4E0511143C8F80010000708D511
:10273000D8F80000216920F4604040EAC100C8F8E0
:10274000000000F07DF8D8F8001047F27062C1F385
:102750000311C0F60002515C40F2240220FA01F19C
:1027600040F20400C2F200000068C2F200021160F0
:10277000FFF7FEFE0020BDE8F08100BF6068811E0B
:10278000022907D258F8081C89015CBF0120BDE866
:10279000F08111E0012807D158F8081C89035CBFBB
:1027A0000120BDE8F08107E058F8081C890703D430
:1027B0000120BDE8F08100BFD8F8001021F003012E
:1027C0000843C8F80000FFF709FD064641F28837C4
:1027D000D8F80000616800F00C00B0EB810F8CD0DD
:1027E000FFF7FCFC801BB842F2D90320BDE8F08162
:1027F00040F2240043F60801C2F20000C4F20201D4
:102800000068096847F28062C1F38221C0F60002C5
:10281000515CC8407047000040F2240043F60801B4
:10282000C2F20000C4F202010068096847F2806247
:10283000C1F34231C0F60002515CC840704700004D
:1028400010B543F60404C4F20204606800F00C0101
:1028500042F200400829C0F2F40007D0042918BF52
:1028600010BD41F20020C0F27A0010BD216801F0D5
:102870003F02216823684902C3F3881106D4A1FBF3
:1028800000010023FDF736FD07E000BF41F2002004
:10289000C0F27A004843B0FBF2F021680222C1F393
:1028A000014102EB4101B0FBF1F010BD002804BF73
:1028B000012070472DE9F04182B00446007843F6CC
:1028C0000006C007C4F202060CD0B06800F00C008D
:1028D000042840F081803068800303D560680028B8
:1028E00000F06881207880071BD5B06810F00C0FCD
:1028F00009D0B06800F00C00082840F087807068AC
:10290000400200F183803068800703D5E068012829
:1029100040F050813068216920F0F80040EAC100A1
:1029200030602078000713D4207840072AD4A569A6
:10293000002D00F03A81B06800F00C00082840F04B
:10294000A580012D40F00E81012002B0BDE8F0818C
:102950006069002800F082800020C4F24720012135
:10296000C0F8801EFFF73AFC054600BF706F800775
:10297000DAD4FFF733FC401B0228F7D9032002B05A
:10298000BDE8F081306C5FEAC0080AD400200190F5
:10299000306C40F080503064306C00F0805001901A
:1029A000019847F20007C4F200073868C00547D411
:1029B000386840F480703860FFF710FC054600BFAF
:1029C0003868C0053CD4FFF709FC401B0228F7D942
:1029D000032002B0BDE8F081B06800F00C000828C8
:1029E00003D1706840023FF576AF61683068B1F599
:1029F000803F07D0B1F5A02F40F09A8040F48020AE
:102A00003060306840F4803030609AE0E068002840
:102A100040F20000C4F247205CD001210160FFF7C2
:102A2000DDFB0546306880073FF574AFFFF7D6FB46
:102A3000401B0228F6D9032002B0BDE8F08100BF98
:102A4000A168306F012905D0052955D140F0040057
:102A50003067306F40F00100306756E00020C4F26C
:102A600047200021C0F8801EFFF7B8FB054600BFD5
:102A7000706F80077FF558AFFFF7B0FB401B02284F
:102A8000F6D9032002B0BDE8F08100BF0027C4F2F0
:102A9000472700203866FFF7A1FB022D05460DD120
:102AA0003068800140F18A80FFF798FB401B0228C4
:102AB0004FF00300F4D902B0BDE8F0813068800126
:102AC00073D5FFF78BFB401B02284FF00300F5D9AD
:102AD000F1E700BF00210160FFF780FB054600BF62
:102AE000306880077FF51DAFFFF778FB401B022899
:102AF0004FF00300F4D9DEE720F001003067306FBB
:102B0000002920F0040030677AD0FFF767FB054604
:102B100041F28837306F800700F18480FFF75EFB59
:102B2000401BB842F6D9032002B0BDE8F08100BFD7
:102B300020F4803030603068002920F4802030603C
:102B40007AD0FFF74BFB0546306880033FF5CAAEED
:102B5000FFF744FB401B6428F6D9032002B0BDE810
:102B6000F08100BF7068E16900F480028A4221D1DF
:102B7000216A00F03F028A421CD147F6C071626AA6
:102B80000140B1EB821F15D1A16A4FF6FF73C90353
:102B9000994300F44032A1F580318A420AD1E16ABA
:102BA00000F07060B0EB016F04D1002002B0BDE80E
:102BB000F08100BF012002B0BDE8F08104F11C05E6
:102BC0002FCD084340EA8210D9034FF6FF7291439C
:102BD000A1F5803140EA0560084370600120386645
:102BE000FFF7FCFA044600BF30688001DDD4FFF730
:102BF000F5FA001B02284FF00300F5D95BE700BF90
:102C0000FFF7ECFA054641F2883700BF306F8007C6
:102C100008D5FFF7E3FA401BB8424FF00300F5D99F
:102C200049E700BFB8F1000F3FF581AE306C20F0EE
:102C3000805030647BE600BFFFF7D0FA054600BF46
:102C4000306880037FF54EAEFFF7C8FA401B64285A
:102C50004FF00300F4D92EE7411E0020B0EB116FB6
:102C60001CBF012070474EF21002CEF200025160EC
:102C70004EF62351CEF20001F0230B700721906035
:102C800011607047704700007047000090F83C20CA
:102C9000012A04BF02207047B0B501F108053CCD00
:102CA000D1E900CE23F47C5322F470521A432EF45F
:102CB000F0431A432CF4E0431A4324F4C0431A436C
:102CC0002A43C96922F480420368114359640021F0
:102CD00080F83C100020B0BD90F83C20012A4FF055
:102CE000020254D010B580F83D200268D2F804E00A
:102CF000D2F808C00C682EF07003234341F2FF7431
:102D0000C4F20004A24253600EDC40F2FF73C4F22E
:102D100000039A4216DCB2F1804F2BD040F2004300
:102D2000C4F2000324E000BF40F2FF33C4F2010309
:102D30009A4213DC41F60003C4F200039A4219D010
:102D4000002313E040F60003C4F200039A4211D0BE
:102D500040F60043C4F200030AE000BF44F200035F
:102D6000C4F201039A4205D040F20043C4F20103C9
:102D70009A4204D149682CF08003194391600121E3
:102D8000002280F83D1080F83C20BDE8104010463D
:102D900070470000C1B1042908D0082914BF45229A
:102DA0004422825C012A05D016E000BF4322825CE7
:102DB000012A11D10222082910D0042914BF80F859
:102DC000452080F843200BE090F84220012A03D1EF
:102DD000022280F8422003E00120704780F844205E
:102DE000006801F00F010422036A02FA01F123EAEC
:102DF00001020262026A11430162416C41F2FF72F8
:102E0000C4F2000241F40041904241640EDC40F201
:102E1000FF71C4F20001884216DCB0F1804F2BD064
:102E200040F20041C4F2000124E000BF40F2FF3153
:102E3000C4F20101884213DC41F60001C4F2000132
:102E4000884219D0002113E040F60001C4F20001CD
:102E5000884211D040F60041C4F200010AE000BFF0
:102E600044F20001C4F20101884205D040F2004161
:102E7000C4F20101884206D1816801F007010629E8
:102E800004BF00207047016841F00101016000208B
:102E900070470000002804BF0120704710B50446A9
:102EA00090F83D0028B9002084F83C00204600F04E
:102EB0001FF8022084F83D002068211D01F0E8FD84
:102EC000012084F8460084F83E0084F83F0084F82E
:102ED000400084F8410084F8420084F8430084F8FC
:102EE000440084F8450084F83D00002010BD000037
:102EF00010B584B0006840F20041C4F2010188427C
:102F000032D040F60041C4F20001884218D0B0F13E
:102F1000804F1CBF04B010BD0020039043F640005A
:102F2000C4F202000168002241F001010160006862
:102F3000022100F00100039003981C201C2426E0CD
:102F40000020029043F64000C4F202000168002213
:102F500041F0080101600068032100F008000290C0
:102F600002983220322412E00020019043F6400003
:102F7000C4F202004168002241F002014160406851
:102F8000012100F00200019001982C202C24FFF771
:102F900041FB204604B0BDE81040FFF729BB00000C
:102FA00090F83D1001291CBF01207047022180F8D4
:102FB0003D10006841F2FF72C168C4F20002904205
:102FC00041F00101C1600DDC40F2FF71C4F200016B
:102FD000884215DCB0F1804F2AD040F20041C4F2A3
:102FE000000123E040F2FF31C4F20101884213DC0A
:102FF00041F60001C4F20001884219D0002113E01B
:1030000040F60001C4F20001884211D040F60041B0
:10301000C4F200010AE000BF44F20001C4F2010161
:10302000884205D040F20041C4F20101884206D135
:10303000816801F00701062904BF0020704701687C
:1030400041F00101016000207047000090F83C2031
:10305000012A4FF002026CD080B580F83D20D0F8F4
:1030600000C04FF67772DCF8083023EA0202CCF891
:1030700008200B684F2B29DC1F2B45DD202B46D069
:10308000302B44D0402B40F0AF80D1F804E0C96829
:10309000DCF82030DCF8202022F00102CCF82020DF
:1030A000DCF8182022F0F00242EA011123F00A02B3
:1030B00042EA0E02CCF81810CCF82020DCF80810F8
:1030C00041F0470121F0300128E000BF6F2B33DDD4
:1030D000B3F5005F74D0B3F5805F21D0702B40F062
:1030E0008380D1E901E3C968DCF8082043EA0E03D4
:1030F00022F47F4243EA01211143CCF80810DCF8A6
:10310000081041F0770109E00BB1102B6CD1DCF80D
:10311000081021F07001194341F00701CCF80810A4
:103120000022012180F83D10002180F83C10BDE80C
:1031300080401046704700BF502B21D0602B53D1E8
:10314000D1F804E0C968DCF82030DCF8202022F057
:103150001002CCF82020DCF8182022F4704242EA59
:10316000013123F0A00242EA0E12CCF81810CCF87C
:103170002020DCF8081041F0670121F01001CDE7B4
:10318000D1F804E0C968DCF82030DCF8202022F017
:103190000102CCF82020DCF8182022F0F00242EAEC
:1031A000011123F00A0242EA0E02CCF81810CCF802
:1031B0002020DCF8081041F0570121F02001ADE794
:1031C000D1E901E3C968DCF8082043EA0E0322F4E0
:1031D0007F4243EA01211143CCF80810DCF80810C3
:1031E00041F480419AE700BF01229AE7704700004E
:1031F00070B504460068C5680669B10716D515F0B4
:10320000020113D06FF00201016101212177806971
:10321000800703D02046FFF7E9FF05E0204600F0D5
:1032200023F9204600F07AFA00202077700719D59C
:1032300015F0040016D020686FF00401016102212E
:103240002177806910F4407F04D02046FFF7CEFF3D
:1032500006E000BF204600F007F9204600F05EFAC5
:1032600000202077300717D515F0080014D020680B
:103270006FF00801016104212177C069800703D044
:103280002046FFF7B3FF05E0204600F0EDF82046AA
:1032900000F044FA00202077F00619D515F0100050
:1032A00016D020686FF01001016108212177C069F4
:1032B00010F4407F04D02046FFF798FF06E000BFDF
:1032C000204600F0D1F8204600F028FA00202077B0
:1032D000F00718BF15F0010002D1300609D412E042
:1032E00020686FF001010161204600F0A1FA30066C
:1032F00009D515F0800006D020686FF080010161CB
:103300002046FFF7BFFC700609D515F0400006D037
:1033100020686FF040010161204600F031FBB006EB
:1033200058BF70BD15F0200008D021686FF0200252
:1033300020460A61BDE87040FFF7A6BC70BD0000E2
:103340002DE9F04186B0006840F20041C4F201016D
:1033500000268842CDE90466CDE90266019637D0A1
:103360000021C4F2010188427BD1002543F63000E0
:103370000095C4F202000168002441F001010160DF
:103380000168C4F2020401F0010100910099009566
:103390000168022641F0100101600068012700F079
:1033A0001000009000988020019001A92046CDE9EE
:1033B000026504950597FEF735FE4FF47850CDE988
:1033C0000106CDE90355059704F5805046E000BF9E
:1033D00043F630000096C4F202000168002441F078
:1033E000010101600168C4F2020401F001010091D1
:1033F00000990096016801AD41F002010160016889
:103400004FF0020801F00201009100990096016856
:10341000032741F0040101600068294600F0040020
:1034200000900098202001902046CDE90286049665
:103430000597FEF7F7FD04F580602946CDE9017890
:10344000CDE903660597FEF7EDFD4FF4E070CDE999
:10345000010804F50060CDE90366059701A9FEF7B0
:10346000E1FD06B0BDE8F0817047000090F83C3007
:10347000012B04BF022070474FEAB202032A00F278
:10348000FF802DE9F043DFE802F003B13F7F00BF8A
:10349000036840F200461C6A1A6A24F0020422F013
:1034A00001021A621A46D3F804C052F818EF8F6866
:1034B00043F48065C4F20106B54244EA070405D12D
:1034C000CF6824F00C0427F004073C430F68B54292
:1034D00006D1D1E905582CF440762E4346EA080C73
:1034E0002EF073063743C3F804C09F614F68096923
:1034F0005F631C629F6947F008079F619F6927F01F
:1035000004079F61B1E000BF036840F200481C6AF5
:103510001A6A24F4007422F480721A621A46D3F8EC
:1035200004C052F81CEF8F6843F48065C4F20108B0
:10353000454544EA072408D1CF6840F2FF463F02E0
:1035400024F4406427EA06063443D1F80090454548
:1035500006D1D1E905562CF440572E4347EA061C04
:103560002EF0730747EA0907C3F804C0DF614F680C
:103570000969DF631C62DF6947F00807DF61DF6903
:1035800027F00407DF6170E0036840F20045D3F8DC
:1035900020C01A6A43F4806722F480521A621A46E5
:1035A0005C6852F81C8FD1F800E08E68C4F2010507
:1035B000AF4204D14D6924F4804444EA85142CF4CC
:1035C000005747EA063728F4E64646EA0E265C60CE
:1035D000DE614E6809691E641F62DF6947F4006797
:1035E000DF61DF6927F48067DF613DE0036840F257
:1035F00000481C6A1A6A24F0200422F010021A62A1
:103600001A46D3F804C052F818EF8F6843F4806567
:10361000C4F20108454544EA071407D1CF686FF0AA
:10362000400624F0C00406EA07163443D1F800909F
:10363000454506D1D1E905562CF440672E4347EAAB
:10364000860C2EF4E64747EA0927C3F804C09F61B9
:103650004F6809699F631C629F6947F400679F6117
:103660009F6927F480679F610902136819431160FD
:103670000021BDE8F043002280F83C200846704756
:103680000121002280F83C2008467047002804BF32
:103690000120704710B5044690F83D0028B900207D
:1036A00084F83C00204600F01FF8022084F83D001A
:1036B0002068211D01F0ECF9012084F8460084F80F
:1036C0003E0084F83F0084F8400084F8410084F80C
:1036D000420084F8430084F8440084F8450084F8EC
:1036E0003D00002010BD000000680021C4F201016F
:1036F000884218BF704781B00020009043F6440014
:10370000C4F20200016841F001010160006800F0AC
:1037100001000090009801B0704700007047000061
:10372000C1B1042908D0082914BF41224022825C7B
:10373000012A05D016E000BF3F22825C012A11D188
:103740000222082910D0042914BF80F8412080F8F3
:103750003F200BE090F83E20012A03D1022280F89E
:103760003E2003E00120704780F84020006801F00F
:103770001F010122036A02FA01F123EA0102026237
:10378000026A114341F2FF72C4F2000290420162E8
:103790000CDC40F2FF71C4F20001884214DCB0F18D
:1037A000804F37D040F2004116E000BF40F2FF31B9
:1037B000C4F20101884215DC41F60001C4F20001A7
:1037C000884227D0002115E040F60001C4F2000134
:1037D00088421FD040F60041C4F20001884219D04F
:1037E0001FE000BF44F20001C4F20101884211D081
:1037F00040F20041C4F20101884212D1416C40F212
:10380000004340F48062C4F2010341F400419A4253
:10381000416406D1816801F00701062904BF002038
:103820007047016841F0010101600020704700000D
:10383000F0B581B00746006840F60041C4F20001CF
:10384000884205D0B0F1804F00F0808001B0F0BD1B
:1038500043F2F050C2F2000000F55F6090ED000A04
:103860009FED421A30EE000A42F2106520EE010A86
:10387000C2F200059FED3E1A95ED022A20EE010AE4
:103880009FED3D1A30EE020AB4EE410AF1EE10FA55
:1038900085ED020A02DD9FED371A04E0B5EE400A1D
:1038A000F1EE10FA03DA30EE010A85ED020A9FED1F
:1038B000321A80EE010A9FED311A20EE010A03F060
:1038C00051FBBDEEC00A10EE100A49F6045C00F58B
:1038D000C871C0F2360CA1FB0C3200F5487325F814
:1038E0000C0FA3FB0C4668804FF4966002FB10118E
:1038F00006FB103043F2F052A980E88005F1600128
:10390000C2F20002284601F0D1FF43F23C51C2F25C
:103910000001B5F8600009684863B5F86200886383
:10392000B5F86400C86343F26441C2F20001B5F81F
:10393000660009684863B5F868008863B5F86A00EE
:10394000C8633868B0F1804F7FF480AF42F21060F6
:10395000C2F2000001214170817800297FF476AF26
:1039600081880131818001B0F0BD00BFDA0F49408C
:1039700017B7D138DA0FC9C0DA0FC9400000964432
:1039800070470000002804BF0120704710B50446AE
:1039900090F8410028B9002084F84000204600F04B
:1039A00021F8242084F841002068C16821F40051E6
:1039B000C160204601F00AF92068016921F49041B4
:1039C0000161416921F02A014161C16841F400515E
:1039D000C16000202021606484F8411084F8421006
:1039E000606310BD80B586B041F200010068C4F28A
:1039F0000101002288420592CDE903220292019240
:103A000002D006B080BD00BF43F630000092C4F281
:103A10000200436943F010034361436903F010035C
:103A20000093009B0092036843F001030360006869
:103A300000F00100009000984FF4C0600190022057
:103A4000CDE90202032004900720059001F57040A3
:103A500001A9FEF7E7FA06B080BD0000FEE700000E
:103A60002DE9F04383B0044600680F4601680A9DC3
:103A70000B9E41F4807199469046016020464FF0BC
:103A8000011100222B46009600F0ACF850B12068DE
:103A90000068C00544BF4FF400702064032003B0E9
:103AA000BDE8F083206807F0FE0101610221C0F249
:103AB000010120462A46334600F07AF920B1012060
:103AC00003B0BDE8F08300BF0020029020683246BA
:103AD000416902918069294602900298204600F0CF
:103AE000D3F958B1206C0428E9D12068016841F469
:103AF00000710160012003B0BDE8F0832068B9F1D6
:103B0000010F0AD04FEA18210161204629463246AA
:103B100000F0BAF90028E5D120685FFA88F1016168
:103B2000002003B0BDE8F08370B50368044653F885
:103B3000140F400711D40E46481C29D086BB00BF85
:103B40001868400527D4FEF749FB236853F8140F83
:103B5000400737D518684007F2D5002070BD00BF78
:103B600018684007F9D41868400514D4186840074D
:103B7000F3D4186840050ED418684007EDD41868CF
:103B8000400508D4186840074FF0000048BF70BDDA
:103B900018684005E4D56FF480601860042012E0D6
:103BA000154603E053F8140F4007D6D418684005B3
:103BB000F1D4FEF713FB401B2368B042F2D95869D9
:103BC0004007EFD4202000212022216384F83D20EB
:103BD00084F83E10226C10432064012084F83C10CD
:103BE00070BD00002DE9F041054600681E461446F0
:103BF00001F47F0201338FB242D0DDF81880B2F5B4
:103C0000803F40F0878040693840C01BB0FA80F0A8
:103C10004009A04240F0C8804EB924E040693840D5
:103C2000C01BB0FA80F04009A04240F0BD80FEF712
:103C3000D5FAA0EB08012868B142EFD941693940B3
:103C4000C91BB1FA81F14909A142E7D19BE000BF4C
:103C500040693840C01BB0FA80F04009A0424FF0E4
:103C6000000040F0A280FEF7B9FA286841693940A7
:103C7000C91BB1FA81F14909A142E9D183E000BF32
:103C8000B2F5803F24D100BF41693940C91BB1FA68
:103C900081F14909A14240F0878041693940C91B3F
:103CA000B1FA81F14909A14240F07E804169394071
:103CB000C91BB1FA81F14909A14275D14169394065
:103CC000C91BB1FA81F14909A142DDD06CE000BF06
:103CD00081693940C91BB1FA81F14909A14263D117
:103CE00081693940C91BB1FA81F14909A1425BD10F
:103CF00081693940C91BB1FA81F14909A14253D107
:103D000081693940C91BB1FA81F14909A142DFD06B
:103D10004AE000BF80693840C01BB0FA80F040091B
:103D2000A04241D146B923E080693840C01BB0FAB7
:103D300080F04009A04237D1FEF750FAA0EB08010D
:103D40002868B142F0D981693940C91BB1FA81F1C3
:103D50004909A142E8D116E080693840C01BB0FA99
:103D600080F04009A0424FF0000018BFBDE8F0818C
:103D7000FEF734FA286881693940C91BB1FA81F12C
:103D80004909A142E8D100202021286385F83D108F
:103D900085F83E00296C41F02001296485F83C003B
:103DA0000120BDE8F08100BF0020BDE8F0810000E7
:103DB000F0B581B0044600681D4643698FB203EA3E
:103DC0000701B94202D1002001B0F0BD4169164699
:103DD00001323CD0490512D47EB300BFFEF7FEF994
:103DE000411B2068B14203D941693940B9422BD106
:103DF00041693940B942E6D041694905EED50168CB
:103E000041F4007101606FF4806141610420002180
:103E10002022216384F83D2084F83E10226C104358
:103E2000206484F83C10012001B0F0BD41693940A4
:103E3000B942C8D041694905E1D4FEF7CFF92068FD
:103E400041693940B942F1D02020E0E74169490594
:103E5000D5D441693940B942B5D041694905CED47C
:103E600041693940B942AED041694905C7D4416979
:103E70003940B942A7D041694905C0D441693940A8
:103E8000B942E3D19FE7000070B50368044653F8D8
:103E9000140F000611D40E46481C29D086BB00BF63
:103EA0001868400527D4FEF799F9236853F8140FD2
:103EB000000637D518680006F2D5002070BD00BF97
:103EC00018680006F9D41868400514D4186800066C
:103ED000F3D4186840050ED418680006EDD41868AD
:103EE000400508D4186800064FF0000048BF70BDB8
:103EF00018684005E4D56FF480601860042012E073
:103F0000154603E053F8140F0006D6D41868400590
:103F1000F1D4FEF763F9401B2368B042F2D9586927
:103F20000006EFD4202000212022216384F83D20C8
:103F300084F83E10226C10432064012084F83C1069
:103F400070BD0000B0B584B043F26830C2F200002A
:103F500042F2000C4FF080534FF060610024C4F235
:103F6000010C4FF480320125C0E90A1302210394A9
:103F7000047680F82040C16180F83040C0E900C27A
:103F8000C0E90244C0E90455FDF724FB002818BF2E
:103F9000FDF7E8F943F26830C2F200006946CDE966
:103FA00000450294FDF760FA002818BFFDF7DAF922
:103FB000012000900220019043F26830C2F200001C
:103FC0006946FDF751FA002818BFFDF7CBF904B098
:103FD000B0BD000080B582B00020019043F63000F3
:103FE000C4F202000168002241F48001016000680F
:103FF000002100F48000019001983820FEF70AFBB0
:10400000382002B0BDE88040FEF7F2BA2DE9F04159
:1040100086B0002643F630000596CDE90366CDE96B
:1040200001660096C4F20200016840F2004441F0CB
:10403000100101600168C4F2020401F01001009156
:10404000009900960168002241F08001016001683A
:104050004FF0040801F0800100910099009601687A
:1040600041F001010160016801F001010091009936
:104070000096016841F002010160016801F002014F
:10408000009100990096016841F004010160006808
:10409000042100F00400009000982046FEF798F8F4
:1040A0000F2001ADCDE90106012704F54060294646
:1040B0000397FDF7B7FF20462946CDE90187CDE9F3
:1040C0000366FDF7AFFF06B0BDE8F08180B543F2AF
:1040D000104045F20041C2F20000C4F2000148F273
:1040E000A06200234FF4804CC0F2010280E80E0071
:1040F000C0E9033CC0E90533C0E90733FEF774F8B3
:10410000002808BF80BDBDE88040FDF72BB9000046
:1041100080B592B043F2644000220021C2F2000058
:10412000C4F2010201231191CDE90F11CDE90D1166
:10413000CDE90B11CDE90911CDE90711CDE9051143
:10414000CDE90311CDE901114FF0200C40F6330EFB
:1041500080E80C50C0E904138161FFF797FA00284A
:1041600018BFFDF7FFF843F26440C2F2000010A947
:10417000FEF7B2FD002818BFFDF7F4F860200990A3
:104180004FF4FA700A9000204FF48071CDE90B00D3
:104190000D90CDE90E1043F26440C2F2000009A96F
:1041A0000022FFF763F9002818BFFDF7DBF843F2A0
:1041B0006440C2F2000009A90422FFF757F9002861
:1041C00018BFFDF7CFF843F26440C2F2000009A91E
:1041D0000822FFF74BF9002818BFFDF7C3F80020AD
:1041E000A821CDE901000390CDE904104FF400505F
:1041F00006904FF48040089043F26440C2F2000001
:1042000001A9FEF743FD002818BFFDF7ABF843F204
:104210006440C2F20000FFF793F812B080BD0000C6
:1042200080B586B043F2AC400021C2F200004FF0EE
:10423000804242F2D0034FF4FA6C0591CDE90311AC
:10424000CDE90011C0E90023C0E9021C01618161D0
:10425000FEF720FE002818BFFDF784F84FF48050C9
:10426000029043F2AC40C2F2000002A9FEF7EEFE5B
:10427000002818BFFDF776F843F2AC40C2F2000008
:104280006946FEF729FD002818BFFDF76BF806B058
:1042900080BD000080B586B043F2F44040F6004295
:1042A0000021C2F20000C4F2000237234FF0630C79
:1042B0000591CDE90311CDE90011C0E90023C0E962
:1042C000021C01618161FEF7E5FD002818BFFDF7C2
:1042D00049F84FF48050029043F2F440C2F20000DB
:1042E00002A9FEF7B3FE002818BFFDF73BF843F222
:1042F000F440C2F200006946FEF7EEFC002818BF49
:10430000FDF730F806B080BD10B596B043F23C50D2
:1043100040F200420021C2F20000C4F20102012377
:104320001591CDE913111191CDE90F11CDE90D11C1
:10433000CDE90B11CDE90911CDE90711CDE9051141
:10434000CDE90311CDE90111202440F6330C80E8BA
:104350001C10C0E904138161FEF79CFD002818BF02
:10436000FDF700F84FF48050129043F23C50C2F237
:10437000000012A9FEF76AFE002818BFFCF7F2FF42
:1043800043F23C50C2F20000FFF780F9002818BF4A
:10439000FCF7E8FF2020109043F23C500024C2F2CA
:1043A000000010A91194FEF797FC002818BFFCF735
:1043B000D9FF602009904FF4FA70CDE90A0443F266
:1043C0003C50C2F2000009A90022CDE90C44CDE91D
:1043D0000E44FFF74BF8002818BFFCF7C3FF43F269
:1043E0003C50C2F2000009A90422FFF73FF8002860
:1043F00018BFFCF7B7FF43F23C50C2F2000009A916
:104400000822FFF733F8002818BFFCF7ABFF0020A5
:10441000A821CDE901000390CDE904104FF400502C
:1044200006904FF48040089043F23C50C2F20000E6
:1044300001A9FEF72BFC002818BFFCF793FF43F2FD
:104440003C50C2F20000FEF77BFF16B010BD00002A
:1044500080B543F2845041F20001C2F20000C4F280
:10446000010100234FF00C0C4FF4E13280E80E0004
:10447000C0E90333C0E905C3C361FFF783FA00282D
:1044800008BF80BDBDE88040FCF76CBFFEE70000C0
:10449000FEE700002DE9F04F85B043F210440025FF
:1044A0004FF480760127C2F200040DF1120B0DF1DA
:1044B00013084FF0000900BF49F0B0008DF810005C
:1044C00004A8CDE9000720467821002201230296A6
:1044D000FDF73CFF0DF11100CDE9000720467821E2
:1044E000002201238DF811500296FDF72FFF1020B6
:1044F0008DF812002046782100220123CDE900B773
:104500000296FDF723FF4FF0000A00BF20467821F6
:10451000402201238DF81350CDE900870296FDF764
:1045200015FF0AF101004FFA80FABAF1FF3FEDDC06
:10453000B9F1070F09F10109BED305B0BDE8F08F4D
:1045400070B584B08D2043F210448DF80D00012623
:104550000DF10D00C2F200044FF48075CDE90006A4
:1045600020467821002201230295FDF7EFFE14205A
:104570008DF80E000DF10E00CDE9000620467821E1
:10458000002201230295FDF7E1FEAF208DF80F0018
:104590000DF10F00CDE9000620467821002201230D
:1045A0000295FDF7D3FE04B070BD000080B5C820B1
:1045B000FDF7CEFBBDE8804000F07EBB2DE9F04F5B
:1045C00089B047B2C0F3C010203A01EB400427EA9B
:1045D000E7711027A4F1500047EA111601F00F050A
:1045E000102BD7B240F0308143F2104B8DF81800F9
:1045F0004FF0010806A8C2F2000B4FF4807CCDE911
:1046000000085846782100220123CDF808C00594FF
:10461000FDF79CFE0DF11900CDE900085846782100
:10462000002201234FF480748DF819600294FDF785
:104630008DFE0DF11A00CDE90008584678210022C0
:1046400001238DF81A5002944FF48074FDF77EFE1A
:1046500047F6B0013801C0F60001085C01EB07170E
:104660008DF81B0004950DF11B055846782140225A
:104670000123CDE900580294FDF768FE787897F899
:10468000029097F803A003963E798DF81B005846D8
:10469000782140220123CDE900580294FDF756FE0F
:1046A00058467821402201238DF81B90CDE900580F
:1046B0000294FDF74BFE58467821402201238DF8E5
:1046C0001BA0CDE900580294FDF740FE5846782122
:1046D000402201238DF81B60CDE900580294FDF7BC
:1046E00035FE787978218DF81B0058464022012349
:1046F000CDE900580294FDF729FEB87978218DF8AC
:104700001B00584640220123CDE900580294FDF7D2
:104710001DFEF87978218DF81B00584640220123B0
:10472000CDE900580294FDF711FE059878214F3825
:104730008DF81C0007A8CDE9000858460022012387
:104740000294FDF703FE039878218DF81D000DF10A
:104750001D00CDE900085846002201230294FDF710
:10476000F5FD049878218DF81E000DF11E00CDE9AD
:1047700000085846002201230294FDF7E7FD387A2D
:104780000DF11F058DF81F005846782140220123A6
:10479000CDE900580294FDF7D9FD787A78218DF89B
:1047A0001F00584640220123CDE900580294FDF72E
:1047B000CDFDB87A78218DF81F005846402201239C
:1047C000CDE900580294FDF7C1FDF87A78218DF803
:1047D0001F00584640220123CDE900580294FDF7FE
:1047E000B5FD387B78218DF81F0058464022012303
:1047F000CDE900580294FDF7A9FD787B78218DF86A
:104800001F00584640220123CDE900580294FDF7CD
:104810009DFDB87B78218DF81F005846402201236A
:10482000CDE900580294FDF791FDF87BCDE90058E1
:104830008DF81F0058467821402201230294FDF78D
:1048400085FD09B0BDE8F08F43F2104B8DF82000D4
:104850004FF0010908A8C2F2000B4FF4807ACDE9AD
:1048600000095846782100220123CDF808A0FDF761
:104870006DFD0DF12100CDE9000958467821002297
:1048800001238DF82160CDF808A0FDF75FFD0DF143
:104890002200CDE9000958467821002201238DF835
:1048A0002250CDF808A0FDF751FD47F2886107EBD3
:1048B0004700C0F6000111F8102001EB40078DF809
:1048C00023200DF123055846782140220123CDE90C
:1048D0000059CDF808A0FDF739FD7878BE78FC784E
:1048E00097F804808DF82300584678214022012350
:1048F000CDE90059CDF808A0FDF728FD58467821EC
:10490000402201238DF82360CDE90059CDF808A09D
:10491000FDF71CFD58467821402201238DF82340E5
:10492000CDE90059CDF808A0FDF710FD58467821D3
:10493000402201238DF82380CDE90059CDF808A04D
:10494000FDF704FD787978218DF823005846402240
:104950000123CDE90059CDF808A0FDF7F7FC09B017
:10496000BDE8F08F2DE9F04115461278002A08BF06
:10497000BDE8F08198460E4607460024F8B2F1B231
:10498000D2B24346FFF71AFE0837F8B2013478284E
:10499000E0B288BF02362A5C88BF0027002AEDD12A
:1049A000BDE8F0817047000070470000FDF7B6BD1C
:1049B00070B592B006AC20463021FBF74CFE0025C6
:1049C00043F640000595CDE90355CDE90155009525
:1049D000C4F202000168022641F0805101600068C3
:1049E00000F080500090009847F200000095C4F25B
:1049F0000000016841F4804101600068A82100F4D2
:104A0000804000900098012006904FF4803007907D
:104A10004FF480000D9004200E90119020460C96CB
:104A2000CDE90F16FDF742FF10B172B6FEE700BFE9
:104A30000F20CDE901064FF4A05004904FF48050B0
:104A4000059001A805210395FDF720FE10B172B66F
:104A5000FEE700BF12B070BD4EF68850CEF20000E7
:104A6000016841F4700101607047000043F2AC40FE
:104A7000C2F20000FEF7BCBB43F2F440C2F20000F9
:104A8000FEF7B6BB43F23C50C2F20000FEF7B0BBEB
:104A9000B0B540F6FF3E0568C4F2000E40F2004C8F
:104AA0007045C4F2010C25DCB0F1804F2FD040F2EC
:104AB0000043C4F20003984229D040F60003C4F238
:104AC0000003984223D041F6FF73C4F200039842DA
:104AD00028DC70453ADCB0F1804F5BD040F20043F7
:104AE000C4F20003984255D040F60003C4F200031C
:104AF0004EE000BF40F60043C4F20003984206D0E7
:104B0000604504D00023C4F201039842DBD14B6816
:104B100025F0700243EA020541F6FF73C4F2000378
:104B20009842D6DD43F6FF73C4F2010398421FDCBE
:104B300042F20003C4F2000398422BD00023C4F2D7
:104B40000103984226D0604524D028E040F6004377
:104B5000C4F2000398421DD041F60003C4F20003E2
:104B6000984217D041F60043C4F2000310E000BFA2
:104B700044F20003C4F2010398420BD044F6000350
:104B8000C4F20103984205D044F20043C4F2010389
:104B9000984204D1CB6825F4407243EA02050A68C2
:104BA0008C684B69C46240F480648262644504BFCF
:104BB00009690163026825F0800142F0040219438B
:104BC0000260012242610160B0BD0000B0B5044640
:104BD000006804F108030ECB0569194325F440551C
:104BE0002A4302616269E3691143C268194349F2C9
:104BF0000C639A431143C1604169A26921F4407179
:104C000041F20043114340F48062C4F201039A422E
:104C1000416103D1FDF700FE02E000BFFDF7E8FDB2
:104C2000E1694FF69C7563681922C0F6FF75B1F50E
:104C3000004FA0FB02011FD15A00DB0FFBF75AFB0C
:104C400048F21F51C5F2EB11A0FB01235A0905F1EF
:104C5000805302FB0300322303EBC000A0FB0101E1
:104C60004FF4F87000EA111000EB0210C1F342118A
:104C7000084421688860B0BD9A009B0FFBF73AFB9F
:104C800048F21F51C5F2EB11A0FB01235A0902FBA8
:104C90000500322303EB0010A0FB0101F02000EA25
:104CA000511000EB0210C1F34311084421688860E1
:104CB000B0BD0000FEE70000F0B583B043F2104441
:104CC00040F20807C2F200044FF480750126C2F2D8
:104CD00000072046782100220123CDE900760295C5
:104CE000FDF734FB781CCDE9000620467821002230
:104CF00001230295FDF72AFBB81CCDE900062046EA
:104D00007821002201230295FDF720FBF81CCDE954
:104D1000000620467821002201230295FDF716FBAC
:104D2000381DCDE900062046782100220123029596
:104D3000FDF70CFB781DCDE9000620467821002206
:104D400001230295FDF702FBB81DCDE900062046C0
:104D50007821002201230295FDF7F8FAF81DCDE92C
:104D6000000620467821002201230295FDF7EEFA85
:104D700007F10800CDE90006204678210022012332
:104D80000295FDF7E3FA07F10900CDE90006204698
:104D90007821002201230295FDF7D8FA07F10A00D5
:104DA000CDE9000620467821002201230295FDF777
:104DB000CDFA07F10B00CDE900062046782100224C
:104DC00001230295FDF7C2FA07F10C00CDE90006B8
:104DD00020467821002201230295FDF7B7FA07F15A
:104DE0000D00CDE90006204678210022012302951E
:104DF000FDF7ACFA07F10E00CDE900062046782158
:104E0000002201230295FDF7A1FA07F10F00CDE979
:104E1000000620467821002201230295FDF796FA2C
:104E200007F11000CDE90006204678210022012379
:104E30000295FDF78BFA07F11100CDE90006204637
:104E40007821002201230295FDF780FA07F1120074
:104E5000CDE9000620467821002201230295FDF7C6
:104E600075FA07F11300CDE90006204678210022EB
:104E700001230295FDF76AFA07F11400CDE9000657
:104E800020467821002201230295FDF75FFA07F101
:104E90001500CDE900062046782100220123029565
:104EA000FDF754FA07F11600CDE9000620467821F7
:104EB000002201230295FDF749FA07F11700CDE919
:104EC000000620467821002201230295FDF73EFAD4
:104ED00007F11800CDE900062046782100220123C1
:104EE0000295FDF733FA07F11900CDE900062046D7
:104EF0007821002201230295FDF728FA07F11A0014
:104F0000CDE9000620467821002201230295FDF715
:104F10001DFA03B0F0BD00002DE9F04F8BB08046C4
:104F20000020B8F1006F0590C0F084801446002A7C
:104F300000F080804FF6FF7004EB0807C0F60D000C
:104F4000874277D80D46FDF755F847456CD944F2AE
:104F5000000AC0F6000A0AF5004004900AF5404035
:104F600003900AF5E03002900AF570300DF1140953
:104F70000AF5804B01900AF5B8204646009011E0F2
:104F8000012008900120099002200A9006A84946B5
:104F9000FCF7F2FE002851D14CF25030FCF7E6F954
:104FA000BE424BD2306801300AD0002056450690F0
:104FB000E7D35E45E4D30498864209D20220E0E7B5
:104FC00001364CF25030FCF7D1F9BE42EAD335E05D
:104FD0000398864202D20320D3E700BF029886429C
:104FE00002D20420CDE700BF0198864202D20520FC
:104FF000C7E700BF0098864202D20620C1E700BF83
:105000000AF5F820864201D20720BAE70AF51C20EB
:10501000864201D20820B4E70AF53C2086424FF0D0
:105020000A0038BF0920ACE74CF25030FCF79EF97B
:10503000FCF768FF0BB0BDE8F08F00BF4CF25030BA
:10504000FCF794F90028F3D14745F1D92A780020DC
:1050500041460023FCF760FF0028E9D108F1010870
:10506000013C05F10105F1D1E2E70000000000007C
:105070002DE9F04142F28864C2F200042046FBF7B9
:10508000FDFE074604F11800FBF7F8FE064604F1A2
:105090003000FBF7F3FE054604F14800FBF7EEFE97
:1050A00042F210648046012FC2F2000430D1A07990
:1050B00002282DD0012803D10020A07107E000BFF5
:1050C000411C0028A17100F0B780FF2820D1FFF714
:1050D000E1F947F6A867C0F60007002000213A462C
:1050E0001023FFF73FFC07F11002002002211023DC
:1050F000FFF738FC07F11802002004211023FFF706
:1051000031FC07F12002002006211023FFF72AFCC2
:10511000012E39D1A079022808D0012834D10221EA
:10512000204600F8061F00F083FB2DE001212046F9
:1051300000F8061F00F0ACFA43F2F0570026C2F266
:105140000007C0F6060607F6F45130460422FFF7C2
:10515000E3FE301D07F55D610422FFF7DDFE06F179
:10516000080007F55E610422FFF7D6FE06F10C0089
:1051700007F6E4510422FFF7CFFE06F1100007F511
:105180005F610422FFF7C8FE012D0FD1A07902282C
:1051900026D0012840F07081E179A01D8A1F18BF38
:1051A0004A1CE27100F074FA66E100BF022D40F083
:1051B0006381A079022840F05F81E079062800F23F
:1051C0005581DFE800F00595858D7DA1AD0000BF1C
:1051D00043F2F050C2F2000000F55E608EE000BFC6
:1051E000E079062800F24281DFE810F00800F600BE
:1051F000BE00D600A6001401320100BF43F2F055F4
:10520000C2F20005D5F8E00D02F032F99FEDD60BA1
:1052100053EC102B01F042FF01F00EFF00EE100ADC
:10522000B5EE400AF1EE10FAC5F8E00DBCBF002063
:10523000C5F8E00D1AE100BFFFF72CF947F6A867A3
:10524000C0F6000707F14002002000210C23FFF701
:1052500089FB07F14802002001210C23FFF782FBA4
:1052600007F15002002002210C23FFF77BFB07F11E
:105270005802002003210C23FFF774FB07F16002A2
:10528000002004210C23FFF76DFB07F12002002012
:1052900005210C23FFF766FB07F1300200200621F1
:1052A0000C23FFF75FFB43F2F050C2F2000000F066
:1052B0002DFAA01D00F0ECF9012E3FF42BAF63E7AF
:1052C00043F2F050C2F2000000F55F60C6E000BF9C
:1052D00043F2F050C2F2000000F55D60BEE000BF96
:1052E00043F2F050C2F2000000F6F45006E000BFB6
:1052F00043F2F050C2F2000000F6E45090ED000AD4
:105300009FEDE11AAEE000BF43F2F055C2F2000596
:10531000D5F8D80D02F0ACF89FEDD30B84E000BFB8
:1053200043F2F050C2F2000000F6DC5090ED000AAB
:10533000B9EE041A96E000BF43F2F050C2F200004A
:1053400000F55F6191ED000ABFEE001A30EE010A30
:10535000B5EE400AF1EE10FA81ED000ABCBF002163
:10536000C0F8F01D82E000BF43F2F050C2F200002E
:1053700000F55D6191ED000ABFEE001A30EE010A02
:10538000B5EE400AF1EE10FA81ED000ABCBF002133
:10539000C0F8D01D6AE000BF43F2F055C2F200052C
:1053A000D5F8F40D02F064F89FEDB10B53EC102B1F
:1053B00001F074FE01F040FE05F55D6191ED000A1B
:1053C000C5F8F40DB5EE400AF1EE10FABCBF0020AE
:1053D000C5F8F40D4AE000BF43F2F055C2F20005F3
:1053E000D5F8E40D02F044F89FEDA10B53EC102B1F
:1053F00001F054FE01F020FE00EE100AB5EE400A66
:10540000F1EE10FAC5F8E40DBCBF0020C5F8E40DBC
:105410002CE000BF43F2F055C2F20005D5F8D80DDC
:1054200002F026F89FED920B53EC102B01F036FEA4
:1054300001F002FE00EE100AB5EE400AF1EE10FA9D
:10544000C5F8D80DBCBF0020C5F8D80D0EE000BFD0
:1054500043F2F050C2F2000000F6DC5090ED000A7A
:10546000BFEE001A30EE010A80ED000A43F2F05060
:10547000C2F2000000F04AF9B8F1010F10D1A07992
:10548000022829D0012825D1E179A01D4A1E002932
:1054900008BF0622E271BDE8F04100F0F9B800BF94
:1054A000B8F1020F16D1A079022818BFBDE8F0812B
:1054B000E07906282CD8DFE800F0054B3B43335B4E
:1054C000670000BF43F2F050C2F2000000F55E60DA
:1054D00044E000BFBDE8F081E079062818D8DFE895
:1054E00000F00579275F1F93AD0000BF43F2F05431
:1054F000C2F20004D4F8E00D01F0BAFF9FED600B9A
:1055000053EC102B01F0CAFD01F096FDC4F8E00D3C
:1055100043F2F050C2F20000BDE8F04100F0F6B8EE
:1055200043F2F050C2F2000000F55F608CE000BF73
:1055300043F2F050C2F2000000F55D6084E000BF6D
:1055400043F2F050C2F2000000F6F45006E000BF53
:1055500043F2F050C2F2000000F6E45090ED000A71
:105560009FED4A1A74E000BF7B14AE47E17A84BF16
:1055700043F2F054C2F20004D4F8D80D01F078FFE1
:105580009FED3D0B4AE000BF43F2F050C2F2000035
:1055900000F6DC5090ED000AB1EE041A58E000BFAE
:1055A00043F2F054C2F20004D4F8F40D01F060FFAD
:1055B0009FED330B53EC102B01F070FD01F03CFD1F
:1055C000C4F8F40D43F2F050C2F20000BDE8F0411F
:1055D00000F09CB843F2F054C2F20004D4F8E40D99
:1055E00001F046FF9FED260B53EC102B01F056FD0A
:1055F00001F022FDC4F8E40D43F2F050C2F20000C5
:10560000BDE8F04100F082B843F2F054C2F2000469
:10561000D4F8D80D01F02CFF9FED190B53EC102B93
:1056200001F03CFD01F008FDC4F8D80D43F2F05044
:10563000C2F20000BDE8F04100F068B843F2F0505B
:10564000C2F2000000F6DC5090ED000AB7EE001A3E
:1056500030EE010A80ED000A43F2F050C2F2000081
:10566000BDE8F04100F052B89A9999999999B9BF5B
:105670007B14AE47E17A84BF9A9999999999B93F79
:105680007B14AE47E17A843FCDCCCCBDCDCCCC3DB4
:10569000B0B547F61075C0F6000504466420002139
:1056A0002A460C23FFF75EF9642001212A460C23C9
:1056B000FFF758F9642002212A460C23FFF752F91C
:1056C000642003212A460C23FFF74CF964200421AF
:1056D0002A460C23FFF746F9642005212A460C23AD
:1056E000FFF740F9642006212A460C23FFF73AF918
:1056F0006178062988BFB0BD40F22802C2F20002DC
:1057000064200C23BDE8B040FFF72CB92DE9F04F21
:1057100081B00646D0F8E00D01F0AAFE42F2106812
:1057200047F61477C2F20008C0F6000702460B469F
:1057300008F1340039460090FAF754FED6F8E40D2B
:1057400001F096FE08F13C0902460B4648463946F0
:10575000FAF748FED6F8D00D01F08AFE08F1440AA7
:1057600002460B4650463946FAF73CFED6F8F40D91
:1057700001F07EFE08F14C0B02460B462AA158466A
:10578000FAF730FED6F8F00D01F072FE08F154047D
:1057900002460B4620463946FAF724FED6F8D80DC5
:1057A00001F066FE08F15C0502460B4628463946C4
:1057B000FAF718FED6F8DC0D01F05AFE08F164067F
:1057C00002460B4630463946FAF70CFE009A322064
:1057D00000210C23FFF7C6F8322001214A460C2392
:1057E000FFF7C0F83220022152460C23FFF7BAF827
:1057F000322003215A460C23FFF7B4F8322004214B
:1058000022460C23FFF7AEF8322005212A460C234E
:10581000FFF7A8F83220062132460C2301B0BDE87C
:10582000F04FFFF79FB800BF25352E32660000000D
:10583000B0B547F61075C0F6000504466420002197
:105840002A460C23FFF78EF8642001212A460C23F8
:10585000FFF788F8642002212A460C23FFF782F81C
:10586000642003212A460C23FFF77CF864200421DE
:105870002A460C23FFF776F8642005212A460C23DC
:10588000FFF770F8642006212A460C23FFF76AF818
:105890006178062988BFB0BD40F22C02C2F2000236
:1058A00064200C23BDE8B040FFF75CB82DE9F0435D
:1058B00002F6D45999ED020A46888388C78842F2D5
:1058C000106040F2300EC2F20000C2F2000EBDEED7
:1058D000C00A90F802800EEB860010EE105A90ED90
:1058E000000AAC19B8EEC00AB1EE081A224680EEE2
:1058F000010A41F2F02C48BF02F59662C2F2000C98
:10590000B4F5966FC8BFA4F596620CEB860494EDCF
:10591000003A0EEB830494ED004A99ED002AB8EEAC
:10592000C44A84EE014AB8EEC33A30EE033A9FED22
:10593000780A22EE033A33EE003A5819BDEEC33A24
:105940000CEB830313EE104A93ED003A034648BF75
:1059500003F59663B0F5966FC8BFA0F59663B8EEF1
:10596000C33A0EEB870034EE033A90ED004AED198E
:10597000B8EEC44A84EE014A284622EE033A48BFF4
:1059800000F5966033EE003AB5F5966FC8BFA5F501
:105990009660BDEEC33A0CEB87050C8013EE104AFF
:1059A00095ED003A4C80B8EEC33A34EE033A22EE5D
:1059B000033A33EE003ABDEEC33A13EE104AB8F1A3
:1059C000000F8C800EEB820456D094ED002A0CEB75
:1059D0008202B8EEC22A82EE012A92ED004A0EEB54
:1059E000830292ED005A99ED013AB8EEC55A85EE60
:1059F000015AB8EEC44A0EEB80020CEB83030CEBA9
:105A000080000F4632EE042A23EE022A32EE002AEC
:105A100092ED004ABDEEC22A12EE102AB8EEC42A58
:105A200082EE011A93ED002ACA80B8EEC22A35EE42
:105A3000022A23EE022A32EE002ABDEEC22A12EE1C
:105A4000102A90ED002A40F20040B8EEC22A0A81E6
:105A5000C4F2020031EE021A23EE011A31EE000AFE
:105A6000BDEEC00A10EE103A042100227B81BDE891
:105A7000F043FCF7ADBB00BF94ED003A0CEB8202A3
:105A8000B8EEC33A83EE013A92ED004A0EEB830280
:105A900092ED005AB8EEC44AB8EEC55A85EE015AE6
:105AA0000EEB80020CEB83030CEB800033EE043A28
:105AB00022EE033A33EE003A92ED004ABDEEC33ACD
:105AC00013EE102AB8EEC43A83EE011A93ED003AB1
:105AD000CA80B8EEC33A35EE033A22EE033A33EE0B
