:020000040800F2
:10000000102400209D0200088529000825260008EC
:1000100081290008210500088D2C0008000000003F
:100020000000000000000000000000008D29000812
:100030003105000800000000892900089129000806
:10004000B7020008B7020008B7020008B7020008AC
:10005000B7020008B7020008B7020008B70200089C
:10006000B7020008B7020008B7020008B70200088C
:10007000B7020008B7020008B7020008B70200087C
:10008000B7020008B7020008B7020008B70200086C
:10009000B7020008B7020008B7020008B70200085C
:1000A000B7020008B7020008B7020008B70200084C
:1000B000B7020008B7020008B7020008B70200083C
:1000C000B7020008B7020008B7020008B70200082C
:1000D000B7020008B7020008B7020008B70200081C
:1000E000B7020008B7020008B7020008B70200080C
:1000F0005D2A0008B7020008B7020008B70200082E
:10010000B7020008B7020008512A0008B702000829
:10011000B7020008B7020008B7020008B7020008DB
:1001200025050008B7020008B7020008B70200085A
:10013000B7020008B7020008B7020008B7020008BB
:10014000B7020008B7020008B7020008B7020008AB
:10015000B7020008B7020008B7020008B70200089B
:10016000B7020008B7020008B7020008B70200088B
:10017000B7020008B7020008B7020008000000003C
:10018000B7020008B702000800F002F800F076F8A5
:1001900014A696E8000CB244B344DA4501D100F04D
:1001A0006DF8BAE80F000FA696E83000A5EB04053D
:1001B00004EB0607AAEB0704A7F101074FEA1515A0
:1001C0004FEA3414A4F10104AC4201D300F056F814
:1001D00013F0010F18BFFB1A43F0010300F001F800
:1001E000DBE71847EC3100000C3200000A4410F83D
:1001F000013B13F0030408BF10F8014B1D1108BFA9
:1002000010F8015B641E05D010F8016B641E01F844
:10021000016BF9D1002D15D010F8014B03F00C0340
:100220000C2BA1EB04040ABF10F8013BA4EB8314D0
:10023000A4EB032405F1010314F8016B5B1E01F824
:10024000016BF9D5914238BF10F8013BD1D370470B
:10025000704700000023002400250026103A28BF24
:1002600078C1FBD8520728BF30C148BF0B60704728
:100270001FB503F05FF81FBD10B510BD00F0D0F83A
:100280001146FFF7F5FF02F003FD00F0EEF803B4AE
:10029000FFF7F2FF03BC00F0F5F8000009488047C3
:1002A00009480047FEE7FEE7FEE7FEE7FEE7FEE758
:1002B000FEE7FEE7FEE7FEE704480549054A064B70
:1002C000704700003D2A000889010008101E002028
:1002D00010240020102000201020002053EA020CDF
:1002E00000F069802DE9F04B4FF00006002B1FBF96
:1002F000B3FA83F503FA05F424FA05F65E4012BF5B
:100300001643B2FA82F502FA05F4C5F120051EBFC4
:1003100022FA05FC44EA0C04203556EA044C4FEA64
:10032000144418BF641C4FF000084FF000099042BD
:1003300071EB030C39D3002919BFB1FA81F701FA27
:1003400007F6B0FA80F700FA07F6C7F120071EBFDC
:1003500020FA07FC46EA0C062037B6FBF4FCA7EBB4
:100360000507103F07F01F0BCBF120062CFA06F60D
:100370000CFA0BFB44BFB3460026202FA4BF5E46F9
:100380004FF0000B5BEA060C08BF4FF0010B19EBB6
:100390000B0948EB0608ABFB027C06FB02CC0BFB0F
:1003A00003CCC01B71EB0C01C1E70B460246414672
:1003B0004846BDE8F08B13B5084318BF4FF0FF3037
:1003C0000146AFF30080BDE81C4070474FF00002CB
:1003D00000B5134694469646203922BFA0E80C503B
:1003E000A0E80C50B1F12001BFF4F7AF090728BF16
:1003F000A0E80C5048BF0CC05DF804EB890028BF92
:1004000040F8042B08BF704748BF20F8022B11F0BA
:10041000804F18BF00F8012B704770477047704736
:10042000754600F02BF8AE4605006946534620F0AD
:100430000700854618B020B5FFF73EFFBDE8204015
:100440004FF000064FF000074FF000084FF0000B90
:10045000AC46ACE8C009ACE8C009ACE8C009ACE8FF
:10046000C00921F007018D46704710B50446AFF36F
:1004700000802046BDE81040FFF709BF00487047E4
:10048000D012002001491820ABBEFEE72600020072
:10049000704700000146806B036C026C13F0500F34
:1004A00008D0D20648BF00F0FDB8806BC26C084689
:1004B000104700BF42F40071016401688A6812F0BD
:1004C000405F01D000F0DCB8027E002AFAD1CA6A8F
:1004D00012F4700F02D08A685205F3D44A6822F0F1
:1004E00020024A60016C21F480710164016CC9042E
:1004F00048BF00F0C5B8016C41F00101016400F093
:10050000BFB80000806B40210164416C41F00401E0
:10051000416400F0C7B80000806B00F0C1B8000073
:10052000FEE7000041F28030C2F2000000F094BA11
:100530007047000072B600BFFEE7000070B581B0E2
:100540000022009290F83C20012A03D1022001B041
:1005500070BD00BFD1F800E00122BEF10A0F1FFA02
:100560008EFC80F83C2009D34FEA4C02036812FA53
:100570008EF2A2F11E0403F10C0204E003680EEBFC
:100580004E0403F1100207251668A54026EA05056A
:1005900015608D68166805FA04F4344314604968E0
:1005A000062907D801EB81014A1F194651F8345F2B
:1005B0000FE000BF0C2901EB810105D8A1F1230256
:1005C000194651F8305F04E0A1F14102194651F893
:1005D0002C5F1F24944025EA04040C600CFA02F2FC
:1005E0000C6842F2043CC4F2010C2243ACF54174A5
:1005F000A3420A603ED1BEF1120F07D1DCF8001011
:1006000041F48001CCF8001034E000BF2EF001016D
:1006100010292FD1DCF80010BEF1100F41F40001B9
:10062000CCF8001026D140F20801C2F2000109689E
:100630004DF68362C4F21B32A1FB0212910C01EB56
:100640008101490000910099A1B1009901390091FF
:10065000009979B1009901390091009951B100993F
:1006600001390091009929B100990139009100994F
:100670000029EAD1002180F83C10002001B070BDB3
:10068000006842F20001C4F20101884218BF7047BD
:1006900041F23430C2F200000121017070470000C5
:1006A0007047000070470000002804BF0120704719
:1006B00010B5016C00293DD0016CC90645D4016C10
:1006C00041F202129143023142F204320164C4F257
:1006D0000102116821F440311160136890E8121092
:1006E0002343D0F810E013604A68012422F480729A
:1006F0004A604A68C0F6007442EA0E224A604A68BC
:1007000022F040724A604A6842EA0C024A608A68F3
:1007100022F400628A60C2688B681A438A60826A27
:100720008B68A24223F070638B608B6810D123F03A
:10073000405216E0044600F065F82046002161644E
:1007400084F83C10016CC906B9D5012153E000BF03
:100750001A438A608A6822F040528A60C26A8B68B3
:100760001A438A608A6822F002028A608A68037EDD
:1007700090F8204042EA43028A604A6884B142F419
:1007800000624A604A684EF2000322F460424A6006
:10079000426ACFF6FF734C6803EB4232224301E01A
:1007A00022F400624A60CA6A40F2000C22F470022D
:1007B000CA62C3694269CFF6F07CCC6A0CEB035382
:1007C0002343CB628B6823F400738B6090F8303046
:1007D0008C6844EA43238B608B6823F480638B60CE
:1007E0008B6843EA82228A6000214164026C012303
:1007F00063F301020264002280F83C20BDE810404F
:100800000846704770B586B0044642F20000216881
:10081000C4F20100002681420596CDE903660296E6
:10082000019601D006B070BD43F630010096C4F2C7
:1008300002014A6900F5604042F480724A614A69E7
:1008400002F480720092009A00960A6842F0010257
:100850000A60096801F001010091009901210191EC
:100860000321CDE9021601A900F0DCFA41F280353E
:1008700046F21040C2F20005C4F202004FF480615B
:10088000C5E9000605F110004FF400624FF4005373
:100890004EC04FF40030C5E908062846C5E9026697
:1008A00000F0BCF9002818BFFFF744FEA563AC6355
:1008B00006B070BDB0B582B00023019390F83C3013
:1008C000012B03D1022002B0B0BD00BF8E46012330
:1008D000016880F83C308B689446DB0729D18B682F
:1008E0004DF6836443F001038B6040F20803C2F2CB
:1008F00000031B68C4F21B34A3FB0434A30C03EBFA
:1009000043030193019BA3B1019B013B0193019B15
:100910007BB1019B013B0193019B53B1019B013BC7
:100920000193019B2BB1019B013B0193019B002B88
:10093000EAD18B68DB0503D58B6823F480738B6069
:100940008C68036CE4070BD143F01001016400F1E3
:100950004401002001220B681A430A6002B0B0BDB6
:1009600040F20174A34303F5807303644B685B0595
:1009700004D5036C012464F30D330364046C002379
:10098000E4044FF0000444BF446C24F006044464C3
:1009900080F83C30836B40F2954440F21952C0F627
:1009A0000004C0F60002C3E90F4240F20552C0F64F
:1009B0000002DA646FF022020A604A6842F20434EC
:1009C00042F080624A608A68054642F480728A601A
:1009D0004C31184672466346C4F2010400F0D0F967
:1009E00022682968D20605D0A4F54172914225D02B
:1009F00002B0B0BD42F20002C4F20102914215D031
:100A000042F20022C4F2010291420CD042F20012E2
:100A1000C4F201029142EBD12268D20606D0A4F5BD
:100A200082729142E4D12268D206E1D451F8082FB3
:100A300012F0405FDCD14FF080428CE74FF604515A
:100A4000CFF6FF71615811F0405FD1D1A4F53F712D
:100A50004FF080427FE70000F0B581B000210091A7
:100A600040F20801C2F200010B68D0E9166148F2B9
:100A7000B51537680822C1F64E358A403A42A3FBC5
:100A800005350CD003681C68640708D51C6824F081
:100A900004041C60B260426D42F001024265012212
:100AA0008A403A4208D003685B691B0604D5B260ED
:100AB000426D42F00202426504228A403A4208D066
:100AC00003681B689B0704D5B260426D42F00402C4
:100AD000426510228A403A4219D001680B681B0710
:100AE00015D5B2600B680A685B0309D4D20509D436
:100AF0000A6822F008020A60016C29B907E000BF09
:100B0000110341D4016C11B1044688472046C26DDF
:100B1000202101FA02F33B4243D001680F68FF062F
:100B20003FD5B36090F835700B68052F1CD123F0CA
:100B300016030B604B6923F080034B61036C0BB908
:100B4000836C1BB10B6823F008030B603F219140BD
:100B5000B160012180F83510016D0022002980F874
:100B6000342054D158E000BF0A685B0310D4D2058A
:100B700012D40A6822F010020A60012180F83510B0
:100B8000002180F8341007E0816C0029BCD1BEE759
:100B9000110301D4416C00E0C16B11B104468847D8
:100BA0002046416DC1B3416DC9072ED0052180F8A3
:100BB00035100168AA0A0B6823F001030B60009B43
:100BC0000133934200931AD80B68DB0717D0009BC0
:100BD00001339342009312D80B68DB070FD0009BC0
:100BE0000133934200930AD80B68DB0707D0009BC0
:100BF00001339342009302D80B68DB07DFD1012158
:100C000080F83510002180F83410C16C21B101B09A
:100C1000BDE8F040084700BF01B0F0BD2DE9F0414C
:100C2000044600F0DDF9ECB10546022084F83500F9
:100C30000020216884F83400086820F00100086072
:100C400021680868C00711D000F0CAF9401B0528C8
:100C5000F6D9032520230320636584F83550BDE8C9
:100C6000F08100BF0120BDE8F08100BF086848F2B4
:100C70003F02CFF21002D4E9013500EA020C04F180
:100C80000C0898E8C10143EA0C032B431843D4E94C
:100C9000072E304338431043626A40EA0E00042AAC
:100CA00040EA08031CD1206BD4E90A2E40EA0E006A
:100CB000184308604869BEF1000F20F0030040EAC5
:100CC000020040F0040C11D0B8F5005F36D0B8F146
:100CD000000F45D1022A46D0012A3BD032B942E06A
:100CE0000B60486920F0070040EA020C01F0F800B0
:100CF0004AF6AB221038CAF6AA22A0FB02231A0930
:100D000043F2C833C1F814C0C0F600039A5C40F245
:100D1000FF335F284FF03F0021EA030100FA02F0A1
:100D200088BF0431C4E91612886000230125002021
:100D3000636584F83550BDE8F08100BF032AD5D83B
:100D4000012540230120DFE802F0030E030500BF68
:100D500082E700BFAEF1C070B0FA80F0400904E055
:100D6000032A04D3C2D1CEF300600028BED00125EF
:100D700040230120636584F83550BDE8F081000010
:100D800090F834C0BCF1010F04BF0220704770B569
:100D90004FF0010C80F834C0D0F858E090F835C01E
:100DA000BCF1010F38D14FF0020C80F835C04FF084
:100DB000000CC0F854C0D0F800C08468056CC06D49
:100DC000DCF80060402C26F48026CCF80060CCF8DB
:100DD00004300B4604BF13460A463F2101FA00F0D7
:100DE000CCF80830CCF80C20CEF80800DCF8000075
:100DF00040F01600CCF800002DB1DCF8000040F007
:100E00000800CCF80000DCF8000040F00100CCF84D
:100E10000000002070BD00BF002180F834100220C7
:100E200070BD00002DE9F04F83B000F1200200F109
:100E30003E4741F60045009207F1FF77C4F20205F4
:100E400008224FEAB726A84208BF072200254FF024
:100E500000084FF00009072E38BF4FEAB722019271
:100E60000AE000BF09F1010908F10208B9F1100F09
:100E700005F1040500F0A2800F68012202FA09FEC4
:100E800017EA0E0AEED0D1F804C003220CF00307D3
:100E90007E1E02FA08F4012E6FEA040B12D8846851
:100EA000CE6804EA0B0406FA08F63443846044680A
:100EB00024EA0E06CCF3001404FA09F42643466033
:100EC00004E000BF032F01D103271EE0C6688C6831
:100ED00006EA0B0604FA08F42643022FC66014D172
:100EE0006FF00302009E02EA590756F807C005F0AA
:100EF0001C040F220B69A2402CEA0202A3401A43F1
:100F0000F251D1F804C00CF00307026807FA08F3A5
:100F100002EA0B021A431CF4403F0260A2D00022F6
:100F200043F644030292C4F202031A6843F60044F3
:100F300042F480421A601A68C4F2010402F480424A
:100F40000292029A29F003024FF6084C2244CFF68F
:100F5000FF7C52F80C3005F00C070F26BE40B3435F
:100F6000019E06FA07F73B4342F80C30A2684B6833
:100F700042EA0A0743F60C4CDE0258BF22EA0A078F
:100F8000A760C4F2010CDCF800209E0242EA0A07C6
:100F900058BF22EA0A07CCF8007062689E0342EA52
:100FA0000A0758BF22EA0A0767602268DB0342EAA1
:100FB0000A0758BF22EA0A07276053E703B0BDE8D3
:100FC000F08F0000426902EA0103914341EA0341C4
:100FD00081617047002A08BF0904816170470000E1
:100FE00041F2B840C2F200000068704740F20000D1
:100FF00041F2B841C2F20000C2F2000100780A6872
:10100000104408607047000080B543F60040C4F209
:101010000200016841F400710160016841F48061DF
:101020000160016841F480710160032000F086F8DE
:101030000F2000F005F800F027F8002080BD000028
:1010400070B540F20006C2F2000640F208013278A4
:10105000C2F200014FF47A730968B3FBF2F204465E
:10106000B1FBF2F1084600F05FFB0F2C4FF00105D9
:1010700008D838B94FF0FF3021460022002500F093
:1010800031F87460284670BD82B0002043F64001FC
:101090000190C4F202014A6842F480424A604A6800
:1010A00002F480420192019A0090086840F080505A
:1010B0000860086800F080500090009802B0704707
:1010C000002848BF704700F01F01012202FA01F119
:1010D0001C2202EAD0004EF20012CEF20002815031
:1010E0007047000010B54EF60C5CCEF2000CDCF838
:1010F0000030C3F3022E8EF00704042C28BF042412
:10110000BEF103034FF0FF3E0EFA04F438BF002394
:10111000A14399400EFA03F39A43114300F00F02E2
:1011200000F160430901043A03F564436244002876
:1011300048BF02F10C03197010BD00004EF60C51AF
:10114000CEF200010A684FF6FF031A4060F30A224C
:1011500042F0806040F0FD7008607047002804BFD6
:10116000012070472DE9F04143F60808C4F2020857
:101170000446D8F8F8030D4600F00700884207D26D
:1011800088F8F853D8F8F80300F00700A84277D1A0
:101190002068810717D5410705D5D8F8001041F41C
:1011A000E051C8F80010010705D5D8F8001041F447
:1011B0006041C8F80010D8F80010A26821F0F001D2
:1011C0001143C8F80010C00740D1D8F8F80300F068
:1011D0000700A84207D988F8F853D8F8F80300F0B8
:1011E0000700A8424CD12068410707D5D8F8001065
:1011F000E26821F4E0511143C8F80010000708D557
:10120000D8F80000216920F4604040EAC100C8F825
:10121000000000F07DF8D8F8001043F2B032C1F3BE
:101220000311C0F60002515C40F2080220FA01F1FD
:1012300040F20400C2F200000068C2F20002116035
:10124000FFF7FEFE0020BDE8F08100BF6068811E50
:10125000022907D258F8081C89015CBF0120BDE8AB
:10126000F08111E0012807D158F8081C89035CBF00
:101270000120BDE8F08107E058F8081C890703D475
:101280000120BDE8F08100BFD8F8001021F0030173
:101290000843C8F80000FFF7A3FE064641F288376E
:1012A000D8F80000616800F00C00B0EB810F8CD022
:1012B000FFF796FE801BB842F2D90320BDE8F0810B
:1012C00040F2080043F60801C2F20000C4F2020135
:1012D0000068096843F2C032C1F38221C0F60002FF
:1012E000515CC8407047000040F2080043F6080116
:1012F000C2F20000C4F202010068096843F2C03281
:10130000C1F34231C0F60002515CC8407047000092
:1013100010B543F60404C4F20204606800F00C0146
:1013200042F200400829C0F2F40007D0042918BF97
:1013300010BD41F20020C0F27A0010BD216801F01A
:101340003F02216823684902C3F3881106D4A1FB38
:1013500000010023FEF7C2FF07E000BF41F20020BA
:10136000C0F27A004843B0FBF2F021680222C1F3D8
:10137000014102EB4101B0FBF1F010BD002804BFB8
:10138000012070472DE9F04182B00446007843F611
:101390000006C007C4F202060CD0B06800F00C00D2
:1013A000042840F081803068800303D560680028FD
:1013B00000F06881207880071BD5B06810F00C0F12
:1013C00009D0B06800F00C00082840F087807068F1
:1013D000400200F183803068800703D5E06801286F
:1013E00040F050813068216920F0F80040EAC100E7
:1013F00030602078000713D4207840072AD4A569EC
:10140000002D00F03A81B06800F00C00082840F090
:10141000A580012D40F00E81012002B0BDE8F081D1
:101420006069002800F082800020C4F2472001217A
:10143000C0F8801EFFF7D4FD054600BF706F80071F
:10144000DAD4FFF7CDFD401B0228F7D9032002B004
:10145000BDE8F081306C5FEAC0080AD4002001903A
:10146000306C40F080503064306C00F0805001905F
:10147000019847F20007C4F200073868C00547D456
:10148000386840F480703860FFF7AAFD054600BF59
:101490003868C0053CD4FFF7A3FD401B0228F7D9EC
:1014A000032002B0BDE8F081B06800F00C0008280D
:1014B00003D1706840023FF576AF61683068B1F5DE
:1014C000803F07D0B1F5A02F40F09A8040F48020F3
:1014D0003060306840F4803030609AE0E068002886
:1014E00040F20000C4F247205CD001210160FFF708
:1014F00077FD0546306880073FF574AFFFF770FD54
:10150000401B0228F6D9032002B0BDE8F08100BFDD
:10151000A168306F012905D0052955D140F004009C
:101520003067306F40F00100306756E00020C4F2B1
:1015300047200021C0F8801EFFF752FD054600BF7E
:10154000706F80077FF558AFFFF74AFD401B0228F8
:10155000F6D9032002B0BDE8F08100BF0027C4F235
:10156000472700203866FFF73BFD022D05460DD1C9
:101570003068800140F18A80FFF732FD401B02286D
:101580004FF00300F4D902B0BDE8F081306880016B
:1015900073D5FFF725FD401B02284FF00300F5D956
:1015A000F1E700BF00210160FFF71AFD054600BF0B
:1015B000306880077FF51DAFFFF712FD401B022842
:1015C0004FF00300F4D9DEE720F001003067306F00
:1015D000002920F0040030677AD0FFF701FD0546AE
:1015E00041F28837306F800700F18480FFF7F8FC04
:1015F000401BB842F6D9032002B0BDE8F08100BF1D
:1016000020F4803030603068002920F48020306081
:101610007AD0FFF7E5FC0546306880033FF5CAAE97
:10162000FFF7DEFC401B6428F6D9032002B0BDE8BA
:10163000F08100BF7068E16900F480028A4221D124
:10164000216A00F03F028A421CD147F6C071626AEB
:101650000140B1EB821F15D1A16A4FF6FF73C90398
:10166000994300F44032A1F580318A420AD1E16AFF
:1016700000F07060B0EB016F04D1002002B0BDE853
:10168000F08100BF012002B0BDE8F08104F11C052B
:101690002FCD084340EA8210D9034FF6FF729143E1
:1016A000A1F5803140EA056008437060012038668A
:1016B000FFF796FC044600BF30688001DDD4FFF7D9
:1016C0008FFC001B02284FF00300F5D95BE700BF39
:1016D000FFF786FC054641F2883700BF306F800770
:1016E00008D5FFF77DFC401BB8424FF00300F5D949
:1016F00049E700BFB8F1000F3FF581AE306C20F034
:10170000805030647BE600BFFFF76AFC054600BFEF
:10171000306880037FF54EAEFFF762FC401B642803
:101720004FF00300F4D92EE7411E0020B0EB116FFB
:101730001CBF012070474EF21002CEF20002516031
:101740004EF62351CEF20001F0230B70072190607A
:1017500011607047704700007047000090F83C200F
:10176000012A04BF02207047B0B501F108053CCD45
:10177000D1E900CE23F47C5322F470521A432EF4A4
:10178000F0431A432CF4E0431A4324F4C0431A43B1
:101790002A43C96922F48042036811435964002135
:1017A00080F83C100020B0BD90F83C20012A4FF09A
:1017B000020254D010B580F83D200268D2F804E04F
:1017C000D2F808C00C682EF07003234341F2FF7476
:1017D000C4F20004A24253600EDC40F2FF73C4F274
:1017E00000039A4216DCB2F1804F2BD040F2004346
:1017F000C4F2000324E000BF40F2FF33C4F201034F
:101800009A4213DC41F60003C4F200039A4219D055
:10181000002313E040F60003C4F200039A4211D003
:1018200040F60043C4F200030AE000BF44F20003A4
:10183000C4F201039A4205D040F20043C4F201030E
:101840009A4204D149682CF0800319439160012128
:10185000002280F83D1080F83C20BDE81040104682
:1018600070470000C1B1042908D0082914BF4522DF
:101870004422825C012A05D016E000BF4322825C2C
:10188000012A11D10222082910D0042914BF80F89E
:10189000452080F843200BE090F84220012A03D134
:1018A000022280F8422003E00120704780F84420A3
:1018B000006801F00F010422036A02FA01F123EA31
:1018C00001020262026A11430162416C41F2FF723D
:1018D000C4F2000241F40041904241640EDC40F247
:1018E000FF71C4F20001884216DCB0F1804F2BD0AA
:1018F00040F20041C4F2000124E000BF40F2FF3199
:10190000C4F20101884213DC41F60001C4F2000177
:10191000884219D0002113E040F60001C4F2000112
:10192000884211D040F60041C4F200010AE000BF35
:1019300044F20001C4F20101884205D040F20041A6
:10194000C4F20101884206D1816801F0070106292D
:1019500004BF00207047016841F0010101600020D0
:1019600070470000002804BF0120704710B50446EE
:1019700090F83D0028B9002084F83C00204600F093
:101980001FF8022084F83D002068211D01F06CF84A
:10199000012084F8460084F83E0084F83F0084F873
:1019A000400084F8410084F8420084F8430084F841
:1019B000440084F8450084F83D00002010BD00007C
:1019C00010B582B0006840F20041C4F201018842C3
:1019D00016D040F60041C4F2000188422CD100200C
:1019E000019043F64000C4F202000168322441F045
:1019F00008010160006800F00800019001980FE004
:101A00000020009043F64000C4F2020041682C24FC
:101A100041F002014160406800F00200009000982F
:101A2000204600210022FFF75DFB204602B0BDE802
:101A30001040FFF745BB00BF02B010BD90F83D104D
:101A400001291CBF01207047022180F83D10006869
:101A500041F2FF72C168C4F20002904241F00101FC
:101A6000C1600DDC40F2FF71C4F20001884215DC58
:101A7000B0F1804F2AD040F20041C4F2000123E0CF
:101A800040F2FF31C4F20101884213DC41F600014B
:101A9000C4F20001884219D0002113E040F6000191
:101AA000C4F20001884211D040F60041C4F20001A6
:101AB0000AE000BF44F20001C4F20101884205D0EF
:101AC00040F20041C4F20101884206D1816801F070
:101AD0000701062904BF00207047016841F0010199
:101AE000016000207047000090F83C20012A4FF070
:101AF00002026CD080B580F83D20D0F800C04FF6CF
:101B00007772DCF8083023EA0202CCF808200B6870
:101B10004F2B29DC1F2B45DD202B46D0302B44D00A
:101B2000402B40F0AF80D1F804E0C968DCF82030E9
:101B3000DCF8202022F00102CCF82020DCF818206C
:101B400022F0F00242EA011123F00A0242EA0E02F8
:101B5000CCF81810CCF82020DCF8081041F0470130
:101B600021F0300128E000BF6F2B33DDB3F5005FBB
:101B700074D0B3F5805F21D0702B40F08380D1E921
:101B800001E3C968DCF8082043EA0E0322F47F422F
:101B900043EA01211143CCF80810DCF8081041F0A9
:101BA000770109E00BB1102B6CD1DCF8081021F0A3
:101BB0007001194341F00701CCF8081000220121FF
:101BC00080F83D10002180F83C10BDE880401046B0
:101BD000704700BF502B21D0602B53D1D1F804E0C7
:101BE000C968DCF82030DCF8202022F01002CCF8A4
:101BF0002020DCF8182022F4704242EA013123F060
:101C0000A00242EA0E12CCF81810CCF82020DCF822
:101C1000081041F0670121F01001CDE7D1F804E090
:101C2000C968DCF82030DCF8202022F00102CCF872
:101C30002020DCF8182022F0F00242EA011123F003
:101C40000A0242EA0E02CCF81810CCF82020DCF888
:101C5000081041F0570121F02001ADE7D1E901E37F
:101C6000C968DCF8082043EA0E0322F47F4243EA05
:101C700001211143CCF80810DCF8081041F4804130
:101C80009AE700BF01229AE77047000070B504464A
:101C90000068C5680669B10716D515F0020113D0B2
:101CA0006FF002010161012121778069800703D073
:101CB0002046FFF7E9FF05E0204600F0EDF820465A
:101CC00000F02CFA00202077700719D515F00400D9
:101CD00016D020686FF0040101610221217780692C
:101CE00010F4407F04D02046FFF7CEFF06E000BF8F
:101CF000204600F0D1F8204600F010FA00202077AE
:101D0000300717D515F0080014D020686FF00801CF
:101D1000016104212177C069800703D02046FFF7C5
:101D2000B3FF05E0204600F0B7F8204600F0F6F9D2
:101D300000202077F00619D515F0100016D0206885
:101D40006FF01001016108212177C06910F4407F14
:101D500004D02046FFF798FF06E000BF204600F0C1
:101D60009BF8204600F0DAF900202077F00718BF32
:101D700015F0010002D1300609D412E020686FF09E
:101D800001010161204600F053FA300609D515F033
:101D9000800006D020686FF0800101612046FFF7C7
:101DA000D9FC700609D515F0400006D020686FF008
:101DB00040010161204600F0FDFAB00658BF70BD39
:101DC00015F0200008D021686FF0200220460A613B
:101DD000BDE87040FFF7C0BC70BD00002DE9F041C8
:101DE00086B040F200450068C4F201050026A84212
:101DF0000596CDE903660296019603D006B0BDE8CC
:101E0000F08100BF43F630000096C4F20200016882
:101E100001AC41F00101016001684FF0020801F0DE
:101E200001010091009900960168032741F0020129
:101E30000160016801F002010091009900960168BB
:101E400041F0040101600068214600F004000090A8
:101E500000982020019005F57C40CDE9028604968B
:101E60000597FEF7DFFF05F580302146CDE90178C3
:101E7000CDE903660597FEF7D5FF4FF4E070CDE995
:101E8000010805F582302146CDE903660597FEF786
:101E9000C9FF06B0BDE8F0817047000090F83C3003
:101EA000012B04BF022070474FEAB202032A00F25E
:101EB000FF802DE9F043DFE802F003B13F7F00BF70
:101EC000036840F200461C6A1A6A24F0020422F0F9
:101ED00001021A621A46D3F804C052F818EF8F684C
:101EE00043F48065C4F20106B54244EA070405D113
:101EF000CF6824F00C0427F004073C430F68B54278
:101F000006D1D1E905582CF440762E4346EA080C58
:101F10002EF073063743C3F804C09F614F68096908
:101F20005F631C629F6947F008079F619F6927F004
:101F300004079F61B1E000BF036840F200481C6ADB
:101F40001A6A24F4007422F480721A621A46D3F8D2
:101F500004C052F81CEF8F6843F48065C4F2010896
:101F6000454544EA072408D1CF6840F2FF463F02C6
:101F700024F4406427EA06063443D1F8009045452E
:101F800006D1D1E905562CF440572E4347EA061CEA
:101F90002EF0730747EA0907C3F804C0DF614F68F2
:101FA0000969DF631C62DF6947F00807DF61DF69E9
:101FB00027F00407DF6170E0036840F20045D3F8C2
:101FC00020C01A6A43F4806722F480521A621A46CB
:101FD0005C6852F81C8FD1F800E08E68C4F20105ED
:101FE000AF4204D14D6924F4804444EA85142CF4B2
:101FF000005747EA063728F4E64646EA0E265C60B4
:10200000DE614E6809691E641F62DF6947F400677C
:10201000DF61DF6927F48067DF613DE0036840F23C
:1020200000481C6A1A6A24F0200422F010021A6286
:102030001A46D3F804C052F818EF8F6843F480654D
:10204000C4F20108454544EA071407D1CF686FF090
:10205000400624F0C00406EA07163443D1F8009085
:10206000454506D1D1E905562CF440672E4347EA91
:10207000860C2EF4E64747EA0927C3F804C09F619F
:102080004F6809699F631C629F6947F400679F61FD
:102090009F6927F480679F610902136819431160E3
:1020A0000021BDE8F043002280F83C20084670473C
:1020B0000121002280F83C2008467047002804BF18
:1020C0000120704710B5044690F83D0028B9002063
:1020D00084F83C00204600F01FF8022084F83D0000
:1020E0002068211D00F0C0FC012084F8460084F81F
:1020F0003E0084F83F0084F8400084F8410084F8F2
:10210000420084F8430084F8440084F8450084F8D1
:102110003D00002010BD0000704700007047000027
:10212000C1B1042908D0082914BF41224022825C91
:10213000012A05D016E000BF3F22825C012A11D19E
:102140000222082910D0042914BF80F8412080F809
:102150003F200BE090F83E20012A03D1022280F8B4
:102160003E2003E00120704780F84020006801F025
:102170001F010122036A02FA01F123EA010202624D
:10218000026A114341F2FF72C4F2000290420162FE
:102190000CDC40F2FF71C4F20001884214DCB0F1A3
:1021A000804F37D040F2004116E000BF40F2FF31CF
:1021B000C4F20101884215DC41F60001C4F20001BD
:1021C000884227D0002115E040F60001C4F200014A
:1021D00088421FD040F60041C4F20001884219D065
:1021E0001FE000BF44F20001C4F20101884211D097
:1021F00040F20041C4F20101884212D1416C40F228
:10220000004340F48062C4F2010341F400419A4269
:10221000416406D1816801F00701062904BF00204E
:102220007047016841F00101016000207047000023
:10223000B0B540F600450446C4F20005006805F557
:102240007841884205D105F5FA300221FEF7BAFE41
:102250002068A84218BFB0BD41F23030C2F2000081
:1022600090ED000A9FED4E2A9FED4F1A30EE020AC4
:10227000B4EE410AF1EE10FA80ED000A02DD9FEDA6
:10228000491A04E0B5EE400AF1EE10FA03DA30EE36
:10229000010A80ED000A9FED441A80EE010A9FEDCD
:1022A000431A20EE010A00F0B2FFBDEEC00A10EEA4
:1022B000104A43F6072104F1C800C0F26D01A0FBEB
:1022C000012304F5C87540F20C0CA5FB0112C2F203
:1022D000000C0CEB840191ED000A4FF4167103FB26
:1022E000110302FB115041F2BC41C2F2000140F661
:1022F0006C12B8EEC00AB1EE081A01F63C11C2F237
:10230000000280EE010A91ED002A02EB840191EDBA
:10231000003A0CEB830191ED004A0CEB8001B8EE22
:10232000C44A84EE014A91ED005AB8EEC33AB8EEC1
:10233000C55A85EE011A02EB830130EE030A9FEDC8
:102340001C3A22EE000A30EE030A91ED005ABDEE6F
:10235000C00A10EE101AB8EEC50A34EE000A22EEDA
:10236000000A02EB800030EE030A90ED004ABDEE59
:10237000C00A10EE100AB8EEC40A31EE000A22EECE
:10238000000A41F2284230EE030AC2F20002BDEE1A
:10239000C00A126810EE103A51639063D363B0BD67
:1023A000FCAD003DDA0FC9C0DA0FC9400000164489
:1023B0000000FA4370470000002804BF0120704766
:1023C00010B5044690F8410028B9002084F8400078
:1023D000204600F021F8242084F841002068C168DC
:1023E00021F40051C160204600F0DCFB2068016947
:1023F00021F490410161416921F02A014161C168E4
:1024000041F40051C16000202021606484F8411033
:1024100084F84210606310BD80B586B041F20001BF
:102420000068C4F20101002288420592CDE903222E
:102430000292019202D006B080BD00BF43F6300088
:102440000092C4F20200436943F010034361436900
:1024500003F010030093009B0092036843F0010314
:102460000360006800F00100009000984FF4C06025
:1024700001900220CDE9020203200490072005907C
:1024800001F5704001A9FEF7CDFC06B080BD00004B
:102490002DE9F04381B0044690F84100202809D18D
:1024A00000294FF0010018BF002A07D101B0BDE894
:1024B000F08300BF022001B0BDE8F083002060641B
:1024C00021201D460E4684F841001746FEF788FD80
:1024D000A784E784A1688146B1F5805F02D12069B5
:1024E00000285DD037460020E28C2168002A5DD0AC
:1024F0006A1C24D0002D4AD0804600BF0868000620
:1025000008D4FEF76DFDA0EB0900A8427AD8216837
:10251000C868F3E717B117F8010B04E038F8020BAD
:1025200000276FF35F204860E08C0138E084E08C86
:102530000028E3D13AE000BF0A68120609D40A680D
:10254000120606D40A6812065CBF0A685FEA0262D5
:10255000F2D51FB117F8012B05E000BF30F8022BB0
:1025600000276FF35F224A60E28C013AE284E28C3A
:10257000002AE4D11AE000BF30F8022B00276FF3E5
:102580005F224A60E28C013AE284E28C72B10A680E
:10259000120635D5002FEFD017F8012BF1E700BF59
:1025A00000273046E28C2168002AA1D10868400645
:1025B0001ED42DB3681C14D1086840062AD40868BC
:1025C000400627D40868400624D4086840064FF027
:1025D0000000F1D50DE000BF2068C168006840062A
:1025E00018D4FEF7FDFCA0EB0900A842F4D909E0DD
:1025F0000020202184F8411001B0BDE8F08300BF25
:10260000FEF7EEFC0320202184F8411001B0BDE864
:10261000F08300BF0020202184F8411001B0BDE804
:10262000F0830000FEE70000B0B584B041F238301E
:10263000C2F2000042F200014FF080534FF060659B
:102640000024C4F20101C0E90A53012503944FF4A8
:102650008032047680F82040C56180F8304080E800
:102660001600C0E903444561FEF71EF8002818BFB4
:10267000FDF760FF41F23830C2F200006946CDE953
:1026800000450294FDF75AFF002818BFFDF752FFDE
:1026900004B0B0BD80B582B00020019043F6300098
:1026A000C4F202000168002241F480010160006868
:1026B000002100F48000019001983820FEF712FDFF
:1026C000382002B0BDE88040FEF7FABC2DE9F043A7
:1026D00087B0002743F630000697CDE90477CDE9AF
:1026E00002770197C4F202000168002441F08001E2
:1026F00001600168C4F2020401F0800101910199B6
:1027000001970168002241F0010101600168022681
:1027100001F00101019101990197016841F0020165
:102720000160016801F002010191019901970168BE
:1027300041F0040101600068022100F004000190F2
:1027400001982046FEF746FC04F5806528460421E2
:1027500001224FF004084FF00109FEF73BFCCDE9E0
:10276000026902AE20463146CDE90477FEF75AFBF6
:1027700028463146CDE90289CDE90477FEF752FBC0
:1027800007B0BDE8F083000080B586B041F2E030CC
:1027900040F600420021C2F20000C4F200025323BE
:1027A0004FF0630C0591CDE90311CDE90011C0E9AB
:1027B0000023C0E9021C01618161FFF7D3F8002802
:1027C00018BFFDF7B7FE4FF48050029041F2E030A1
:1027D000C2F2000002A9FFF787F9002818BFFDF731
:1027E000A9FE41F2E030C2F200006946FEF7DCFFCC
:1027F000002818BFFDF79EFE06B080BD10B596B04C
:1028000041F2284040F200420021C2F20000C4F22E
:1028100001024FF0010E1591CDE913111191CDE98F
:102820000F11CDE90D11CDE90B11CDE90911CDE95C
:102830000711CDE90511CDE90311CDE901110323FC
:10284000402440F2E73C80E81C10C0E9041E81618E
:10285000FFF788F8002818BFFDF76CFE4FF4805092
:10286000129041F22840C2F2000012A9FFF73CF991
:10287000002818BFFDF75EFE41F22840C2F20000BA
:10288000FFF71CFC002818BFFDF754FE2020109015
:1028900041F228400024C2F2000010A91194FEF772
:1028A00083FF002818BFFDF745FE602009904FF414
:1028B000FA70CDE90A0441F22840C2F2000009A9E9
:1028C0000022CDE90C44CDE90E44FFF7E7FA0028D9
:1028D00018BFFDF72FFE41F22840C2F2000009A9FF
:1028E0000422FFF7DBFA002818BFFDF723FE41F2B0
:1028F0002840C2F2000009A90822FFF7CFFA0028F9
:1029000018BFFDF717FE00205421CDE90100039008
:10291000CDE904104FF40051089041F2284006918F
:10292000C2F2000001A9FEF719FF002818BFFDF749
:1029300001FE41F22840C2F20000FFF74FFA16B044
:1029400010BD000080B541F2704041F20001C2F2BA
:102950000000C4F2010100234FF00C0C4FF4E132EF
:1029600080E80E00C0E90333C0E905C3C361FFF787
:1029700023FD002808BF80BDBDE88040FDF7DABD1B
:10298000FEE70000FEE7000070470000704700000F
:10299000FEF72CBB70B592B006AC20463021FDF797
:1029A00015FD002543F640000595CDE90355CDE919
:1029B00001550095C4F202000168022641F08051E1
:1029C0000160006800F080500090009847F200001D
:1029D0000095C4F20000016841F480410160006884
:1029E000A82100F4804000900098012006904FF448
:1029F000803007904FF480000D9004200E901190CD
:102A000020460C96CDE90F16FEF7B8FC10B172B651
:102A1000FEE700BF0F20CDE901064FF4A05004905F
:102A20004FF48050059001A805210395FEF796FB11
:102A300010B172B6FEE700BF12B070BD4EF68850FE
:102A4000CEF20000016841F470010160704700009F
:102A500041F2E030C2F20000FFF718B941F228401D
:102A6000C2F20000FFF712B9B0B540F6FF3E0568AC
:102A7000C4F2000E40F2004C7045C4F2010C25DC9B
:102A8000B0F1804F2FD040F20043C4F200039842CF
:102A900029D040F60003C4F20003984223D041F647
:102AA000FF73C4F20003984228DC70453ADCB0F1B1
:102AB000804F5BD040F20043C4F20003984255D0EF
:102AC00040F60003C4F200034EE000BF40F60043AE
:102AD000C4F20003984206D0604504D00023C4F23B
:102AE00001039842DBD14B6825F0700243EA0205EE
:102AF00041F6FF73C4F200039842D6DD43F6FF733C
:102B0000C4F2010398421FDC42F20003C4F2000346
:102B100098422BD00023C4F20103984226D060458E
:102B200024D028E040F60043C4F2000398421DD0B0
:102B300041F60003C4F20003984217D041F6004367
:102B4000C4F2000310E000BF44F20003C4F201032A
:102B500098420BD044F60003C4F20103984205D01A
:102B600044F20043C4F20103984204D1CB6825F437
:102B7000407243EA02050A688C684B69C46240F4FB
:102B800080648262644504BF09690163026825F0BC
:102B9000800142F004021943026001224261016097
:102BA000B0BD0000B0B50446006804F108030ECBC8
:102BB0000569194325F440552A4302616269E369B6
:102BC0001143C268194349F20C639A431143C1602F
:102BD0004169A26921F4407141F20043114340F47C
:102BE0008062C4F201039A42416103D1FEF77CFB8B
:102BF00002E000BFFEF764FBE1694FF69C75636875
:102C00001922C0F6FF75B1F5004FA0FB02011FD1DC
:102C10005A00DB0FFDF762FB48F21F51C5F2EB11C2
:102C2000A0FB01235A0905F1805302FB0300322364
:102C300003EBC000A0FB01014FF4F87000EA111093
:102C400000EB0210C1F34211084421688860B0BD56
:102C50009A009B0FFDF742FB48F21F51C5F2EB11A2
:102C6000A0FB01235A0902FB0500322303EB0010ED
:102C7000A0FB0101F02000EA511000EB0210C1F3AB
:102C80004311084421688860B0BD0000FEE70000E1
:102C900086B0FEF7B9F9FFF77DFEFFF717FDFFF7E6
:102CA000F9FCFFF74FFEFFF76FFDFFF7BDFCFFF7E5
:102CB000A5FD41F2BC44C2F2000420464FF4156168
:102CC000FDF784FB00204DF20A7141F22845C4F261
:102CD0004010C3F62341C2F200054FF07C52C4F805
:102CE0003809C4F84019C4F8441928460021C4F82A
:102CF0003C290026FFF714FA28460021FEF7B2FD12
:102D000028460421FFF70CFA28460421FEF7AAFD05
:102D100028460821FFF704FA28460821FEF7A2FDFD
:102D200041F2E030C2F20000FEF788FE2846FEF7CE
:102D300085FE41F23838C2F20008404621464FF481
:102D40005272FDF7B7FD41F234359FED0E8A9FEDCB
:102D50000E9A9FED0EAA9FED0EBA9FED0ECA9FED43
:102D60000EDA9FED0EEA41F270490496CDE9026653
:102D7000C2F2000504F634164FF0FF4AC2F2000911
:102D80006F460DE0000000003333534000008039EF
:102D9000000052440000C842CDCC4C3ECDCC4C3F4C
:102DA00028780128FCD10020B0EE480A287000BF26
:102DB000225A211801EE102AB8EE411A21EE091A02
:102DC0004A8821EE0A1A30EE010A01EE102AB8EE06
:102DD000411A21EE091A8A8821EE0A1A30EE010AF8
:102DE00001EE102AB8EE411A21EE091ACA8821EE26
:102DF0000A1A30EE010A01EE102AB8EE411A21EE4D
:102E0000091A0A8921EE0A1A30EE010A01EE102A87
:102E1000B8EE411A21EE091A4A8921EE0A1A30EE5B
:102E2000010A01EE102AB8EE411A21EE091A8A8928
:102E300021EE0A1A30EE010A01EE102AB8EE411A0C
:102E400021EE091ACA8921EE0A1A30EE010A01EEB2
:102E5000102AB8EE411A21EE091A0A8A21EE0A1A3E
:102E600030EE010A01EE102AB8EE411A21EE091ADD
:102E70004A8A21EE0A1A30EE010A01EE102AB8EE53
:102E8000411A21EE091A8A8A21EE0A1A30EE010A45
:102E900001EE102AB8EE411A21EE091ACA8A21EE73
:102EA0000A1A30EE010A01EE102AB8EE411A21EE9C
:102EB000091A0A8B21EE0A1A30EE010A01EE102AD5
:102EC000B8EE411A21EE091A4A8B21EE0A1A30EEA9
:102ED000010A01EE102AB8EE411A21EE091A8A8B76
:102EE00021EE0A1A30EE010A01EE102AB8EE411A5C
:102EF00021EE091ACA8B21EE0A1A30EE010A01EE00
:102F0000102AB8EE411A21EE091A0A8C21EE0A1A8B
:102F100030EE010A01EE102AB8EE411A21EE091A2C
:102F20004A8C21EE0A1A30EE010A01EE102AB8EEA0
:102F3000411A21EE091A8A8C21EE0A1A30EE010A92
:102F400001EE102AB8EE411A21EE091ACA8C21EEC0
:102F50000A1A30EE010A01EE102AB8EE411A21EEEB
:102F6000091A098D21EE0A1A30EE010A01EE101A33
:102F7000B8EE411A21EE091A21EE0A1A2A30B0F5EC
:102F8000D26F30EE010A7FF413AF80EE0B0A0020FF
:102F9000B0EE481A86ED000A225A211802EE102AD5
:102FA000B8EE422A22EE092A22EE0A2A32EE402AFE
:102FB0004A8822EE022A32EE011A02EE102AB8EEF8
:102FC000422A22EE092A22EE0A2A32EE402A8A8872
:102FD00022EE022A32EE011A02EE102AB8EE422A3E
:102FE00022EE092A22EE0A2A32EE402ACA8822EE6E
:102FF000022A32EE011A02EE102AB8EE422A22EE1E
:10300000092A22EE0A2A32EE402A0A8922EE022AF0
:1030100032EE011A02EE102AB8EE422A22EE092AF6
:1030200022EE0A2A32EE402A4A8922EE022A32EEA3
:10303000011A02EE102AB8EE422A22EE092A22EEE6
:103040000A2A32EE402A8A8922EE022A32EE011A38
:1030500002EE102AB8EE422A22EE092A22EE0A2AAD
:1030600032EE402ACA8922EE022A32EE011A02EE1C
:10307000102AB8EE422A22EE092A22EE0A2A32EE5D
:10308000402A0A8A22EE022A32EE011A02EE102AA1
:10309000B8EE422A22EE092A22EE0A2A32EE402A0D
:1030A0004A8A22EE022A32EE011A02EE102AB8EE05
:1030B000422A22EE092A22EE0A2A32EE402A8A8A7F
:1030C00022EE022A32EE011A02EE102AB8EE422A4D
:1030D00022EE092A22EE0A2A32EE402ACA8A22EE7B
:1030E000022A32EE011A02EE102AB8EE422A22EE2D
:1030F000092A22EE0A2A32EE402A0A8B22EE022AFE
:1031000032EE011A02EE102AB8EE422A22EE092A05
:1031100022EE0A2A32EE402A4A8B22EE022A32EEB0
:10312000011A02EE102AB8EE422A22EE092A22EEF5
:103130000A2A32EE402A898B22EE022A32EE011A46
:1031400002EE101AB8EE422A22EE092A22EE0A2ACC
:1031500032EE402A22EE022A1E30B0F5D26F32EE55
:10316000011A7FF419AF81EE0B0A04F6381090EDC6
:10317000001A04F64C1090ED002A04F5146104F6D0
:10318000441291ED003A92ED004A04F63C1104F627
:1031900048124FF0FF33B1EEC00A20EE0C0A31EEB8
:1031A000401A31EE422A23EE022A21EE043A91ED32
:1031B000004A32EE032A34EE022A80ED001A04F5AA
:1031C0001360B4EE4D2A82ED001A80ED000A8DEDF9
:1031D000000AF1EE10FAB8BFB0EE4D2AB4EE4E2A56
:1031E000F1EE10FAC8BFB0EE4E2A81ED002A484633
:1031F000394618228DED012ACDF814A0FFF748F9C1
:10320000404621464FF45272FDF754FBC8E510B515
:103210002DED028BB0EE408A18EE100A00F098F8FF
:1032200001EE100A18EE100AB7EE000A78EE410A15
:1032300010F0004F4FF07F4010EE901A12D0B1F115
:103240003F4F24BF10EE901AB0EB410F12D210EE98
:10325000901AB1F17C5F1CDD10EE901AB0EB410FBB
:1032600017D314E0B1F13F4F07D910EE901AB0EB2D
:10327000410F02D331EE401A0BE010EE901AB1F17B
:103280007C5F06DB10EE901AB0EB410F01D331EEFC
:10329000001A18EE100ABDEC028B11EE101A61F341
:1032A0001E0000EE100A10BD0EF1020E2EF0030EED
:1032B0005EF8044B244204D44FEA4102B2F17F4F3E
:1032C00011D84FEA4003B3F17F4F0CD80ED14FEA2B
:1032D000D07C0CEB4C0C0CF1020CB2F17F4F08BF10
:1032E0004CEBD17C04E04FF0080C01E04FEAD17CBC
:1032F0000CEB4C0324FA03F404F00704B4F1040CBF
:1033000006D20EEB840CBDE810404CF0010C604777
:10331000DFE80CF0070802024FF00040A0F5800043
:1033200010BD0846420018BFD2F1807288BF00F07D
:10333000004010BDF1EE100A4FF6FF71C0F2C0312F
:1033400020EA010040F04070E1EE100A70470000F2
:103350005FEA400C5FEA1C6CBCF17F0314D4D3F12C
:10336000170240F31C804FF0010C0CFA02FCACF188
:103370000103034020EA0300B3EB5C0208BF10EA3C
:103380000C0F88BF60447047B3F1FF3F28BF5FEA6E
:10339000002C00F0004088BF40F07E507047BCF128
:1033A000FF0FB8BF704710B5FFF77EFF40DBB6BE1A
:1033B00000000000000000000102030406070809E5
:1033C000000000000102030400061016000610169B
:1033D000F033000800000020D0120000EC010008CB
:1033E000F83A0008D01200204011000054020008F2
:1033F000100601000000100420040024F406310C23
:10340000121F0F122F04123F04124E04125E0412F8
:103410006D04127C04128B04129B0412A90412B8CE
:103420000412C70412D50412E30412F10412FF506F
:10343000120C55121904122604123204123F0412FF
:103440004B04125604126204126C041277041281A7
:1034500004128B04129504129E0412A60412AE04E8
:1034600012B60412BE0412C40412CB0412D1041208
:10347000D60412DC0412E00412E40412E80412EB95
:103480000412EE0412F00412F20412F30492F40493
:1034900052F31852F02852EB3852E44852DC58529A
:1034A000D16852C47852B68852A6985295A85281D3
:1034B000B8526CC85256D8523FE85226F8250056EA
:1034C000FF1056E32056C73056A940568B50566D14
:1034D00060564E70562F80359411441006F0FFFF51
:1034E000FFE10412D10412C10412B20412A20412A8
:1034F00093041284041275041265041257041248CE
:1035000004123904122B04121D04120F041201407C
:103510001006F4FEFFFFE70412DA0412CE0412C113
:103520000412B50412AA04129E041294041289040F
:10353000127F04127504126B04126204125A0412F0
:103540005204124A04124204123C04123504122F8F
:1035500004122A04122404122004121C0412180457
:10356000121504121204121004120E04120D049209
:103570000C04520D18521028521538521C4852246F
:1035800058522F68523C78524A88525A98526BA827
:10359000527FB85294C852AAD852C1E852DAF825DC
:1035A00000560110561D205639305657405675505A
:1035B00056936056B27056D18025880DFF20030DBA
:1035C000FF20030DFF20030DFF20030DFF20030D3F
:1035D000FF20030D3C20031A05E0160AA0160FA8D1
:1035E0001614AC5E1A30031624BC5E293803163458
:1035F000CC1639D0163ED81643DC5E494803165324
:10360000EC1658F0165DF81662FC5E6758031A72E5
:103610000C5E7760031A811C5E8668031A902C1A70
:1036200095301A9A381A9F3C5EA478031AAE4C5E05
:10363000B380031ABC5C1AC1601AC6681ACB6C1A34
:10364000D0701AD4781AD97C1ADE801AE2441AE7AC
:10365000482AEC4C1DA0031EF5A4031EFAA8031271
:10366000FECC1A03AC1A07B01A0BB81A10BC5E14C1
:10367000B8031A1DCC1A21D01A25D81A2ADC5E2EBE
:10368000C8031A36EC1A3AF01A3EF81A42FC1E46E3
:1036900000031E4A08031E4E0C035E52E0031E5A2E
:1036A0001C031E5D20031E6128031E652C035E683B
:1036B000F0031E703C035E73F8031E7A4C035E7DBC
:1036C00000041E845C035E8708041E8E6C031E913A
:1036D00070031E9478031E977C031E9A80031E9D20
:1036E00088031EA08C035EA320041EA89C035EAB6F
:1036F00028041EB1AC035EB330041EB8BC031EBB6D
:10370000C0031EBDC8031EBFCC035EC240041EC65C
:10371000DC031EC8E0031ECAE8031ECCEC031ECE69
:10372000F0031ED0F8031ED2FC035ED458041ED84A
:103730000C041ED910041EDB18041EDD1C045EDE02
:1037400068041EE12C045EE270041EE53C041EE6E3
:1037500040041EE748041EE94C045EEA800452EC73
:10376000045EED8C045EEF90042D940452F1049EEF
:10377000F2A0040112040219F41C613C614C615C6A
:1037800052EF7092ED8452EB9852E9A852E6B8528B
:10379000E4C852E1D852DEE852DBF856D80856D4D5
:1037A0001856D02856CC3856C84856C45856BF6804
:1037B00056BB7856B68856B19856ABA856A6B8569A
:1037C000A0C8569AD85694E8568EF85A87085A8157
:1037D000185A7A285A73385A6C485A65585A5D688C
:1037E0005A56785A4E885A46985A3EA85A36B85A67
:1037F0002EC85A25D85A1DE85A14F85E0B08032D16
:1038000010035EFE20035EF530035EEC40035EE2D3
:1038100050035ED960035ED070035EC680035EBC59
:1038200090035EB3A0035EA9B0035E9FC0035E95E4
:10383000D0035E8BE0035E81F0035E7700045E6D73
:1038400010045E6220045E5830045E4E40045E4305
:1038500050045E3960045E2F70045E2480045E1A9A
:1038600090045E0FA0045E05800C1EFB400C1EF64B
:1038700004061EF1C40412EC045EE6D00412DC045B
:103880005ED7E00412CC0412C7041EC2640612BD47
:10389000045EB7000512AD0412A8041EA37406123C
:1038A0009E045E992005128E045E893005127F0405
:1038B0005E7A4005127004126B041E669406126153
:1038C000045E5C60051252045E4D700512440412E1
:1038D0003F041E3AAC061235041230041E2CB40606
:1038E0001227041222041E1EBC061219041214040C
:1038F0001E10C406120B041207041202C81EFD0C8F
:103900000C12F9041EF5D40512F0045EECE0051269
:10391000E30412DF041EDBE40612D6045ED20006C6
:1039200012CA0412C6041EC2F40612BE0412BA045D
:103930001EB6FC0612B2045EAE300612A60412A336
:10394000041E9F0C07129B045E9850061290045EA2
:103950008D60061286045E837006127C045E798098
:1039600006127204126F041E6C3407126904126688
:10397000041E633C071260045E5DB0061258045ECC
:1039800055C006124F045E4DD0061248041245047D
:103990001E435C071241045E3EF006123A041238E0
:1039A000041E366C071234041232041E30740712DF
:1039B0002E045E2C20071228041227041E258407DB
:1039C0001223045E224007121F045E1E5007121BC2
:1039D00004121A041E199C071217045E167007526F
:1039E00014045E1384075E1190072104520F049E95
:1039F0000E000E01120402190C1C613C614C615C4A
:103A00005E11F4079213845215985217A8521AB8EF
:103A1000521CC85E1F18085222E85225F85E28285A
:103A200008562C18563028563438563848563C58C4
:103A3000564168564578564A885E4F58085655A8EC
:103A4000565AB85660C85666D8566CE85E72780802
:103A50005A79085A7F185E8688085A8D385A9448D1
:103A60005A9B585AA3685AAA785AB2885ABA985A8E
:103A7000C2A85ECAB8085AD2C85ADBD85EE3C808E2
:103A80005AECF85EF508032D10035E0220035E0B6E
:103A900030035E1440035E1E50035E2760035E30F9
:103AA00070035E3A80035E4400095E4DA0035E57DA
:103AB000B0035E61C0035E6BD0035E75E0035E7FA2
:103AC00020095E8900045E9310045E9E20045EA8B7
:103AD00030045EB240045EBD50045EC760045ED137
:103AE00070045EDC50095EE690045EF1A0045EFBAB
:083AF000600900000000000065
:040000050800018965
:00000001FF
