:020000040800F2
:10000000F0240020B50200084D390008C130000876
:1000100049390008410D0008654100080000000052
:10002000000000000000000000000000653E000825
:10003000F90D000800000000613E0008693E00085C
:10004000CF020008CF020008CF020008CF0200084C
:10005000CF020008CF020008CF020008CF0200083C
:10006000CF020008CF020008CF020008CF0200082C
:10007000CF020008CF020008CF020008CF0200081C
:10008000CF020008CF020008CF020008CF0200080C
:10009000CF020008CF020008CF020008CF020008FC
:1000A000CF020008CF020008CF020008CF020008EC
:1000B000CF020008CF020008CF020008CF020008DC
:1000C000CF020008CF020008CF020008CF020008CC
:1000D000CF020008CF020008CF020008CF020008BC
:1000E000CF020008CF020008CF020008CF020008AC
:1000F000353F0008CF020008CF020008CF020008F9
:10010000CF020008CF020008293F0008CF020008F4
:10011000CF020008CF020008CF020008CF0200087B
:10012000ED0D0008CF020008CF020008CF02000842
:10013000CF020008CF020008CF020008CF0200085B
:10014000CF020008CF020008CF020008CF0200084B
:10015000CF020008CF020008CF020008CF0200083B
:10016000CF020008CF020008CF020008CF0200082B
:10017000CF020008CF020008CF02000800000000F4
:10018000CF020008CF02000800F002F800F083F868
:1001900014A696E8000CB244B344DA4501D100F04D
:1001A0007AF8BAE80F000FA696E83000A5EB040530
:1001B00004EB0607AAEB0704A7F101074FEA1515A0
:1001C0004FEA3414A4F10104AC4201D300F063F807
:1001D00013F0010F18BFFB1A43F0010300F001F800
:1001E000DBE71847845B0000A45B00000A4410F8BA
:1001F000013B13F0030408BF10F8014B1D1108BFA9
:1002000010F8015B641E05D010F8016B641E01F844
:10021000016BF9D1002D15D010F8014B03F00C0340
:100220000C2BA1EB04040ABF10F8013BA4EB8314D0
:10023000A4EB032405F1010314F8016B5B1E01F824
:10024000016BF9D5914238BF10F8013BD1D370470B
:10025000704700000023002400250026103A28BF24
:1002600078C1FBD8520728BF30C148BF0B60704728
:10027000662905F0FB80002070471FB505F0B9F82E
:1002800000F0A2FB04000020002105F025F8E0604A
:100290001FBD10B510BD00F097FC1146FFF7EDFF34
:1002A00004F092F800F0B5FC03B4FFF7F2FF03BCD2
:1002B00000F0F8FC0948804709480047FEE7FEE7E0
:1002C000FEE7FEE7FEE7FEE7FEE7FEE7FEE7FEE706
:1002D00004480549054A064B70470000153F0008D1
:1002E00089010008F01E0020F0240020F0200020EA
:1002F000F020002053EA020C00F069802DE9F04B59
:100300004FF00006002B1FBFB3FA83F503FA05F484
:1003100024FA05F65E4012BF1643B2FA82F502FADD
:1003200005F4C5F120051EBF22FA05FC44EA0C04C1
:10033000203556EA044C4FEA144418BF641C4FF0B1
:1003400000084FF00009904271EB030C39D30029EB
:1003500019BFB1FA81F701FA07F6B0FA80F700FA8F
:1003600007F6C7F120071EBF20FA07FC46EA0C0675
:100370002037B6FBF4FCA7EB0507103F07F01F0B77
:10038000CBF120062CFA06F60CFA0BFB44BFB34661
:100390000026202FA4BF5E464FF0000B5BEA060C40
:1003A00008BF4FF0010B19EB0B0948EB0608ABFB3C
:1003B000027C06FB02CC0BFB03CCC01B71EB0C01D7
:1003C000C1E70B46024641464846BDE8F08B13B5EF
:1003D000084318BF4FF0FF300146AFF30080BDE87F
:1003E0001C4070470FB41CB5074B06AA7B446946F6
:1003F0000090059800F0CFFA0020694600F0DEFA80
:100400001CBC5DF814FB0000CD0500002DE9F04791
:100410004FF0000A89460446C0F820A02046E16853
:100420008847002876D0252806D0D4E901219047B6
:10043000206A401C2062F1E7E168204600258847D9
:10044000C4F81CA006460027C4F818A02A2E09D01C
:10045000304604F03AFF38B304EB8708303EC8F862
:10046000186019E059F8041B204604EB87029161DB
:10047000E1688847012F064618D1E069002820DA94
:1004800025F020051DE0D8F8180000EB800006EBF1
:1004900040003038C8F818002046E1688847064612
:1004A00004F013FF0028EED1012F0AD02E2E08D120
:1004B0002046E16888477F1C0646022F45F020054C
:1004C000C4DBA069002803DA404245F00105A061C1
:1004D000E80701D025F01005B6B1A6F141001928B2
:1004E00002D8203645F400654A463146204625604C
:1004F0004D46FFF7BDFE58B1012806D0ED1D25F091
:10050000070000F1080989E704E005F1040985E71F
:1005100030468AE7206ABDE8F0874FF0000200B558
:10052000134694469646203922BFA0E80C50A0E816
:100530000C50B1F12001BFF4F7AF090728BFA0E8C4
:100540000C5048BF0CC05DF804EB890028BF40F890
:10055000042B08BF704748BF20F8022B11F0804FD2
:1005600018BF00F8012B70477047704770472DE99E
:10057000FF4F0C461E464FF0FF378BB0D2E900010B
:10058000DDF860800A908A46C1F30A5505B93D46F8
:10059000002108464FF00000BAF1000F00F44000BF
:1005A00005DA00EB80004FF4400101EA50004FEA09
:1005B0009059B9F1010F00DDB9460A9850EA4A0096
:1005C0000ED044F61050A5F2FF3545432F14B8F174
:1005D000000F1ED07542291E1EDDC9F100021CE06D
:1005E000B8F1010F4FF0000001D0302103E0F243D9
:1005F00005E02154401CB042FBDB304600220021C4
:1006000021540B99C1F80880C1E900200FB0BDE862
:10061000F08FBD1B6D1CDEE74A4600DA694206A872
:1006200000F05CFA06AB93E8070003AB83E8070031
:1006300050460A9904F01BFA8DE80700A0F5005017
:100640001F3800900398002D0ADD42F21F014A4630
:100650000844002303A90390684604F085FC09E0E0
:10066000A0F500504A461F38002303A903906846AE
:1006700004F08FFC8DE807000004000C03D04FF05D
:10068000FF30410800E01046B8F1000F03D000220F
:10069000009215461EE0751E05D400F099F930321F
:1006A00062556D1EF9D5B3460122084302D00022DF
:1006B0007F1C04E02078302801D100227F1E002A10
:1006C000099784D01DE0112D07DA00F081F930324E
:1006D00062556D1C50EA0102F5D1084302D0009822
:1006E000C8B10EE00021681E05E0235C625C635423
:1006F0002254401E491C8142F7DBAB46A81B401E1A
:100700000990002004F80B000B98099AC0F80880A3
:10071000C0E9002B7AE711264FF0000857E72DE9D2
:10072000F04F88460446D21D22F0070191B0D1E96E
:100730000001CDE90A0104F063FD02460B98C00FE9
:1007400001D02D2007E02068810701D52B2002E091
:10075000202101EAC000032A099001D0072A05DB05
:1007600003464146204600F079F90BE120788006E7
:1007700001D5E06900E00620B8F1650F814606D09A
:10078000B8F1660F18D0B8F1670F70D131E00020D2
:10079000B9F1110F009001DB112301E009F1010310
:1007A0000AAA01A90CA8FFF7E2FEDDE90C700026F9
:1007B00009F10105834647E001204B4600904FF0C8
:1007C00000470AAA01A90CA8FFF7D1FEDDE90DB088
:1007D0000C995D46002610B909F101000D18B9EB1E
:1007E000050003D4C0F1FF3609F10105A5EB0900AE
:1007F0002BE0B9F1010F01DA4FF001090020B9F146
:10080000110F0090484601DD112300E003460AAABB
:1008100001A90CA8FFF7ABFEDDE90C704D460026E0
:100820008346207800070AD4AB4500DA5D4601A86C
:10083000012D04DD411911F8011C302907D04F4565
:1008400002DA17F1040F04DA012082460FE06D1E70
:10085000EEE7002F02DCED1B3E4403E0781CA842CB
:1008600000DD7D1CB81B00F1010A4FF00047207825
:10087000000703D4AA4501DB4FF0FF3A0021B7F18E
:10088000004F0DF143088DF8431024D002202B2394
:10089000002F01DA7F422D230A21021EA0F1010060
:1008A00000DC5FB197FBF1FC97FBF1F201FB1C7CD4
:1008B00017460CF1300C08F801CDEEE7A8F1010065
:1008C00003702188090501D5452100E06521A0F1CB
:1008D000010800F8011C09980FA9A1EB0807FF1DEA
:1008E00000B10120411901EBEA70A1693844081AEE
:1008F000401EA0612078C00602D42046AFF30080DD
:10090000099828B1D4E901219047206A401C20624F
:100910002078C00622D52046AFF300801EE0002ECE
:1009200004DBB34502DD01A8805D00E03020D4E99E
:1009300001219047206A401C2062761CAAF1010028
:100940005FEA000A0AD100F03FF8C0680168405C25
:10095000D4E901219047206A401C2062281EA5F19D
:100960000105DCDC07E0D4E9012118F8010B904710
:10097000206A401C2062381EA7F10107F3DC2046E4
:10098000AFF30080032011B041E6000001694A1C6A
:1009900002610878704700B58FB0CDE901310021C0
:1009A000059105497944CDE9031011466846FFF7E2
:1009B0002DFD0FB000BD0000E5FFFFFF0A6802F843
:1009C000010B0A60704700000048704708130020C0
:1009D00030B5B0F10A0271F100034FEA900E4EEA11
:1009E000817EB0EB0E0061EB91014FEA101E4EEAE2
:1009F000017E10EB0E0041EB11114FEA102E4EEA72
:100A0000016E10EB0E0041EB11214FEA104E4EEA41
:100A1000014E10EB0E0041EB1141401841F1000175
:100A20004FEAD00040EA41704FEAD1014FEA810419
:100A300044EA907410EB800544EB01046D1944EB1B
:100A40000404521BA3414FF0000348BF0A3200D5F3
:100A500030BD401C41F1000130BD00002DE9F041E6
:100A60001F46044603260168072A01F4006004DBE0
:100A700008B116A505E016A503E008B115A500E02C
:100A800015A521F010002060A069C01EA0610FB163
:100A9000401EA0612046AFF300804FB1D4E9012190
:100AA00038469047206A401C2062C01C206206E045
:100AB000206AFAE7D4E9012115F8010B9047761E68
:100AC000F8D22046AFF30080BDE8F0814E414E00E1
:100AD0006E616E00494E4600696E66002DE9F04772
:100AE000814616468AB0354878440DC88DE80D0019
:100AF00032487844801C03AC0DC884E80D0041F6F0
:100B00009B300844372190FBF1F290FBF1F5A5F101
:100B1000800501FB12041B3C02D56442012000E069
:100B20000020DFF898A080460027FA44AAF1BE0A08
:100B30000EE0E0070AD03246684607EB4701012382
:100B40000AEB810104F025FA8DE8070064107F1C90
:100B5000002CEED1194F7F44AE3F19E0E80715D0C5
:100B600007EB04100DF1180A90E80E008AE80E0059
:100B7000C068F04201D1981908903246012306A9B5
:100B800003A804F006FA03AB83E807006D10641CA9
:100B9000002DE3D14FF0010332466946B8F1000F52
:100BA00003A802D004F0E0F901E004F0F2F9C9E989
:100BB0000001C9F808200AB0BDE8F087004A00002B
:100BC00000487047E81200207546FFF7F9FFAE466F
:100BD00005006946534620F00700854618B020B549
:100BE000FFF776FBBDE820404FF000064FF000070E
:100BF0004FF000084FF0000BAC46ACE8C009ACE881
:100C0000C009ACE8C009ACE8C00921F007018D4675
:100C1000704710B50446AFF300802046BDE8104091
:100C2000FFF742BB0000000030B44FF0013C50F829
:100C3000042B51F8043BCCFA52F4D51A20D1FCB95C
:100C400050F8042B51F8043BCCFA52F4D51A17D1C2
:100C5000B4B950F8042B51F8043BCCFA52F4D51A2D
:100C60000ED16CB950F8042B51F8043BCCFA52F475
:100C7000D51A05D1002CDAD030BC4FF000007047F7
:100C800029BAB1FA81F111F01801D1F120008440A4
:100C9000F2D1CA40CB4012F0FF0213F0FF0330BC88
:100CA000D01A704701491820ABBEFEE726000200AB
:100CB000704700000146806B036C026C13F0500F0C
:100CC00008D0D20648BF00F051B9806BC26C08460C
:100CD000104700BF42F40071016401688A6812F095
:100CE000405F01D000F030B9027E002AFAD1CA6A12
:100CF00012F4700F02D08A685205F3D44A6822F0C9
:100D000020024A60016C21F480710164016CC90405
:100D100048BF00F019B9016C41F00101016400F015
:100D200013B90000806B40210164416C41F0040163
:100D3000416400F01BB90000806B00F015B90000A1
:100D4000FEE700000146407C00224A747047000024
:100D500010B504460160828083713220A0744FF484
:100D60007A70A08200F0BAFDA0600020208210BD41
:100D7000B0B5044600F0B2FD0546A068A17C281A73
:100D8000884232D32068A188A56000F093FD227CC0
:100D9000032A2AD8A179DFE802F00317071300BF5E
:100DA000884222D101201FE0884213D1E068A18A45
:100DB000281A884238BFB0BD40F203202082B0BD5F
:100DC000884209D102200FE088420CD10220207411
:100DD000E560B0BD032007E0E068A18A281A8842D8
:100DE0003CBF0120607400202074B0BD41F210406F
:100DF000C2F2000000F094BA7047000072B600BF63
:100E0000FEE7000070B581B00022009290F83C200F
:100E1000012A03D1022001B070BD00BFD1F800E06B
:100E20000122BEF10A0F1FFA8EFC80F83C2009D384
:100E30004FEA4C02036812FA8EF2A2F11E0403F18B
:100E40000C0204E003680EEB4E0403F110020725C8
:100E50001668A54026EA050515608D68166805FA2E
:100E600004F4344314604968062907D801EB810172
:100E70004A1F194651F8345F0FE000BF0C2901EBFF
:100E8000810105D8A1F12302194651F8305F04E031
:100E9000A1F14102194651F82C5F1F24944025EA24
:100EA00004040C600CFA02F20C6842F2043CC4F236
:100EB000010C2243ACF54174A3420A603ED1BEF15D
:100EC000120F07D1DCF8001041F48001CCF80010BB
:100ED00034E000BF2EF0010110292FD1DCF8001002
:100EE000BEF1100F41F40001CCF8001026D140F201
:100EF0002401C2F2000109684DF68362C4F21B327C
:100F0000A1FB0212910C01EB8101490000910099B3
:100F1000A1B1009901390091009979B10099013985
:100F20000091009951B1009901390091009929B1BE
:100F300000990139009100990029EAD1002180F837
:100F40003C10002001B070BD006842F20001C4F204
:100F50000101884218BF704741F24830C2F20000D8
:100F600001210170704700007047000070470000C9
:100F7000002804BF0120704710B5016C00293DD046
:100F8000016CC90645D4016C41F202129143023151
:100F900042F204320164C4F20102116821F44031CA
:100FA0001160136890E812102343D0F810E013602A
:100FB0004A68012422F480724A604A68C0F60074CC
:100FC00042EA0E224A604A6822F040724A604A6849
:100FD00042EA0C024A608A6822F400628A60C268AF
:100FE0008B681A438A60826A8B68A24223F070631E
:100FF0008B608B6810D123F0405216E0044600F05D
:1010000065F820460021616484F83C10016CC90633
:10101000B9D5012153E000BF1A438A608A6822F0E3
:1010200040528A60C26A8B681A438A608A6822F0DA
:1010300002028A608A68037E90F8204042EA4302F6
:101040008A604A6884B142F400624A604A684EF29B
:10105000000322F460424A60426ACFF6FF734C6894
:1010600003EB4232224301E022F400624A60CA6A82
:1010700040F2000C22F47002CA62C3694269CFF6E2
:10108000F07CCC6A0CEB03532343CB628B6823F4D4
:1010900000738B6090F830308C6844EA43238B6097
:1010A0008B6823F480638B608B6843EA82228A60BA
:1010B00000214164026C012363F3010202640022F7
:1010C00080F83C20BDE810400846704770B586B0F7
:1010D000044642F200002168C4F201000026814269
:1010E0000596CDE903660296019601D006B070BD63
:1010F00043F630010096C4F202014A6900F56040EF
:1011000042F480724A614A6902F480720092009A45
:1011100000960A6842F001020A60096801F00101C4
:1011200000910099012101910321CDE9021601A945
:1011300000F0F0FA41F2104546F21040C2F200050C
:10114000C4F202004FF48061C5E9000605F1100009
:101150004FF400624FF400534EC04FF40030C5E925
:1011600008062846C5E9026600F0BCF9002818BF49
:10117000FFF744FEA563AC6306B070BDB0B582B0A6
:101180000023019390F83C30012B03D1022002B0E0
:10119000B0BD00BF8E460123016880F83C308B68EB
:1011A0009446DB0729D18B684DF6836443F0010335
:1011B0008B6040F22403C2F200031B68C4F21B34AC
:1011C000A3FB0434A30C03EB43030193019BA3B1E2
:1011D000019B013B0193019B7BB1019B013B01936F
:1011E000019B53B1019B013B0193019B2BB1019BDF
:1011F000013B0193019B002BEAD18B68DB0503D5F2
:101200008B6823F480738B608C68036CE4070BD1CC
:1012100043F01001016400F14401002001220B6839
:101220001A430A6002B0B0BD40F20174A34303F553
:10123000807303644B685B0504D5036C012464F37D
:101240000D330364046C0023E4044FF0000444BF36
:10125000446C24F00604446480F83C30836B40F610
:10126000B54440F63952C0F60004C0F60002C3E9A6
:101270000F4240F62552C0F60002DA646FF02202F7
:101280000A604A6842F2043442F080624A608A6826
:10129000054642F480728A604C31184672466346B5
:1012A000C4F2010400F0D0F922682968D20605D002
:1012B000A4F54172914225D002B0B0BD42F20002C5
:1012C000C4F20102914215D042F20022C4F201029E
:1012D00091420CD042F20012C4F201029142EBD1D1
:1012E0002268D20606D0A4F582729142E4D1226827
:1012F000D206E1D451F8082F12F0405FDCD14FF054
:1013000080428CE74FF60451CFF6FF71615811F01F
:10131000405FD1D1A4F53F714FF080427FE70000DC
:10132000F0B581B00021009140F22401C2F2000129
:101330000B68D0E9166148F2B51537680822C1F686
:101340004E358A403A42A3FB05350CD003681C6831
:10135000640708D51C6824F004041C60B260426D68
:1013600042F00102426501228A403A4208D00368F5
:101370005B691B0604D5B260426D42F00202426511
:1013800004228A403A4208D003681B689B0704D5B0
:10139000B260426D42F00402426510228A403A4235
:1013A00019D001680B681B0715D5B2600B680A6875
:1013B0005B0309D4D20509D40A6822F008020A6046
:1013C000016C29B907E000BF110341D4016C11B1D0
:1013D000044688472046C26D202101FA02F33B42B1
:1013E00043D001680F68FF063FD5B36090F83570B1
:1013F0000B68052F1CD123F016030B604B6923F0FB
:1014000080034B61036C0BB9836C1BB10B6823F039
:1014100008030B603F219140B160012180F8351035
:10142000016D0022002980F8342054D158E000BF1B
:101430000A685B0310D4D20512D40A6822F01002A5
:101440000A60012180F83510002180F8341007E08F
:10145000816C0029BCD1BEE7110301D4416C00E0CE
:10146000C16B11B1044688472046416DC1B3416D3F
:10147000C9072ED0052180F835100168AA0A0B682B
:1014800023F001030B60009B0133934200931AD8B1
:101490000B68DB0717D0009B01339342009312D8EF
:1014A0000B68DB070FD0009B0133934200930AD8EF
:1014B0000B68DB0707D0009B01339342009302D8EF
:1014C0000B68DB07DFD1012180F83510002180F89F
:1014D0003410C16C21B101B0BDE8F040084700BF35
:1014E00001B0F0BD2DE9F041044600F0F7F9ECB190
:1014F0000546022084F835000020216884F8340075
:10150000086820F00100086021680868C00711D051
:1015100000F0E4F9401B0528F6D903252023032019
:10152000636584F83550BDE8F08100BF0120BDE857
:10153000F08100BF086848F23F02CFF21002D4E900
:10154000013500EA020C04F10C0898E8C10143EAF5
:101550000C032B431843D4E9072E30433843104380
:10156000626A40EA0E00042A40EA08031CD1206B9C
:10157000D4E90A2E40EA0E00184308604869BEF11B
:10158000000F20F0030040EA020040F0040C11D0EC
:10159000B8F5005F36D0B8F1000F45D1022A46D029
:1015A000012A3BD032B942E00B60486920F00700C5
:1015B00040EA020C01F0F8004AF6AB221038CAF6F5
:1015C000AA22A0FB02231A0945F63453C1F814C01D
:1015D000C0F600039A5C40F2FF335F284FF03F00F3
:1015E00021EA030100FA02F088BF0431C4E91612AF
:1015F0008860002301250020636584F83550BDE82C
:10160000F08100BF032AD5D8012540230120DFE85F
:1016100002F0030E030500BF82E700BFAEF1C07009
:10162000B0FA80F0400904E0032A04D3C2D1CEF31B
:1016300000600028BED0012540230120636584F8A6
:101640003550BDE8F081000090F834C0BCF1010FC6
:1016500004BF0220704770B54FF0010C80F834C011
:10166000D0F858E090F835C0BCF1010F38D14FF0F8
:10167000020C80F835C04FF0000CC0F854C0D0F810
:1016800000C08468056CC06DDCF80060402C26F456
:101690008026CCF80060CCF804300B4604BF13461B
:1016A0000A463F2101FA00F0CCF80830CCF80C20B3
:1016B000CEF80800DCF8000040F01600CCF800007E
:1016C0002DB1DCF8000040F00800CCF80000DCF898
:1016D000000040F00100CCF80000002070BD00BF09
:1016E000002180F83410022070BD0000B0B504461F
:1016F00000F0F4F8054640F20000C2F20000007865
:10170000611C18BF044400BF00F0E8F8401BA04271
:10171000FAD3B0BD2DE9F04F83B000F1200200F103
:101720003E4741F60045009207F1FF77C4F20205FB
:1017300008224FEAB726A84208BF072200254FF02B
:1017400000084FF00009072E38BF4FEAB722019278
:101750000AE000BF09F1010908F10208B9F1100F10
:1017600005F1040500F0A2800F68012202FA09FECB
:1017700017EA0E0AEED0D1F804C003220CF00307DA
:101780007E1E02FA08F4012E6FEA040B12D8846858
:10179000CE6804EA0B0406FA08F634438460446811
:1017A00024EA0E06CCF3001404FA09F4264346603A
:1017B00004E000BF032F01D103271EE0C6688C6838
:1017C00006EA0B0604FA08F42643022FC66014D179
:1017D0006FF00302009E02EA590756F807C005F0B1
:1017E0001C040F220B69A2402CEA0202A3401A43F8
:1017F000F251D1F804C00CF00307026807FA08F3AD
:1018000002EA0B021A431CF4403F0260A2D00022FD
:1018100043F644030292C4F202031A6843F60044FA
:1018200042F480421A601A68C4F2010402F4804251
:101830000292029A29F003024FF6084C2244CFF696
:10184000FF7C52F80C3005F00C070F26BE40B34366
:10185000019E06FA07F73B4342F80C30A2684B683A
:1018600042EA0A0743F60C4CDE0258BF22EA0A0796
:10187000A760C4F2010CDCF800209E0242EA0A07CD
:1018800058BF22EA0A07CCF8007062689E0342EA59
:101890000A0758BF22EA0A0767602268DB0342EAA8
:1018A0000A0758BF22EA0A07276053E703B0BDE8DA
:1018B000F08F00000069084018BF01207047000049
:1018C000426902EA0103914341EA034181617047A1
:1018D000002A08BF090481617047000041F29C5052
:1018E000C2F2000000687047002804BF0120704762
:1018F000F0B581B0044690F83D0028B9002084F886
:101900003C00204600F050F9242084F83D00206877
:10191000016821F001010160016841F400410160AA
:10192000016821F40041016000F0E2FA636848F2C6
:10193000A16CC0F2010C40F60011C0F23D016345FC
:101940003CBF48F28041C0F21E01884202D2012011
:1019500001B0F0BD4DF68361C4F21B31A0FB011252
:101960002168970CD1F804E04FF496762EF03F05ED
:1019700045EA92454D60774348F638160D6AC0F245
:101980004106A7FB067625F03F07634538BF960C56
:10199000721C3A430A62CA6948F2A0664CF6FF77A5
:1019A000C0F20106B34222EA07020BD801385B00FD
:1019B000B0FBF3F001306FF31F30042898BF042010
:1019C0001BE000BFA768013857B119277B43B0FB64
:1019D000F3F001306FF31F3070B100F5804007E085
:1019E00003EB4303B0FBF3F001306FF31F3018B18A
:1019F00000F5004001E000BF01201043C861086805
:101A0000D4E9072320F0C000104318430860886819
:101A100048F2FF3204F10C0790438CCF1843104377
:101A2000A6698860C86820F0FF0038433043C8606A
:101A3000086840F00100086000202021206484F83C
:101A40003D10206384F83E0001B0F0BD2DE9F04365
:101A500083B0994616460F460446FFF73FFF94F8B9
:101A60003D10202924D10546206800BF81698907DF
:101A70001AD5FFF733FF411B20681A29F6D3816975
:101A80008907F3D500202021206384F83D1084F8D5
:101A90003E00216C41F02001216484F83C000220CA
:101AA00003B0BDE8F08300BF94F83C10012903D1D6
:101AB000022003B0BDE8F083012284F83C200368D3
:101AC000DDE90B180A9ADB0703D1036843F0010331
:101AD0000360036823F400630360212084F83D0061
:101AE000402084F83E000020206462626185608DA1
:101AF000394620850020CFF6FF70E062204632464E
:101B00004B46CDE9008501F0DDFA18B1012003B0A4
:101B1000BDE8F083208D98B9204641462A4601F061
:101B200035FB88B3206C0428F0D12068016841F4AB
:101B300000710160012003B0BDE8F0830004EBD028
:101B4000204641462A4601F0D1FC0028EAD1616ACC
:101B50002268084610F8013B1361238D6062581E0D
:101B60002085678D013F678557697F07E6D50704A4
:101B7000E4D048781061881C6062981E2085618DD1
:101B800001396185DAE700BF2068016841F400711E
:101B90000160202084F83D00002084F83E0084F895
:101BA0003C0003B0BDE8F083B0B586B045F200411B
:101BB0000068C4F20001002488420594CDE9034482
:101BC0000294019402D006B0B0BD00BF43F63005C8
:101BD0000094C4F20205286840F0020028602868DA
:101BE00000F0020000900098C02001901220CDE982
:101BF0000204032004900420059001F5D83001A9C7
:101C0000FFF788FD0094286940F4001028612869D6
:101C100000F400100090009806B0B0BD40F2000043
:101C200041F29C51C2F20000C2F2000100780A6841
:101C3000104408607047000080B543F60040C4F2CD
:101C40000200016841F400710160016841F48061A3
:101C50000160016841F480710160032000F086F8A2
:101C60000F2000F005F800F027F8002080BD0000EC
:101C700070B540F20006C2F2000640F2240132784C
:101C8000C2F200014FF47A730968B3FBF2F2044622
:101C9000B1FBF2F1084600F05FFB0F2C4FF001059D
:101CA00008D838B94FF0FF3021460022002500F057
:101CB00031F87460284670BD82B0002043F64001C0
:101CC0000190C4F202014A6842F480424A604A68C4
:101CD00002F480420192019A0090086840F080501E
:101CE0000860086800F080500090009802B07047CB
:101CF000002848BF704700F01F01012202FA01F1DD
:101D00001C2202EAD0004EF20012CEF200028150F4
:101D10007047000010B54EF60C5CCEF2000CDCF8FB
:101D20000030C3F3022E8EF00704042C28BF0424D5
:101D3000BEF103034FF0FF3E0EFA04F438BF002358
:101D4000A14399400EFA03F39A43114300F00F02A6
:101D500000F160430901043A03F56443624400283A
:101D600048BF02F10C03197010BD00004EF60C5173
:101D7000CEF200010A684FF6FF031A4060F30A2210
:101D800042F0806040F0FD7008607047002804BF9A
:101D9000012070472DE9F04143F60808C4F202081B
:101DA0000446D8F8F8030D4600F00700884207D231
:101DB00088F8F853D8F8F80300F00700A84277D164
:101DC0002068810717D5410705D5D8F8001041F4E0
:101DD000E051C8F80010010705D5D8F8001041F40B
:101DE0006041C8F80010D8F80010A26821F0F00196
:101DF0001143C8F80010C00740D1D8F8F80300F02C
:101E00000700A84207D988F8F853D8F8F80300F07B
:101E10000700A8424CD12068410707D5D8F8001028
:101E2000E26821F4E0511143C8F80010000708D51A
:101E3000D8F80000216920F4604040EAC100C8F8E9
:101E4000000000F07DF8D8F8001045F20452C1F30C
:101E50000311C0F60002515C40F2240220FA01F1A5
:101E600040F20400C2F200000068C2F200021160F9
:101E7000FFF7FEFE0020BDE8F08100BF6068811E14
:101E8000022907D258F8081C89015CBF0120BDE86F
:101E9000F08111E0012807D158F8081C89035CBFC4
:101EA0000120BDE8F08107E058F8081C890703D439
:101EB0000120BDE8F08100BFD8F8001021F0030137
:101EC0000843C8F80000FFF709FD064641F28837CD
:101ED000D8F80000616800F00C00B0EB810F8CD0E6
:101EE000FFF7FCFC801BB842F2D90320BDE8F0816B
:101EF00040F2240043F60801C2F20000C4F20201DD
:101F00000068096845F21452C1F38221C0F600024C
:101F1000515CC8407047000040F2240043F60801BD
:101F2000C2F20000C4F202010068096845F21452CE
:101F3000C1F34231C0F60002515CC8407047000056
:101F400010B543F60404C4F20204606800F00C010A
:101F500042F200400829C0F2F40007D0042918BF5B
:101F600010BD41F20020C0F27A0010BD216801F0DE
:101F70003F02216823684902C3F3881106D4A1FBFC
:101F800000010023FEF7B6F907E000BF41F2002090
:101F9000C0F27A004843B0FBF2F021680222C1F39C
:101FA000014102EB4101B0FBF1F010BD002804BF7C
:101FB000012070472DE9F04182B00446007843F6D5
:101FC0000006C007C4F202060CD0B06800F00C0096
:101FD000042840F081803068800303D560680028C1
:101FE00000F06881207880071BD5B06810F00C0FD6
:101FF00009D0B06800F00C00082840F087807068B5
:10200000400200F183803068800703D5E068012832
:1020100040F050813068216920F0F80040EAC100AA
:1020200030602078000713D4207840072AD4A569AF
:10203000002D00F03A81B06800F00C00082840F054
:10204000A580012D40F00E81012002B0BDE8F08195
:102050006069002800F082800020C4F2472001213E
:10206000C0F8801EFFF73AFC054600BF706F80077E
:10207000DAD4FFF733FC401B0228F7D9032002B063
:10208000BDE8F081306C5FEAC0080AD400200190FE
:10209000306C40F080503064306C00F08050019023
:1020A000019847F20007C4F200073868C00547D41A
:1020B000386840F480703860FFF710FC054600BFB8
:1020C0003868C0053CD4FFF709FC401B0228F7D94B
:1020D000032002B0BDE8F081B06800F00C000828D1
:1020E00003D1706840023FF576AF61683068B1F5A2
:1020F000803F07D0B1F5A02F40F09A8040F48020B7
:102100003060306840F4803030609AE0E068002849
:1021100040F20000C4F247205CD001210160FFF7CB
:10212000DDFB0546306880073FF574AFFFF7D6FB4F
:10213000401B0228F6D9032002B0BDE8F08100BFA1
:10214000A168306F012905D0052955D140F0040060
:102150003067306F40F00100306756E00020C4F275
:1021600047200021C0F8801EFFF7B8FB054600BFDE
:10217000706F80077FF558AFFFF7B0FB401B022858
:10218000F6D9032002B0BDE8F08100BF0027C4F2F9
:10219000472700203866FFF7A1FB022D05460DD129
:1021A0003068800140F18A80FFF798FB401B0228CD
:1021B0004FF00300F4D902B0BDE8F081306880012F
:1021C00073D5FFF78BFB401B02284FF00300F5D9B6
:1021D000F1E700BF00210160FFF780FB054600BF6B
:1021E000306880077FF51DAFFFF778FB401B0228A2
:1021F0004FF00300F4D9DEE720F001003067306FC4
:10220000002920F0040030677AD0FFF767FB05460D
:1022100041F28837306F800700F18480FFF75EFB62
:10222000401BB842F6D9032002B0BDE8F08100BFE0
:1022300020F4803030603068002920F48020306045
:102240007AD0FFF74BFB0546306880033FF5CAAEF6
:10225000FFF744FB401B6428F6D9032002B0BDE819
:10226000F08100BF7068E16900F480028A4221D1E8
:10227000216A00F03F028A421CD147F6C071626AAF
:102280000140B1EB821F15D1A16A4FF6FF73C9035C
:10229000994300F44032A1F580318A420AD1E16AC3
:1022A00000F07060B0EB016F04D1002002B0BDE817
:1022B000F08100BF012002B0BDE8F08104F11C05EF
:1022C0002FCD084340EA8210D9034FF6FF729143A5
:1022D000A1F5803140EA056008437060012038664E
:1022E000FFF7FCFA044600BF30688001DDD4FFF739
:1022F000F5FA001B02284FF00300F5D95BE700BF99
:10230000FFF7ECFA054641F2883700BF306F8007CF
:1023100008D5FFF7E3FA401BB8424FF00300F5D9A8
:1023200049E700BFB8F1000F3FF581AE306C20F0F7
:10233000805030647BE600BFFFF7D0FA054600BF4F
:10234000306880037FF54EAEFFF7C8FA401B642863
:102350004FF00300F4D92EE7411E0020B0EB116FBF
:102360001CBF012070474EF21002CEF200025160F5
:102370004EF62351CEF20001F0230B70072190603E
:1023800011607047704700007047000090F83C20D3
:10239000012A04BF02207047B0B501F108053CCD09
:1023A000D1E900CE23F47C5322F470521A432EF468
:1023B000F0431A432CF4E0431A4324F4C0431A4375
:1023C0002A43C96922F480420368114359640021F9
:1023D00080F83C100020B0BD90F83C20012A4FF05E
:1023E000020254D010B580F83D200268D2F804E013
:1023F000D2F808C00C682EF07003234341F2FF743A
:10240000C4F20004A24253600EDC40F2FF73C4F237
:1024100000039A4216DCB2F1804F2BD040F2004309
:10242000C4F2000324E000BF40F2FF33C4F2010312
:102430009A4213DC41F60003C4F200039A4219D019
:10244000002313E040F60003C4F200039A4211D0C7
:1024500040F60043C4F200030AE000BF44F2000368
:10246000C4F201039A4205D040F20043C4F20103D2
:102470009A4204D149682CF08003194391600121EC
:10248000002280F83D1080F83C20BDE81040104646
:1024900070470000C1B1042908D0082914BF4522A3
:1024A0004422825C012A05D016E000BF4322825CF0
:1024B000012A11D10222082910D0042914BF80F862
:1024C000452080F843200BE090F84220012A03D1F8
:1024D000022280F8422003E00120704780F8442067
:1024E000006801F00F010422036A02FA01F123EAF5
:1024F00001020262026A11430162416C41F2FF7201
:10250000C4F2000241F40041904241640EDC40F20A
:10251000FF71C4F20001884216DCB0F1804F2BD06D
:1025200040F20041C4F2000124E000BF40F2FF315C
:10253000C4F20101884213DC41F60001C4F200013B
:10254000884219D0002113E040F60001C4F20001D6
:10255000884211D040F60041C4F200010AE000BFF9
:1025600044F20001C4F20101884205D040F200416A
:10257000C4F20101884206D1816801F007010629F1
:1025800004BF00207047016841F001010160002094
:1025900070470000002804BF0120704710B50446B2
:1025A00090F83D0028B9002084F83C00204600F057
:1025B0001FF8022084F83D002068211D01F0C0FCB6
:1025C000012084F8460084F83E0084F83F0084F837
:1025D000400084F8410084F8420084F8430084F805
:1025E000440084F8450084F83D00002010BD000040
:1025F00010B582B0006840F20041C4F20101884287
:1026000016D040F60041C4F2000188422CD10020CF
:10261000019043F64000C4F202000168322441F008
:1026200008010160006800F00800019001980FE0C7
:102630000020009043F64000C4F2020041682C24C0
:1026400041F002014160406800F0020000900098F3
:10265000204600210022FFF75DFB204602B0BDE8C6
:102660001040FFF745BB00BF02B010BD90F83D1011
:1026700001291CBF01207047022180F83D1000682D
:1026800041F2FF72C168C4F20002904241F00101C0
:10269000C1600DDC40F2FF71C4F20001884215DC1C
:1026A000B0F1804F2AD040F20041C4F2000123E093
:1026B00040F2FF31C4F20101884213DC41F600010F
:1026C000C4F20001884219D0002113E040F6000155
:1026D000C4F20001884211D040F60041C4F200016A
:1026E0000AE000BF44F20001C4F20101884205D0B3
:1026F00040F20041C4F20101884206D1816801F034
:102700000701062904BF00207047016841F001015C
:10271000016000207047000090F83C20012A4FF033
:1027200002026CD080B580F83D20D0F800C04FF692
:102730007772DCF8083023EA0202CCF808200B6834
:102740004F2B29DC1F2B45DD202B46D0302B44D0CE
:10275000402B40F0AF80D1F804E0C968DCF82030AD
:10276000DCF8202022F00102CCF82020DCF8182030
:1027700022F0F00242EA011123F00A0242EA0E02BC
:10278000CCF81810CCF82020DCF8081041F04701F4
:1027900021F0300128E000BF6F2B33DDB3F5005F7F
:1027A00074D0B3F5805F21D0702B40F08380D1E9E5
:1027B00001E3C968DCF8082043EA0E0322F47F42F3
:1027C00043EA01211143CCF80810DCF8081041F06D
:1027D000770109E00BB1102B6CD1DCF8081021F067
:1027E0007001194341F00701CCF8081000220121C3
:1027F00080F83D10002180F83C10BDE88040104674
:10280000704700BF502B21D0602B53D1D1F804E08A
:10281000C968DCF82030DCF8202022F01002CCF867
:102820002020DCF8182022F4704242EA013123F023
:10283000A00242EA0E12CCF81810CCF82020DCF8E6
:10284000081041F0670121F01001CDE7D1F804E054
:10285000C968DCF82030DCF8202022F00102CCF836
:102860002020DCF8182022F0F00242EA011123F0C7
:102870000A0242EA0E02CCF81810CCF82020DCF84C
:10288000081041F0570121F02001ADE7D1E901E343
:10289000C968DCF8082043EA0E0322F47F4243EAC9
:1028A00001211143CCF80810DCF8081041F48041F4
:1028B0009AE700BF01229AE77047000070B504460E
:1028C0000068C5680669B10716D515F0020113D076
:1028D0006FF002010161012121778069800703D037
:1028E0002046FFF7E9FF05E0204600F0EDF820461E
:1028F00000F02CFA00202077700719D515F004009D
:1029000016D020686FF004010161022121778069EF
:1029100010F4407F04D02046FFF7CEFF06E000BF52
:10292000204600F0D1F8204600F010FA0020207771
:10293000300717D515F0080014D020686FF0080193
:10294000016104212177C069800703D02046FFF789
:10295000B3FF05E0204600F0B7F8204600F0F6F996
:1029600000202077F00619D515F0100016D0206849
:102970006FF01001016108212177C06910F4407FD8
:1029800004D02046FFF798FF06E000BF204600F085
:102990009BF8204600F0DAF900202077F00718BFF6
:1029A00015F0010002D1300609D412E020686FF062
:1029B00001010161204600F053FA300609D515F0F7
:1029C000800006D020686FF0800101612046FFF78B
:1029D000D9FC700609D515F0400006D020686FF0CC
:1029E00040010161204600F0FDFAB00658BF70BDFD
:1029F00015F0200008D021686FF0200220460A61FF
:102A0000BDE87040FFF7C0BC70BD00002DE9F0418B
:102A100086B040F200450068C4F201050026A842D5
:102A20000596CDE903660296019603D006B0BDE88F
:102A3000F08100BF43F630000096C4F20200016846
:102A400001AC41F00101016001684FF0020801F0A2
:102A500001010091009900960168032741F00201ED
:102A60000160016801F0020100910099009601687F
:102A700041F0040101600068214600F0040000906C
:102A800000982020019005F57C40CDE9028604964F
:102A90000597FEF73FFE05F580302146CDE9017828
:102AA000CDE903660597FEF735FE4FF4E070CDE9FA
:102AB000010805F582302146CDE903660597FEF74A
:102AC00029FE06B0BDE8F0817047000090F83C3068
:102AD000012B04BF022070474FEAB202032A00F222
:102AE000FF802DE9F043DFE802F003B13F7F00BF34
:102AF000036840F200461C6A1A6A24F0020422F0BD
:102B000001021A621A46D3F804C052F818EF8F680F
:102B100043F48065C4F20106B54244EA070405D1D6
:102B2000CF6824F00C0427F004073C430F68B5423B
:102B300006D1D1E905582CF440762E4346EA080C1C
:102B40002EF073063743C3F804C09F614F680969CC
:102B50005F631C629F6947F008079F619F6927F0C8
:102B600004079F61B1E000BF036840F200481C6A9F
:102B70001A6A24F4007422F480721A621A46D3F896
:102B800004C052F81CEF8F6843F48065C4F201085A
:102B9000454544EA072408D1CF6840F2FF463F028A
:102BA00024F4406427EA06063443D1F800904545F2
:102BB00006D1D1E905562CF440572E4347EA061CAE
:102BC0002EF0730747EA0907C3F804C0DF614F68B6
:102BD0000969DF631C62DF6947F00807DF61DF69AD
:102BE00027F00407DF6170E0036840F20045D3F886
:102BF00020C01A6A43F4806722F480521A621A468F
:102C00005C6852F81C8FD1F800E08E68C4F20105B0
:102C1000AF4204D14D6924F4804444EA85142CF475
:102C2000005747EA063728F4E64646EA0E265C6077
:102C3000DE614E6809691E641F62DF6947F4006740
:102C4000DF61DF6927F48067DF613DE0036840F200
:102C500000481C6A1A6A24F0200422F010021A624A
:102C60001A46D3F804C052F818EF8F6843F4806511
:102C7000C4F20108454544EA071407D1CF686FF054
:102C8000400624F0C00406EA07163443D1F8009049
:102C9000454506D1D1E905562CF440672E4347EA55
:102CA000860C2EF4E64747EA0927C3F804C09F6163
:102CB0004F6809699F631C629F6947F400679F61C1
:102CC0009F6927F480679F610902136819431160A7
:102CD0000021BDE8F043002280F83C200846704700
:102CE0000121002280F83C2008467047002804BFDC
:102CF0000120704710B5044690F83D0028B9002027
:102D000084F83C00204600F01FF8022084F83D00C3
:102D10002068211D01F014F9012084F8460084F890
:102D20003E0084F83F0084F8400084F8410084F8B5
:102D3000420084F8430084F8440084F8450084F895
:102D40003D00002010BD00007047000070470000EB
:102D5000C1B1042908D0082914BF41224022825C55
:102D6000012A05D016E000BF3F22825C012A11D162
:102D70000222082910D0042914BF80F8412080F8CD
:102D80003F200BE090F83E20012A03D1022280F878
:102D90003E2003E00120704780F84020006801F0E9
:102DA0001F010122036A02FA01F123EA0102026211
:102DB000026A114341F2FF72C4F2000290420162C2
:102DC0000CDC40F2FF71C4F20001884214DCB0F167
:102DD000804F37D040F2004116E000BF40F2FF3193
:102DE000C4F20101884215DC41F60001C4F2000181
:102DF000884227D0002115E040F60001C4F200010E
:102E000088421FD040F60041C4F20001884219D028
:102E10001FE000BF44F20001C4F20101884211D05A
:102E200040F20041C4F20101884212D1416C40F2EB
:102E3000004340F48062C4F2010341F400419A422D
:102E4000416406D1816801F00701062904BF002012
:102E50007047016841F001010160002070470000E7
:102E6000B0B540F600450446C4F20005006805F51B
:102E70007841884205D105F5FA300221FEF720FDA0
:102E80002068A84218BFB0BD41F2C430C2F20000B1
:102E900090ED000A9FED4E2A9FED4F1A30EE020A88
:102EA000B4EE410AF1EE10FA80ED000A02DD9FED6A
:102EB000491A04E0B5EE400AF1EE10FA03DA30EEFA
:102EC000010A80ED000A9FED441A80EE010A9FED91
:102ED000431A20EE010A02F0ABF9BDEEC00A10EE73
:102EE000104A43F6072104F1C800C0F26D01A0FBAF
:102EF000012304F5C87540F2280CA5FB0112C2F2AB
:102F0000000C0CEB840191ED000A4FF4167103FBE9
:102F1000110302FB115041F2A051C2F2000140F630
:102F20008812B8EEC00AB1EE081A01F63C11C2F2DE
:102F3000000280EE010A91ED002A02EB840191ED7E
:102F4000003A0CEB830191ED004A0CEB8001B8EEE6
:102F5000C44A84EE014A91ED005AB8EEC33AB8EE85
:102F6000C55A85EE011A02EB830130EE030A9FED8C
:102F70001C3A22EE000A30EE030A91ED005ABDEE33
:102F8000C00A10EE101AB8EEC50A34EE000A22EE9E
:102F9000000A02EB800030EE030A90ED004ABDEE1D
:102FA000C00A10EE100AB8EEC40A31EE000A22EE92
:102FB000000A41F20C5230EE030AC2F20002BDEEEA
:102FC000C00A126810EE103A51639063D363B0BD2B
:102FD000FCAD003DDA0FC9C0DA0FC940000016444D
:102FE0000000FA4370470000002804BF012070472A
:102FF00010B5044690F8410028B9002084F840003C
:10300000204600F021F8242084F841002068C1689F
:1030100021F40051C160204601F030F820680169B8
:1030200021F490410161416921F02A014161C168A7
:1030300041F40051C16000202021606484F84110F7
:1030400084F84210606310BD80B586B041F2000183
:103050000068C4F20101002288420592CDE90322F2
:103060000292019202D006B080BD00BF43F630004C
:103070000092C4F20200436943F0100343614369C4
:1030800003F010030093009B0092036843F00103D8
:103090000360006800F00100009000984FF4C060E9
:1030A00001900220CDE90202032004900720059040
:1030B00001F5704001A9FEF72DFB06B080BD0000B0
:1030C000FEE700002DE9F04383B0044600680F4698
:1030D00001680A9D0B9E41F48071994690460160FB
:1030E00020464FF0011100222B46009600F0ACF86C
:1030F00050B120680068C00544BF4FF400702064E0
:10310000032003B0BDE8F083206807F0FE010161F1
:103110000221C0F2010120462A46334600F07AF926
:1031200020B1012003B0BDE8F08300BF0020029071
:1031300020683246416902918069294602900298CE
:10314000204600F0D3F958B1206C0428E9D120685A
:10315000016841F400710160012003B0BDE8F08313
:103160002068B9F1010F0AD04FEA18210161204609
:103170002946324600F0BAF90028E5D120685FFA06
:1031800088F10161002003B0BDE8F08370B50368E9
:10319000044653F8140F400711D40E46481C29D09A
:1031A00086BB00BF1868400527D4FEF797FB23684D
:1031B00053F8140F400737D518684007F2D50020A0
:1031C00070BD00BF18684007F9D41868400514D4D2
:1031D00018684007F3D4186840050ED418684007F3
:1031E000EDD41868400508D4186840074FF0000077
:1031F00048BF70BD18684005E4D56FF48060186062
:10320000042012E0154603E053F8140F4007D6D40B
:1032100018684005F1D4FEF761FB401B2368B042FB
:10322000F2D958694007EFD42020002120222163E1
:1032300084F83D2084F83E10226C10432064012065
:1032400084F83C1070BD00002DE9F041054600688F
:103250001E46144601F47F0201338FB242D0DDF8DE
:103260001880B2F5803F40F0878040693840C01B2D
:10327000B0FA80F04009A04240F0C8804EB924E086
:1032800040693840C01BB0FA80F04009A04240F0CD
:10329000BD80FEF723FBA0EB08012868B142EFD9FF
:1032A00041693940C91BB1FA81F14909A142E7D10D
:1032B0009BE000BF40693840C01BB0FA80F0400975
:1032C000A0424FF0000040F0A280FEF707FB286804
:1032D00041693940C91BB1FA81F14909A142E9D1DB
:1032E00083E000BFB2F5803F24D100BF416939407F
:1032F000C91BB1FA81F14909A14240F087804169B7
:103300003940C91BB1FA81F14909A14240F07E80E0
:1033100041693940C91BB1FA81F14909A14275D10E
:1033200041693940C91BB1FA81F14909A142DDD097
:103330006CE000BF81693940C91BB1FA81F14909CC
:10334000A14263D181693940C91BB1FA81F14909B0
:10335000A1425BD181693940C91BB1FA81F14909A8
:10336000A14253D181693940C91BB1FA81F14909A0
:10337000A142DFD04AE000BF80693840C01BB0FAEC
:1033800080F04009A04241D146B923E0806938402D
:10339000C01BB0FA80F04009A04237D1FEF79EFA78
:1033A000A0EB08012868B142F0D981693940C91BF6
:1033B000B1FA81F14909A142E8D116E080693840AB
:1033C000C01BB0FA80F04009A0424FF0000018BFC7
:1033D000BDE8F081FEF782FA286881693940C91B8F
:1033E000B1FA81F14909A142E8D1002020212863E6
:1033F00085F83D1085F83E00296C41F020012964D4
:1034000085F83C000120BDE8F08100BF0020BDE848
:10341000F0810000F0B581B0044600681D464369A4
:103420008FB203EA0701B94202D1002001B0F0BD1A
:103430004169164601323CD0490512D47EB300BF23
:10344000FEF74CFA411B2068B14203D9416939406B
:10345000B9422BD141693940B942E6D041694905A9
:10346000EED5016841F4007101606FF48061416143
:10347000042000212022216384F83D2084F83E109E
:10348000226C1043206484F83C10012001B0F0BD90
:1034900041693940B942C8D041694905E1D4FEF7D4
:1034A0001DFA206841693940B942F1D02020E0E797
:1034B00041694905D5D441693940B942B5D041691E
:1034C0004905CED441693940B942AED04169490578
:1034D000C7D441693940B942A7D041694905C0D430
:1034E00041693940B942E3D19FE7000070B50368F4
:1034F000044653F8140F000611D40E46481C29D078
:1035000086BB00BF1868400527D4FEF7E7F923689B
:1035100053F8140F000637D518680006F2D50020BE
:1035200070BD00BF18680006F9D41868400514D4AF
:1035300018680006F3D4186840050ED41868000611
:10354000EDD41868400508D4186800064FF0000054
:1035500048BF70BD18684005E4D56FF480601860FE
:10356000042012E0154603E053F8140F0006D6D4E9
:1035700018684005F1D4FEF7B1F9401B2368B0424A
:10358000F2D958690006EFD42020002120222163BF
:1035900084F83D2084F83E10226C10432064012002
:1035A00084F83C1070BD0000B0B584B041F2C83062
:1035B000C2F2000042F200014FF080534FF060650C
:1035C0000024C4F20101C0E90A53012503944FF419
:1035D0008032047680F82040C56180F8304080E871
:1035E0001600C0E903444561FDF7C2FC002818BF7E
:1035F000FDF704FC41F2C830C2F200006946CDE993
:1036000000450294FDF7FEFB002818BFFDF7F6FB0E
:1036100004B0B0BD80B582B00020019043F6300008
:10362000C4F202000168002241F4800101600068D8
:10363000002100F48000019001983820FEF76AFB19
:10364000382002B0BDE88040FEF752BB2DE9F041C2
:1036500086B0002643F630000596CDE90366CDE935
:1036600001660096C4F20200016840F2004441F095
:10367000100101600168C4F2020401F01001009120
:10368000009900960168012241F080010160016803
:103690004FF0040801F08001009100990096016844
:1036A000012741F001010160016801F00101009171
:1036B00000990096016841F002010160016801F083
:1036C0000201009100990096016841F00401016037
:1036D0000068042100F00400009000982046FEF7E6
:1036E000F7F80F2001A901ADC1C104F540602946DA
:1036F000FEF710F820462946CDE90187CDE903669B
:10370000FEF708F806B0BDE8F081000080B541F290
:10371000704045F20041C2F20000C4F2000148F2DC
:10372000A06200234FF4804CC0F2010280E80E003A
:10373000C0E9033CC0E90533C0E90733FEF7D4F81C
:10374000002808BF80BDBDE88040FDF757BB0000E2
:1037500080B586B041F2C44040F600420021C2F27A
:103760000000C4F2000253234FF0630C0591CDE931
:103770000311CDE90011C0E90023C0E9021C016179
:103780008161FEF707FF002818BFFDF737FB4FF4F4
:103790008050029041F2C440C2F2000002A9FEF73C
:1037A000BBFF002818BFFDF729FB41F2C440C2F25D
:1037B00000006946FEF710FE002818BFFDF71EFB4B
:1037C00006B080BD10B596B041F20C5040F20042F8
:1037D0000021C2F20000C4F201024FF0010E159167
:1037E000CDE913111191CDE90F11CDE90D11CDE9FD
:1037F0000B11CDE90911CDE90711CDE90511CDE98D
:103800000311CDE901110323402440F2E73C80E895
:103810001C10C0E9041E8161FEF7BCFE002818BF21
:10382000FDF7ECFA4FF48050129041F20C50C2F2C6
:10383000000012A9FEF770FF002818BFFDF7DEFA9E
:1038400041F20C50C2F20000FFF750FA002818BFF6
:10385000FDF7D4FA2020109041F20C500024C2F25F
:10386000000010A91194FEF7B7FD002818BFFDF75E
:10387000C5FA602009904FF4FA70CDE90A0441F2CC
:103880000C50C2F2000009A90022CDE90C44CDE998
:103890000E44FFF71BF9002818BFFDF7AFFA41F2FD
:1038A0000C50C2F2000009A90422FFF70FF900280A
:1038B00018BFFDF7A3FA41F20C50C2F2000009A9AB
:1038C0000822FFF703F9002818BFFDF797FA002038
:1038D0005421CDE901000390CDE904104FF40051CB
:1038E000089041F20C500691C2F2000001A9FEF7C7
:1038F0004DFD002818BFFDF781FA41F20C50C2F2CD
:103900000000FFF783F816B010BD000080B541F24B
:10391000545041F20001C2F20000C4F20101002340
:103920004FF00C0C4FF4E13280E80E00C0E9033395
:10393000C0E905C3C361FFF757FB002808BF80BD7E
:10394000BDE88040FDF75ABAFEE70000FEE7000040
:103950002DE9F04F85B041F2704400254FF4807698
:103960000127C2F200040DF1120B0DF113084FF004
:10397000000900BF49F0B0008DF8100004A8CDE99F
:10398000000720467821002201230296FEF75EF808
:103990000DF11100CDE90007204678210022012316
:1039A0008DF811500296FEF751F810208DF8120094
:1039B0002046782100220123CDE900B70296FEF7C8
:1039C00045F84FF0000A00BF20467821402201232D
:1039D0008DF81350CDE900870296FEF737F80AF10B
:1039E00001004FFA80FABAF1FF3FEDDCB9F1070FA1
:1039F00009F10109BED305B0BDE8F08F70B584B000
:103A00008D2041F270448DF80D0001260DF10D005E
:103A1000C2F200044FF48075CDE9000620467821FB
:103A2000002201230295FEF711F814208DF80E00F4
:103A30000DF10E00CDE90006204678210022012379
:103A40000295FEF703F8AF208DF80F000DF10F007F
:103A5000CDE9000620467821002201230295FDF7DA
:103A6000F5FF04B070BD000080B5C820FDF73EFE34
:103A7000BDE8804000F078BB2DE9F04F89B047B237
:103A8000C0F3C010203A01EB400427EAE771102789
:103A9000A4F1500047EA111601F00F05102BD7B220
:103AA00040F0308141F2704B8DF818004FF0010862
:103AB00006A8C2F2000B4FF4807CCDE900085846FE
:103AC000782100220123CDF808C00594FDF7BEFF40
:103AD0000DF11900CDE90008584678210022012394
:103AE0004FF480748DF819600294FDF7AFFF0DF16B
:103AF0001A00CDE9000858467821002201238DF8EC
:103B00001A5002944FF48074FDF7A0FF45F24471FF
:103B10003801C0F60001085C01EB07178DF81B00A7
:103B200004950DF11B055846782140220123CDE96B
:103B300000580294FDF78AFF787897F8029097F87A
:103B400003A003963E798DF81B0058467821402249
:103B50000123CDE900580294FDF778FF58467821FB
:103B6000402201238DF81B90CDE900580294FDF707
:103B70006DFF58467821402201238DF81BA0CDE926
:103B800000580294FDF762FF584678214022012335
:103B90008DF81B60CDE900580294FDF757FF787946
:103BA00078218DF81B00584640220123CDE90058AA
:103BB0000294FDF74BFFB87978218DF81B00584629
:103BC00040220123CDE900580294FDF73FFFF87928
:103BD00078218DF81B00584640220123CDE900587A
:103BE0000294FDF733FF059878214F388DF81C00BB
:103BF00007A8CDE900085846002201230294FDF7EA
:103C000025FF039878218DF81D000DF11D00CDE9E9
:103C100000085846002201230294FDF717FF04987C
:103C200078218DF81E000DF11E00CDE900085846E0
:103C3000002201230294FDF709FF387A0DF11F05D8
:103C40008DF81F005846782140220123CDE9005805
:103C50000294FDF7FBFE787A78218DF81F00584614
:103C600040220123CDE900580294FDF7EFFEB87A17
:103C700078218DF81F00584640220123CDE90058D5
:103C80000294FDF7E3FEF87A78218DF81F0058467C
:103C900040220123CDE900580294FDF7D7FE387B7E
:103CA00078218DF81F00584640220123CDE90058A5
:103CB0000294FDF7CBFE787B78218DF81F005846E3
:103CC00040220123CDE900580294FDF7BFFEB87BE6
:103CD00078218DF81F00584640220123CDE9005875
:103CE0000294FDF7B3FEF87BCDE900588DF81F0074
:103CF00058467821402201230294FDF7A7FE09B01F
:103D0000BDE8F08F41F2704B8DF820004FF00109B3
:103D100008A8C2F2000B4FF4807ACDE9000958469A
:103D2000782100220123CDF808A0FDF78FFE0DF1C8
:103D30002100CDE9000958467821002201238DF8A1
:103D40002160CDF808A0FDF781FE0DF12200CDE93C
:103D5000000958467821002201238DF82250CDF821
:103D600008A0FDF773FE45F21C5107EB4700C0F6B3
:103D7000000111F8102001EB40078DF823200DF110
:103D800023055846782140220123CDE90059CDF87A
:103D900008A0FDF75BFE7878BE78FC7897F8048081
:103DA0008DF823005846782140220123CDE900599F
:103DB000CDF808A0FDF74AFE58467821402201239D
:103DC0008DF82360CDE90059CDF808A0FDF73EFE3F
:103DD00058467821402201238DF82340CDE900592F
:103DE000CDF808A0FDF732FE584678214022012385
:103DF0008DF82380CDE90059CDF808A0FDF726FE07
:103E0000787978218DF82300584640220123CDE9A6
:103E10000059CDF808A0FDF719FE09B0BDE8F08FF4
:103E20002DE9F04115461278002A08BFBDE8F0815F
:103E300098460E4607460024F8B2F1B2D2B2434685
:103E4000FFF71AFE0837F8B201347828E0B288BFCD
:103E500002362A5C88BF0027002AEDD1BDE8F08138
:103E60007047000070470000FDF7D8BE70B592B0F3
:103E700006AC20463021FCF750FB002543F64000FD
:103E80000595CDE90355CDE901550095C4F2020031
:103E90000168022641F080510160006800F0805006
:103EA0000090009847F200000095C4F200000168FD
:103EB00041F4804101600068A82100F48040009036
:103EC0000098012006904FF4803007904FF4800056
:103ED0000D9004200E90119020460C96CDE90F16FF
:103EE000FEF764F810B172B6FEE700BF0F20CDE90F
:103EF00001064FF4A05004904FF48050059001A8A3
:103F000005210395FDF742FF10B172B6FEE700BF31
:103F100012B070BD4EF68850CEF20000016841F438
:103F2000700101607047000041F2C440C2F200001D
:103F3000FEF7C4BC41F20C50C2F20000FEF7BEBC5A
:103F4000B0B540F6FF3E0568C4F2000E40F2004CEA
:103F50007045C4F2010C25DCB0F1804F2FD040F247
:103F60000043C4F20003984229D040F60003C4F293
:103F70000003984223D041F6FF73C4F20003984235
:103F800028DC70453ADCB0F1804F5BD040F2004352
:103F9000C4F20003984255D040F60003C4F2000377
:103FA0004EE000BF40F60043C4F20003984206D042
:103FB000604504D00023C4F201039842DBD14B6872
:103FC00025F0700243EA020541F6FF73C4F20003D4
:103FD0009842D6DD43F6FF73C4F2010398421FDC1A
:103FE00042F20003C4F2000398422BD00023C4F233
:103FF0000103984226D0604524D028E040F60043D3
:10400000C4F2000398421DD041F60003C4F200033D
:10401000984217D041F60043C4F2000310E000BFFD
:1040200044F20003C4F2010398420BD044F60003AB
:10403000C4F20103984205D044F20043C4F20103E4
:10404000984204D1CB6825F4407243EA02050A681D
:104050008C684B69C46240F480648262644504BF2A
:1040600009690163026825F0800142F004021943E6
:104070000260012242610160B0BD0000B0B504469B
:10408000006804F108030ECB0569194325F4405577
:104090002A4302616269E3691143C268194349F224
:1040A0000C639A431143C1604169A26921F44071D4
:1040B00041F20043114340F48062C4F201039A428A
:1040C000416103D1FDF728FF02E000BFFDF710FFBB
:1040D000E1694FF69C7563681922C0F6FF75B1F56A
:1040E000004FA0FB02011FD15A00DB0FFCF702F9C1
:1040F00048F21F51C5F2EB11A0FB01235A0905F14B
:10410000805302FB0300322303EBC000A0FB01013C
:104110004FF4F87000EA111000EB0210C1F34211E5
:10412000084421688860B0BD9A009B0FFCF7E2F854
:1041300048F21F51C5F2EB11A0FB01235A0902FB03
:104140000500322303EB0010A0FB0101F02000EA80
:10415000511000EB0210C1F343110844216888603C
:10416000B0BD0000FEE70000F0B583B041F270443E
:1041700040F20807C2F200044FF480750126C2F233
:1041800000072046782100220123CDE90076029520
:10419000FDF75CFC781CCDE9000620467821002262
:1041A00001230295FDF752FCB81CCDE9000620461C
:1041B0007821002201230295FDF748FCF81CCDE987
:1041C000000620467821002201230295FDF73EFCDF
:1041D000381DCDE9000620467821002201230295F2
:1041E000FDF734FC781DCDE9000620467821002239
:1041F00001230295FDF72AFCB81DCDE900062046F3
:104200007821002201230295FDF720FCF81DCDE95D
:10421000000620467821002201230295FDF716FCB6
:1042200007F10800CDE9000620467821002201238D
:104230000295FDF70BFC07F10900CDE900062046C9
:104240007821002201230295FDF700FC07F10A0006
:10425000CDE9000620467821002201230295FDF7D2
:10426000F5FB07F10B00CDE900062046782100227E
:1042700001230295FDF7EAFB07F10C00CDE90006EA
:1042800020467821002201230295FDF7DFFB07F18C
:104290000D00CDE900062046782100220123029579
:1042A000FDF7D4FB07F10E00CDE90006204678218A
:1042B000002201230295FDF7C9FB07F10F00CDE9AC
:1042C000000620467821002201230295FDF7BEFB5F
:1042D00007F11000CDE900062046782100220123D5
:1042E0000295FDF7B3FB07F11100CDE9000620466A
:1042F0007821002201230295FDF7A8FB07F11200A7
:10430000CDE9000620467821002201230295FDF721
:104310009DFB07F11300CDE900062046782100221D
:1043200001230295FDF792FB07F11400CDE9000689
:1043300020467821002201230295FDF787FB07F133
:104340001500CDE9000620467821002201230295C0
:10435000FDF77CFB07F11600CDE900062046782129
:10436000002201230295FDF771FB07F11700CDE94B
:10437000000620467821002201230295FDF766FB06
:1043800007F11800CDE9000620467821002201231C
:104390000295FDF75BFB07F11900CDE90006204609
:1043A0007821002201230295FDF750FB07F11A0046
:1043B000CDE9000620467821002201230295FDF771
:1043C00045FB03B0F0BD000084B041F20008C4F228
:1043D0000208FDF731FCFFF749FDFFF737F9FFF75A
:1043E00019F9FFF793FAFFF7B3F9FFF7DDF8FFF7D5
:1043F000E9F9FFF78BF941F2A054C2F2000420461C
:104400004FF41561FCF789F800204DF20A7141F272
:104410000C55C4F24010C3F62341C2F200054FF020
:104420007C52C4F83809C4F84019C4F84419284625
:104430000021C4F83C29FEF78BFC28460021FEF73A
:1044400029F828460421FEF783FC28460421FEF7BC
:1044500021F828460821FEF77BFC28460821FEF7B4
:1044600019F841F2C440C2F20000FEF7FFF82846F6
:10447000FEF7FCF841F2C830C2F2000021464FF4CA
:104480005272FCF77BFEFFF7EFFAFFF7B7FAFFF780
:104490005FFA45F63C55C0F60005002000212A468B
:1044A0001023FFF7BDFC05F11002002002211023AC
:1044B000FFF7B6FC05F11802002004211023FFF7D6
:1044C000AFFC41F24837C2F2000707F11C0A504620
:1044D000414601220023FCF73BFC07F1340630463D
:1044E000414602220023FCF733FC07F14C05284625
:1044F000414604220023FCF72BFC07F164094846DF
:10450000414608220023FCF723FC9FED0A8A9FED19
:104510000A9A9FED0AAA9FED0ABA9FED0ACA9FED7B
:104520000ADA9FED0AEAA8F5406002900395019629
:104530000EE000BF0000000033335340000080391C
:10454000000052440000C842CDCC4C3ECDCC4C3F84
:104550005046FCF70DFC3046FCF70AFC2846FCF7F9
:1045600007FC4846FCF704FC5046FCF7EBFB01282F
:1045700003D102980421FDF7A3F93046FCF7E2FBD2
:104580002846FCF7DFFB4846FCF7DCFB38780128BF
:10459000DED10020B0EE480A387000BF225A211840
:1045A00001EE102AB8EE411A21EE091A4A8821EECE
:1045B0000A1A30EE010A01EE102AB8EE411A21EE75
:1045C000091A8A8821EE0A1A30EE010A01EE102A31
:1045D000B8EE411A21EE091ACA8821EE0A1A30EE05
:1045E000010A01EE102AB8EE411A21EE091A0A89D1
:1045F00021EE0A1A30EE010A01EE102AB8EE411A35
:1046000021EE091A4A8921EE0A1A30EE010A01EE5A
:10461000102AB8EE411A21EE091A8A8921EE0A1AE7
:1046200030EE010A01EE102AB8EE411A21EE091A05
:10463000CA8921EE0A1A30EE010A01EE102AB8EEFC
:10464000411A21EE091A0A8A21EE0A1A30EE010AED
:1046500001EE102AB8EE411A21EE091A4A8A21EE1B
:104660000A1A30EE010A01EE102AB8EE411A21EEC4
:10467000091A8A8A21EE0A1A30EE010A01EE102A7E
:10468000B8EE411A21EE091ACA8A21EE0A1A30EE52
:10469000010A01EE102AB8EE411A21EE091A0A8B1E
:1046A00021EE0A1A30EE010A01EE102AB8EE411A84
:1046B00021EE091A4A8B21EE0A1A30EE010A01EEA8
:1046C000102AB8EE411A21EE091A8A8B21EE0A1A35
:1046D00030EE010A01EE102AB8EE411A21EE091A55
:1046E000CA8B21EE0A1A30EE010A01EE102AB8EE4A
:1046F000411A21EE091A0A8C21EE0A1A30EE010A3B
:1047000001EE102AB8EE411A21EE091A4A8C21EE68
:104710000A1A30EE010A01EE102AB8EE411A21EE13
:10472000091A8A8C21EE0A1A30EE010A01EE102ACB
:10473000B8EE411A21EE091ACA8C21EE0A1A30EE9F
:10474000010A01EE102AB8EE411A21EE091A098D6C
:1047500021EE0A1A30EE010A01EE101AB8EE411AE3
:1047600021EE091A21EE0A1A2A30B0F5D26F30EE86
:10477000010A7FF413AF80EE0B0A04F6341056469C
:10478000B0EE481A80ED000A002000BF225A21181E
:1047900002EE102AB8EE422A22EE092A22EE0A2A56
:1047A00032EE402A4A8822EE022A32EE011A02EE46
:1047B000102AB8EE422A22EE092A22EE0A2A32EE06
:1047C000402A8A8822EE022A32EE011A02EE102ACC
:1047D000B8EE422A22EE092A22EE0A2A32EE402AB6
:1047E000CA8822EE022A32EE011A02EE102AB8EE30
:1047F000422A22EE092A22EE0A2A32EE402A0A89A9
:1048000022EE022A32EE011A02EE102AB8EE422AF5
:1048100022EE092A22EE0A2A32EE402A4A8922EEA4
:10482000022A32EE011A02EE102AB8EE422A22EED5
:10483000092A22EE0A2A32EE402A8A8922EE022A28
:1048400032EE011A02EE102AB8EE422A22EE092AAE
:1048500022EE0A2A32EE402ACA8922EE022A32EEDB
:10486000011A02EE102AB8EE422A22EE092A22EE9E
:104870000A2A32EE402A0A8A22EE022A32EE011A6F
:1048800002EE102AB8EE422A22EE092A22EE0A2A65
:1048900032EE402A4A8A22EE022A32EE011A02EE53
:1048A000102AB8EE422A22EE092A22EE0A2A32EE15
:1048B000402A8A8A22EE022A32EE011A02EE102AD9
:1048C000B8EE422A22EE092A22EE0A2A32EE402AC5
:1048D000CA8A22EE022A32EE011A02EE102AB8EE3D
:1048E000422A22EE092A22EE0A2A32EE402A0A8BB6
:1048F00022EE022A32EE011A02EE102AB8EE422A05
:1049000022EE092A22EE0A2A32EE402A4A8B22EEB1
:10491000022A32EE011A02EE102AB8EE422A22EEE4
:10492000092A22EE0A2A32EE402A898B22EE022A36
:1049300032EE011A02EE101AB8EE422A22EE092ACD
:1049400022EE0A2A32EE402A22EE022A1E30B0F56A
:10495000D26F32EE011A7FF419AF81EE0B0A04F622
:10496000381104F5136091ED001A04F5146104F692
:10497000441291ED002A92ED003A04F63C1104F63F
:104980004812B1EEC00A20EE0C0A80ED000A04F6CF
:104990004C1031EE400A90ED001A82ED000A30EE24
:1049A000411A22EE011A20EE032A91ED003A31EE6F
:1049B000021A33EE011AB4EE4D1A80ED000AF1EE40
:1049C00010FAB8BFB0EE4D1AB4EE4E1AF1EE10FA6E
:1049D000C8BFB0EE4E1A11EE100A81ED001A00F0B9
:1049E00097FC45F6615507F10108C0F6000502463F
:1049F0000B4640462946FBF7F5FCD4F8300900F099
:104A000087FC07F1090A02460B4650462946FBF788
:104A1000E9FCD4F8380900F07BFC0B4607F1110BD8
:104A200045F65C5102465846C0F60001FBF7DAFC39
:104A30003220002142461023FFF7F2F932200221F2
:104A400052461023FFF7ECF9322004215A46102376
:104A5000FFF7E6F941F2C830C2F2000021464FF4F8
:104A60005272FCF78BFBB246019E039D70E55FEA34
:104A7000400C08BF91F0000F4FEA8C234FEAC1228F
:104A800043EA51514FEA1C5018BF00F5F0404FEA7D
:104A9000300018BF41F000415FEA6C5C00F02980F3
:104AA000BCF1FF3F08BF40F080407047130C06BFC9
:104AB00012044FF0100C4FF0000C130E04BF120242
:104AC0000CF1080C130F04BF12010CF1040C930F2E
:104AD00004BF92000CF1020CD30F04BF52000CF182
:104AE000010C11464FF00002A0F11F00A0EB0C00DA
:104AF000704711F0004F08BF704731F000413FF49C
:104B0000D5AF0B0C06BF09044FF0100C4FF0000C92
:104B10000B0E04BF09020CF1080C0B0F04BF0901B6
:104B20000CF1040C8B0F04BF89000CF1020CCB0FAD
:104B300004BF49000CF1010CCCF1200322FA03F36D
:104B400041EA030102FA0CF2A0EB0C0000F10100B3
:104B50007047000023F07F4720F07F4C80EA03007D
:104B600000F00040ACEB070303F57C5303F1FF03B7
:104B70002DE9804909B44FEA144324EA03484FEA77
:104B8000154B25EA0B4E0FF2042606EB13273E7851
:104B900003FB0667C7F5000707FB06F64FEAD64694
:104BA00006F102064FEA543707FB066CCCF1005CB5
:104BB0004FEA1C472CEA074C0CFB06F507FB06F4F2
:104BC00004EB15464FEA961649085FEA320234BFF5
:104BD00000204FF000404FEAD13706FB07FC4FEAB8
:104BE0001C4C0CFB0BF7D21B03FB0CF761EB070112
:104BF0000CFB0EF7B0EB074072EB17420CFB08F70B
:104C000034BFA2EB0742B2EB074261EB17414FEA18
:104C10000C444FEA910706FB07FC4FEA1C4C0CFBC7
:104C20000BF7B0EBC74072EB573203FB0CF734BF06
:104C3000A2EBC742B2EBC74261EB57310CFB0EF758
:104C4000B0EBC70072EB57720CFB08F734BFA2EB56
:104C5000C702B2EBC70261EB57714FEA816141EACB
:104C600092114FEA826242EA90124FEA806004EBAE
:104C7000CC04039F4FEAD13706FB07FC4FEA1C4CDC
:104C80000CFB0BF7D21B03FB0CF761EB07010CFBD2
:104C90000EF7B0EB074072EB17420CFB08F734BF7E
:104CA000A2EB0742B2EB074261EB17414FEA8C558A
:104CB00004EB9C244FEA910706FB07FC4FEA1C4CCF
:104CC0000CFB0BF7B0EBC74072EB573203FB0CF752
:104CD00034BFA2EBC742B2EBC74261EB57310CFBCA
:104CE0000EF7B0EBC70072EB57720CFB08F734BF3E
:104CF000A2EBC702B2EBC70261EB57714FEA8161C9
:104D000041EA92114FEA826242EA90124FEA8060D1
:104D100015EB4C2544F100044FEAD13706FB07FCA4
:104D20004FEA1C4C0CFB0BF7D21B03FB0CF761EB9F
:104D300007010CFB0EF7B0EB074072EB17420CFBC0
:104D400008F734BFA2EB0742B2EB074261EB174111
:104D50004FEA813141EA92414FEA823242EA90427F
:104D60004FEA80304FEA0C7615EB1C1544F1000435
:104D700048EA03434EEA0B484FF0000EB2EB080C32
:104D800071EB030724BF624639464EEB0E0E4FF01F
:104D9000000B0018524149414BEB0B0BB2EB080CD6
:104DA00071EB03077BF1000B24BF624639464EEBE3
:104DB0000E0E4FF0000B0018524149414BEB0B0B0C
:104DC000B2EB080C71EB03077BF1000B24BF6246CA
:104DD00039464EEB0E0E51EA020718BF46F00106A7
:104DE00016EB0E7655F1000254F1000103D5BDE833
:104DF0008901BDE80088BDE88901BDE80048B61911
:104E0000524141EB0101A3F10103704780807F7E95
:104E10007D7C7B7A79787776767574737271717030
:104E20006F6E6E6D6C6C6B6A6A69686867666665E2
:104E30006464636362616160605F5F5E5E5D5D5C70
:104E40005C5B5B5A5A5959585857575656555555E1
:104E50005454535352525251515050504F4F4F4E41
:104E60004E4D4D4D4C4C4C4B4B4B4A4A4A4949498F
:104E700048484847474747464646454545444444D1
:104E80004443434343424242424141419C46002BFA
:104E900030D477002BD04FEA37071CB503B44FF05E
:104EA00010004FF01001BAF1000F06D0BCF1000F56
:104EB000DCBF40F0080040F008014FF000000FBCDC
:104EC000BDE810400BF1010BBBF1010F08BF5FEA19
:104ED000170722BF12F1010211F101014FF0004149
:104EE00043F1000300F0004043EA00007047F9D3AB
:104EF0005708D0E746EA06464FEA164613F1400F38
:104F00001FDD13F1200FDFBF16430A4600212033B7
:104F10005B42BED0C3F1200746EA06464FEA16467A
:104F200002FA07F746EA070622FA03F2C3F120075E
:104F300001FA07F742EA070221FA03F14FF00003F2
:104F4000A7E746EA020646EA06464FEA164646EA5A
:104F50000106BCBF46EA0646360C4FF000034FF090
:104F600000024FF0000194E72DE9804C70B49A469E
:104F7000934691E8380007C831EA400C48BF34EA4C
:104F8000430C03D5FFF7E6FDFFF780FFF0BCBDE85B
:104F9000008C2DE9804C70B49A46934691E8380015
:104FA00007C810F0804F08BF13F0804F03D100F006
:104FB00005F8FFF76BFFF0BCBDE8008C20F07F47E1
:104FC00023F07F4C80EA030000F0004007EB0C0365
:104FD000A3F57C53A3F1FE0392F0000F00F0B38021
:104FE00095F0000F00F077802DE901494FEA11405C
:104FF00021EA00484FEA144624EA064700FB06FC73
:1050000008FB06F607FB08F818EB06484CEB164CB5
:1050100000FB07F718EB07484CEB17404FEA124B21
:1050200022EA0B4E4FEA154625EA06470BFB06FC23
:105030000EFB06F607FB0EFE1EEB064E4CEB164C67
:105040000BFB07F71EEB074E4CEB174B18EB0B084F
:1050500040F1000018EB0E0B58EB000840F1000087
:105060008F1A4FF000014FF000063CBFC943661B8A
:1050700014BFB5EB040C00213CBFC943F61B4FEA3B
:10508000174427EA04454FEA1C472CEA074C04FB67
:10509000076205FB07F70CFB05F616EB074642EB2C
:1050A000174204FB0CFC16EB0C4642EB1C421BEBBC
:1050B000060658EB020241414EEA8E0E46EA9E0673
:1050C00001D5BDE80189B619524141EB0101A3F1B7
:1050D0000103BDE801894FEA144524EA05464FEA79
:1050E000114721EA074C05FB07F406FB07F70CFB09
:1050F00006F111EB074144EB174405FB0CFC11EBE7
:105100000C4144EB1C444FEA124722EA074C05FBD2
:1051100007F206FB07F70CFB06F616EB074642EB19
:10512000174205FB0CFC16EB0C4642EB1C456A18BB
:1051300054F1000148BF7047B619524141EB0101DB
:10514000A3F10103704795F0000F37D04FEA1142E9
:1051500021EA02464FEA144724EA074C02FB07F112
:1051600006FB07F70CFB06F414EB074441EB174171
:1051700002FB0CFC14EB0C4441EB1C414FEA1547BD
:1051800025EA074C02FB07F506FB07F70CFB06F6C2
:1051900016EB074645EB174502FB0CFC16EB0C46DD
:1051A00045EB1C42121951F1000148BF7047B61976
:1051B000524141EB0101A3F1010370474FEA14454D
:1051C00024EA05464FEA114721EA074C05FB07F19F
:1051D00006FB07F70CFB06F212EB074241EB174107
:1051E00005FB0CFC12EB0C4251EB1C414FF000068E
:1051F00048BF7047921841EB0101A3F101037047CA
:1052000003B401984100009850EAC12018BF04205F
:105210004A0D18BF40F0010040F2FF72B2EB515F3F
:1052200008BF40F00200012808BF052002B0704707
:1052300010B52DED028BB0EE408A18EE100A00F08A
:10524000E5F801EE100A18EE100AB7EE000A78EE43
:10525000410A10F0004F4FF07F4010EE901A12D02C
:10526000B1F13F4F24BF10EE901AB0EB410F12D2B4
:1052700010EE901AB1F17C5F1CDD10EE901AB0EBCD
:10528000410F17D314E0B1F13F4F07D910EE901A38
:10529000B0EB410F02D331EE401A0BE010EE901A42
:1052A000B1F17C5F06DB10EE901AB0EB410F01D339
:1052B00031EE001A18EE100ABDEC028B11EE101A36
:1052C00061F31E0000EE100A10BD30380A2801D22A
:1052D000012070470020704710B500290AD00878D7
:1052E000002807D005487844FBF79EFC002801D031
:1052F000002010BD0248784410BD0000A20A000042
:105300009A0A00000808A0F500114FEA3101704721
:1053100043004FEAD30C4FEA3C0C43401FBF400709
:105320000CF1605113F0FE4F70471CF0006F03D179
:105330000CF00041002070470CF0004343EA50702D
:1053400040EACC0010B500F00EF800BF000000925B
:105350004FEA0001FFF7D6BF4FF00041A1F5002151
:105360004FF0000070470EF1020E2EF0030E5EF8B3
:10537000044B244204D44FEA4102B2F17F4F11D8CA
:105380004FEA4003B3F17F4F0CD80ED14FEAD07CE7
:105390000CEB4C0C0CF1020CB2F17F4F08BF4CEB44
:1053A000D17C04E04FF0080C01E04FEAD17C0CEB1B
:1053B0004C0324FA03F404F00704B4F1040C06D2FD
:1053C0000EEB840CBDE810404CF0010C6047DFE8A8
:1053D0000CF0070802024FF00040A0F5800010BD5D
:1053E0000846420018BFD2F1807288BF00F000402A
:1053F00010BDF1EE100A4FF6FF71C0F2C03120EA85
:10540000010040F04070E1EE100A70475FEA400C86
:105410005FEA1C6CBCF17F0314D4D3F1170240F394
:105420001C804FF0010C0CFA02FCACF101030340AC
:1054300020EA0300B3EB5C0208BF10EA0C0F88BF40
:1054400060447047B3F1FF3F28BF5FEA002C00F0D3
:10545000004088BF40F07E507047BCF1FF0FB8BFDE
:10546000704710B5FFF77FFF40DBB6BEFBF757B9BB
:1054700002400000000000A0000000000540000005
:10548000000000C8000000000C4000000000409C2C
:1054900000000000194000000020BCBE0000000019
:1054A00034400000BFC91B8E00000004B54000005E
:1054B000504BCFD06607E2CF010000006C410000E6
:1054C0003E8251AADFEEA73401000000D94200005D
:1054D000DCB5A0E23A301F97FFFFFFFFB4450000A4
:1054E000FD25A0C8E9A3C14FFFFFFFFFFF3F00005C
:1054F0000000008000000000FF3F0000000000806E
:105500000000000000000000000000000102030491
:105510000607080900000000010203040000000063
:1055200000000000002F000000000700070000142A
:105530007F147F1400242A7F2A1200626408132338
:1055400000364955225000000503000000001C22CF
:105550004100000041221C000014083E081400080D
:10556000083E0808000000A06000000808080808BD
:10557000000060600000002010080402003E514955
:10558000453E0000427F40000042615149460021F3
:1055900041454B31001814127F100027454545390D
:1055A000003C4A4949300001710905030036494968
:1055B000493600064949291E000036360000000021
:1055C000563600000008142241000014141414146C
:1055D0000000412214080002015109060032495915
:1055E000513E007C1211127C007F49494936003E31
:1055F00041414122007F4141221C007F49494941EC
:10560000007F09090901003E4149497A007F0808E5
:10561000087F0000417F4100002040413F01007FA2
:1056200008142241007F40404040007F020C027F6E
:10563000007F0408107F003E4141413E007F090980
:105640000906003E4151215E007F091929460046A6
:10565000494949310001017F0101003F4040403F7D
:10566000001F2040201F003F4038403F00631408C7
:1056700014630007087008070061514945430000A2
:105680007F41410000552A552A55000041417F00C5
:1056900000040201020400404040404000000102BA
:1056A0000400002054545478007F484444380038A3
:1056B0004444442000384444487F0038545454182B
:1056C00000087E0901020018A4A4A47C007F08043D
:1056D00004780000447D4000004080847D00007F0D
:1056E000102844000000417F4000007C041804782A
:1056F000007C0804047800384444443800FC242426
:1057000024180018242418FC007C0804040800480D
:105710005454542000043F444020003C4040207C2E
:10572000001C2040201C003C4030403C004428101D
:105730002844001CA0A0A07C004464544C441414D1
:105740001414141400000000000000000000000009
:1057500000000000000000F800000000000000331E
:105760003000000000100C06100C060000000000C5
:105770000000000040C07840C0784000043F0404AE
:105780003F040400007088FC08300000001820FF6F
:10579000211E0000F008F000E018000000211C03AA
:1057A0001E211E0000F00888700000001E21232426
:1057B0001927211010160E00000000000000000044
:1057C00000000000000000E01804020000000007D4
:1057D0001820400000020418E000000000402018DB
:1057E00007000000404080F0804040000202010FAE
:1057F00001020200000000F0000000000101011F92
:1058000001010100000000000000000080B07000F5
:105810000000000000000000000000000001010185
:105820000101010100000000000000000030300014
:1058300000000000000000008060180400601806EE
:105840000100000000E010080810E000000F102028
:1058500020100F00001010F8000000000020203F72
:1058600020200000007008080888700000302824FC
:10587000222130000030088888483000001820209D
:1058800020110E000000C02010F8000000070424C2
:10589000243F240000F80888880808000019212007
:1058A00020110E0000E0108888180000000F112061
:1058B00020110E0000380808C83808000000003F1A
:1058C000000000000070880808887000001C222179
:1058D00021221C0000E010080810E0000000312226
:1058E00022110F00000000C0C000000000000030C6
:1058F0003000000000000080000000000000806018
:105900000000000000008040201008000001020498
:10591000081020004040404040404000040404047F
:10592000040404000008102040800000002010083B
:1059300004020100007048080808F0000000003070
:1059400036010000C030C828E810E00007182724FE
:1059500023140B000000C038E0000000203C2302AC
:105960000227382008F8888888700000203F20200F
:1059700020110E00C0300808080838000718202041
:105980002010080008F808080810E000203F202038
:1059900020100F0008F88888E8081000203F202019
:1059A0002320180008F88888E8081000203F20000D
:1059B00003000000C0300808083800000718202045
:1059C000221E020008F808000008F808203F210104
:1059D00001213F20000808F8080800000020203FAF
:1059E0002020000000000808F8080800C08080801F
:1059F0007F00000008F888C028180800203F200118
:105A00002638200008F8080000000000203F202071
:105A10002020300008F8F800F8F80800203F003F88
:105A2000003F200008F830C00008F808203F2000A0
:105A300007183F00E01008080810E0000F102020B1
:105A400020100F0008F808080808F000203F210186
:105A500001010000E01008080810E0000F182424DD
:105A600038504F0008F8888888887000203F200050
:105A7000030C302000708808080838000038202106
:105A800021221C00180808F8080818000000203F10
:105A90002000000008F808000008F808001F202077
:105AA00020201F000878880000C838080000073848
:105AB0000E010000F80800F80008F800033C070099
:105AC000073C0300081868808068180820302C0301
:105AD000032C30200838C800C83808000000203FD8
